:020000040000fa
:080000000001040000000000f3
:020000040000fa
:100200000f00220080792200000188000000000019
:10021000050007000c0007002e140200000000007b
:100220000040da000000fe004440a90000802000e9
:100230000000e0000300320000002000a001880060
:100240004440a80000000600802c2f000100200080
:100250001600370062004000e080480091018800ed
:100260009001ba0062004000e080480091018800df
:100270009002ba0062004000e08048000002eb00fb
:100280006028e10005003a008301e900070033001f
:10029000038009000059eb00040037006128e100e9
:1002a000010032000082eb00050007009101880088
:1002b0001001ba000200e000e6ff3a00000005006d
:1002c000910188008002780062004000e0804800d0
:1002d0003559ba008301e900080032002559ba00f7
:1002e0008301e900050032000400e000f4ff320061
:1002f00015d9ba008301e900f1ff3a0000000600b9
:10030000c64004000000000060400400000000003f
:100310009a360400000000007e3704000000000050
:100320000a3d040000000000e03f0400000000005f
:100330003243040000000000623f0400000000009f
:100340002c41040000000000a8010400000000008f
:10035000881f780002047800bc00070008004000f5
:100360004f047800000006000000fa00881f7800a3
:10037000000478003fb99700ea81570080007800b8
:10038000801a2000b8000700800078000000e0001c
:10039000020035000040eb0000f478000100780016
:1003a0004f0478000080fa0000000600800078000a
:1003b000010037000000e8001004e000fdff3a00f3
:1003c0000100500000000600889fbe0080047800f5
:1003d000d2c780000200e000020032000200780074
:1003e0000c003700c08f210003003700918f5400ac
:1003f000240036000180e800900078000100e00051
:10040000faff3a000f003700918f54001d003600ac
:100410000180e800900078000100e000faff3a0057
:1004200012017800c08f210003003700918f540023
:10043000140036000180e80090007800828f5000a0
:10044000faff3a00c8c78000890f5400010031004c
:1004500009047800080078003c0107000000e00073
:1004600004003a00890f5400050032000804d1004e
:10047000f5ff37000818780041000700d4ff370067
:100480000000eb004f04be0000000600881f78004b
:10049000630440000800a100800f540023003600d0
:1004a000e30f540001003e004800200008007800df
:1004b000c5ff0700800078000000e0001b0032004c
:1004c000100178009201780064805100880f50007c
:1004d0000300310012009000800878000700370008
:1004e00008004100800878009201900013009800f5
:1004f00011007800120814000809780091007800b3
:100500000100e00005003200110090000000e00052
:10051000020032000180e800010037000000eb001b
:10052000d0c788000280e800010037000000eb001f
:100530004f04780000000600000478000600370031
:100540008200410000c88000e10078000200e8005d
:10055000f0c7880001000100f2c7800010c88000c9
:10056000800f5100f6ff39008078210000c8880014
:100570002002200010c8880008007800d803070077
:100580000000e000300032008080e9009102780035
:10059000e38f52002c0036000508a3002a003a0021
:1005a000e2c780000200e00002003200828f5000ab
:1005b0000400310002087800e1c788001600370007
:1005c00003017800920190000300e0000200320075
:1005d000818f5100faff39001202780004004100b7
:1005e000808f500018003900810f500003003a003e
:1005f0000509420082007800070037000300e00090
:100600000300320005804000808f51000e00390049
:100610009300980011019800110190000200e00081
:100620000900320011804000820f500006003a009d
:10063000fa38ef0011009000110178009008410095
:1006400010009000900098000000060080017800e3
:1006500002003700b15978000201e9000200e00011
:10066000fcff3a00000006006200fa00889fbe000e
:100670008a9fbe000004be00020578008300780057
:1006800060f92f000f004000b700070088979f0017
:1006900099979f000000eb00a09f9f009a4578006b
:1006a0000b80fb000000ea00cf04de0050c2b30064
:1006b00080cf5500020032000904780001003700a5
:1006c0000904e9000800e0000b0034001f909700c7
:1006d000080178008a0078008f91970003000100dc
:1006e00090979f000000e000930032002f98970041
:1006f00000004400a09f9f000905450050c2b300c0
:1007000080cf5500040032000b04e000e3ff3a0004
:100710002f989700890037000000eb00809f9f0012
:10072000f0979f00e0979f00d0979f00c0979f0091
:10073000b0979f00c09f9f0009003700608a21008a
:100740000080500000004000a1892100e080780076
:100750004f98970001007000c09f9f000a05e800b5
:100760001a4478008800fb00608a2100830007009b
:10077000800078000000e000f0ff3a00a0c2b30063
:10078000804f54000e003a00bf8897000180e900b6
:10079000b08f9f0010007800b09f9f000000e00025
:1007a00005003d000000ea00b09f9f004f989700b1
:1007b0000020a000c09f9f000a05e800100037003d
:1007c000b19f9f0009003700bf989700f0ff2700f6
:1007d000808f5000040032006a08b9000000410018
:1007e00003004000b09f9f000a05e8001a01fb00cb
:1007f00003fd2f0003004100e90f5000f2ff360017
:10080000e0c2b3009a4f1000040032000080eb00f9
:10081000909f9f008a0478001c0037008a04e8003b
:10082000a0c2b300994f100007003a00bf8897009c
:100830000180e900b08f9f0010007800909f9f001a
:100840008a84e800110037000000eb00909f9f00b1
:10085000090037009f989700f0ff2700808f500015
:10086000040032006a08b9000000410003004000a3
:10087000909f9f008904e8001901fb0003fd2f00f1
:1008800003004100e90f5000f2ff360019447800e0
:100890008800fb0000922100380007000000e00003
:1008a00002003a0000447800010037008904e800a3
:1008b000a87f9f0080c6b300804f540004003a0018
:1008c000994f14000a003a006640500006003700b5
:1008d000c0c6b300804f540005003a00994f140081
:1008e00003003a0065404000a07f9f008904e800b3
:1008f0000905e800cbfb2f008f8545001901fb009f
:1009000060f92f000f0040000084e8008b017800a0
:100910008000780008007800210007000000e00057
:1009200005003a008b00780008007800600107009d
:100930000000e00059ff3d000080eb004f05be00c5
:100940004f04be000080fa00000006000000e00036
:1009500003003400ea020700e10f400001003a0002
:100960000000eb00000006000200fa00f1bf9f004b
:10097000010878000080fa0000000600040037003b
:100980000204e00001003a00000005000000e80059
:1009900010417800814f5100f9ff3a000000060035
:1009a000889fbe008a1f780000047800010278004a
:1009b0008244780003057800e0c6b300804f510000
:1009c000d300320015003c006b405000804f5100b6
:1009d000240032000a003c0070405000804f51005b
:1009e0001001320065404000804f51007400320019
:1009f00050c2b300804f510021013a001d01370061
:100a000040c6b300804f51001b00320065404000db
:100a1000804f51001a013a001700370030c7b30069
:100a2000804f5100ff00320007003c00644050003e
:100a3000804f5100620032000040e800804f5100ba
:100a40000f013a00e800370050c7b300804f510053
:100a50005b00320063404000804f510008013a00c3
:100a6000570037009180e900010a78007800900073
:100a70009171780008013700a8609000c0c6b300eb
:100a800080cf50000a003a00940078006480500043
:100a9000000a78001000be004f89de00cf91de0012
:100aa0000002be00020378008203780013003700c2
:100ab00010c7b30080cf500003003200a0c6b300bf
:100ac00080cf500006003a00940078006880500003
:100ad000000a78003002be002003be000700370085
:100ae0001480e900000a7800100078000002780005
:100af000cfa2de000503780086037800049cbe00c8
:100b00000694be00a860900080c6b30080cf50005d
:100b10000e00320020c6b30080cf500005003a001e
:100b20000400fb00cf80de00010178008201780024
:100b30000a00370040c7b30080cf500003003200e6
:100b40006640400080cf500006003a000400780064
:100b5000cf80de000101780082017800009cbe0099
:100b60000294be003800be002801be00e00f500015
:100b7000e08f5800e00f5900e08f590003003d005e
:100b800078009000d1c2b3000a003700081090002e
:100b90000018a3000300320078009000b1c2b30037
:100ba000040037000008a3005400320078009000d1
:100bb00001c2b300017578000000e8004e00370064
:100bc000a8609000c0c6b30080cf500007003a0074
:100bd0009400780064805000000a78001002be0083
:100be0000003eb00860378001300370010c7b30042
:100bf00080cf500003003200a0c6b30080cf500069
:100c000006003a009400780068805000000a7800de
:100c10003002be002003be00070037001480e90048
:100c2000000a78001000780000027800050020001b
:100c30000600200007002000049cbe000694be00b1
:100c4000a860900080c6b30080cf50000e00320034
:100c500020c6b30080cf500005003a000480fb009e
:100c60000100200002002000030020000a003700dd
:100c700040c7b30080cf5000030032006640400000
:100c800080cf500006003a000400780001002000e8
:100c90000200200003002000009cbe000294be0061
:100ca000081090000038a300140032003800be0085
:100cb0002801be00e00f5000e08f5800e00f5900ff
:100cc000e08f59000d00320080c7b30080cf540080
:100cd0000300320080c5b30080cf540007003a0003
:100ce0007800900001c3b300017578008000e8002f
:100cf00009f578000080e800700498007800900002
:100d000000004500600498008940780042003700e8
:100d1000a8609000c0c6b30080cf5000250032000c
:100d20000a003c006440500080cf50002800320090
:100d300000c0e80080cf500014003200684050002e
:100d400080cf500022003a000a00370040c7b300ad
:100d500080cf50001e0032006640400080cf50001f
:100d60001b0032006940500080cf500018003a004c
:100d7000060037001480e900000a780010007800af
:100d8000485c900008487800450037001480e9006e
:100d9000000a78001002780068089000cf80de001a
:100da0000101780082017800009abe000292be0024
:100db0003b0037001480e900000a78001001780039
:100dc00068089000cf80de000089be003400370044
:100dd0001480e900000a780010007800680c900088
:100de000080878002e0037001180e900800878009c
:100df00010007800cf80de000101780082017800c9
:100e0000009cbe000294be007800900000004500e7
:100e10006004980081c7b30008007800ee00070066
:100e20001f0037001480e900000a780010007800e5
:100e300060049800580990000200e00002003d00a4
:100e40005afd0700090037008000eb0099010700f8
:100e5000800078000000e00003003200680090008d
:100e6000008050000100370058089000100c9800d6
:100e70000b003700780090000275780006003700fc
:100e800078009000800045000904e00001003a006d
:100e900059c2b300894878000000e8007004980047
:100ea0000000eb004f0578004f04be000000060074
:100eb0000400fa00889fbe008a9fbe008c1f780045
:100ec000000478000106780070089000f800900097
:100ed0000100500088089000010050009808900020
:100ee00001005000a808900001005000b8089000d0
:100ef00001005000c8089000810550000002220047
:100f000090bf9f0000032300a0bf9f000810900027
:100f10000028a30018003a000b00e000160034007f
:100f20008b04780009057800e28f54000200360037
:100f30002a002000020037000900e0000b00340006
:100f400058009000c80190000a017800ee80570018
:100f500003000100500498000000e00096003200f9
:100f60006808900000004500600c98008a845400d6
:100f70004240a900ebff3c00780190000200e00035
:100f80000b00340058009000c80190008c007800dd
:100f900003000100500498000000e00086003200c9
:100fa00068089000f800900001004000600c980074
:100fb000880c90000900e000150034000905780055
:100fc000e28f5400020036002a00200002003700a1
:100fd0000900e0000b00340058009000c8019000a8
:100fe0000a017800ec8057000300010050049800cb
:100ff0000000e0007000320068089000000045002a
:10100000600c98008a8454004240a900ebff3c0029
:10101000180990000200e0000b003400e800900086
:1010200058009000c801900003000100500498008f
:101030000000e0006000320068089000980890000e
:1010400001004000600c9800a80c90000900e0002e
:101050001500340009057800e28f540002003600c4
:101060002a002000020037000900e0000b003400d5
:1010700058009000c80190000a017800ec805700e9
:1010800003000100500498000000e0004a00320014
:101090006808900000004500600c98008a845400a5
:1010a0004240a900ebff3c00380990000200e0003c
:1010b0000d003400e8009000180890008080400087
:1010c00058009000c80190000300010050049800ef
:1010d0000000e0003800320068089000b808900076
:1010e00001004000600c9800c80c90000900e0006e
:1010f0001500340009057800e28f54000200360024
:101100002a002000020037000900e0000b00340034
:1011100058009000c80190000a017800ec80570048
:1011200003000100500498000000e000220032009b
:101130006808900000004500600c98008a84540004
:101140004240a900ebff3c00081090000028a300db
:101150001b0032000b00e000190034008b04780003
:1011600009057800e28f5400020036002a002000b2
:10117000020037000900e0000b0034005800900026
:10118000c80190000a017800ee80570003000100ba
:10119000500498000000e00007003200680890004a
:1011a00000004500600c98008a8454004240a90069
:1011b00003003400eaff37000080eb000100370035
:1011c0000000eb004f0678004f05be004f04be0044
:1011d0000080fa0000000600ef02b000889fbe0009
:1011e0008a9fbe008c9fbe008e1f7800800678000c
:1011f00000012000b0b79f0012852100c2b79f00f8
:1012000080c5b30080cf50000e0032008300200064
:10121000b3b79f0004842100c4b79f00774040000b
:1012200080cf50000700320000012000b0b79f00bf
:1012300080c7b30080cf500002003200a20020001f
:10124000b2b79f003d04be002d05be0040c6b300ee
:1012500080cf5000030032006540400080cf500036
:101260000b003a00e00f5400e08f5c00e00f5d00df
:10127000e08f5d0006003d006000b8006011b8001e
:1012800008045000898458000a0559008b855900cc
:10129000e00f5400e08f5c00e00f5d00e08f5d0028
:1012a00004003a005d0890008e0120000000e0007c
:1012b0000c003200bfb1970003027800cfa2de001d
:1012c00005037800860378000800be000a01be000e
:1012d0003b0407004fb2970064407800d0df9f00c6
:1012e0007e0120003fb0970000027800cfa2de0010
:1012f00005037800860378000800be000a01be00de
:101300002804070023003700bfb0970001047800cd
:10131000cfc4de00090578008a0578000802be0007
:101320000a03be007fa897008fb097001fb19700f7
:10133000afb1970026040700d0b79f00e1b79f0028
:10134000f2b79f0083bf9f000e07e90062fc2f00e9
:101350000f0141000e0641000802be000a03be0054
:101360005fb09700efb097007fb197008fb99700fb
:10137000930407007faa970000005200cfb09700a7
:10138000614e78005fb09700efb097007fb1970093
:101390008fb99700809ebe008296be003d00be00c1
:1013a0002d01be00f0af9f0081b79f0092b79f0054
:1013b000a3b79f00e00f5000e08f5800e00f5900e6
:1013c000e08f5900020034000e00e000ceff3c0028
:1013d000bfb09700e88f500010003a000d10900049
:1013e0000038a3000d003200f70f570006003e0042
:1013f00062fc2f000f0141008e00410000c3b300ca
:10140000914f1000050032000e07e90000c3b30041
:1014100063fc2f008f81410080717f0078011700ed
:10142000920e98006d00900063fc2f008f814100a8
:101430008e80410085fc07001d0990005d0890002a
:10144000800f510006003d0002005000800e980001
:101450000d1090000040a100801698000f0037008a
:101460000000e0000d003d000d10900074006000d1
:10147000f00f500009003a007d089000fd00900038
:10148000010050008d089000010050000200500043
:101490004240a90001003400800e98004f077800f8
:1014a0004f06be004f05be004f04be00ef02b10064
:1014b000000006000600370090cf100002003a003e
:1014c00000017800040037000000e8000201e90094
:1014d0000200e000f8ff3a00020078000000060079
:1014e0000c02e20004003d000f42ab00020032009b
:1014f0000f02ab00feff32000040da00feff3700b3
:10150000889fbe00800478001e19e20004003a00a3
:101510000000eb00100007000000e0000a003500aa
:10152000f0c880000900e00002003a0000047800e2
:10153000060037000004780009004000060007009c
:101540000000e00001003d000084eb00080078008e
:101550004f04be0000000600800078000000e0009c
:1015600004003a0080922100f0c888000101780050
:10157000060037000081eb0080b22100808f500010
:1015800002003e00f1c888000001eb000200780074
:1015900000000600889fbe008a9fbe0001057800fb
:1015a0000100e0000400350008003c000000e000fd
:1015b000200032000500370060001000e0801800b5
:1015c00002003b0001f02c001a0037000004be00ae
:1015d0006011b8006b0920000982cf0002003900b9
:1015e0000882cf000441b000694252000e00320070
:1015f00008003b0082817100610164008904d10010
:101600000884d3008b05e8000442e800f9ff3a00a3
:10161000050037000804440089844c008b05e9006c
:101620000442e900fbff3a006b0107000af0a70043
:1016300001f0a0004f05be004f04be0000000600f0
:10164000889fbe008a9fbe008c1f7800880107001b
:101650001002200002003b00e0c888008c01370027
:101660008a0062006408e10002003a00e0c88800d5
:10167000940137006108e100fcff32000800be0061
:10168000030478000b00070001f0a100900107009f
:1016900008f0a600040037000001be0091042400f9
:1016a000b0fd20007900070009f0a70001f0a200ba
:1016b00080013700889fbe008a9fbe008c1f780083
:1016c0006b0107007201330003866c006450e10077
:1016d0002e0032006420e100330032006150e1004e
:1016e0002f0032006120e100310032008585550075
:1016f000eb07b000090020000804200005003700b7
:101700000804440089844c000a00310006034300a9
:1017100087834b000001530081815b00f8ff330099
:101720000203be000800a0000804440089844c00a5
:10173000f6ff3900c639dd00830173000100320075
:10174000130020008904d1000884d3000998a30065
:10175000050032000800a7000300a0008904d100a2
:101760000884d3008b05e8008904d1000884d300e5
:101770000001eb000281d2001701070001f0a10077
:101780000cf0a70001f0a0004a0137006420e1003e
:101790004c0132000801be000200be00f7ff370016
:1017a0006120e100470132006000b800f3ff37001c
:1017b0000000200001f82700f0ff3700889fbe00de
:1017c0008a9fbe008c1f780029010700300133007a
:1017d00003866c006450e100240032006420e100c4
:1017e000270032006150e100220032006120e10058
:1017f000210032008b854200eb07b1000134b800b4
:10180000003ab8000804420089844a00013ab8004e
:101810000030b8008880400009014a00040033000d
:101820000000400081804800020149008b05e9006a
:10183000c909dd008301700001003200130020009f
:10184000c814de004814dd004709de001200b200b3
:10185000c808de0008847000df00070001f0a10066
:101860000cf0a70001f0a000120137006120e10098
:10187000140132000801be000200be00f7ff37006d
:101880006150e100fcff3a000e01370003f0a200b6
:10189000889fbe008a9fbe008c1f7800f40007005e
:1018a000fb0033006450e1004f0032006420e1008f
:1018b0005200320003826c0007003b000905d00093
:1018c0000306d000820f54000c065d0002003900b0
:1018d00002003200890178000306780085825500f5
:1018e00004003d000003fd008103fd008502ea00c5
:1018f0008b854200840f720002003b0060001000e4
:10190000e08018006011b8000005eb007a28e100c3
:101910000a00390006007800c75ddd00f707b20055
:10192000878075002d003700828171000a017800e0
:10193000610560008180d1000080d3008502e9004c
:10194000f9ff3b00060440008784480002003b008a
:1019500060041400e0841c000988a3000700320022
:101960008a81710082817100610164008904d10063
:101970000884d3008b05e800170037000978a3001e
:1019800013003a000b00e000130034008b05e9005f
:101990000804440089844c000a4474000978a300b8
:1019a0000d003a000b00e000070034008b05e90051
:1019b0000804440089844c0001003a000b00200018
:1019c0000978a300f7ff32000001eb0002003700a6
:1019d000828171000a0178007f0007000cf0a700e7
:1019e00001f0a000b30037006420e10002003a00db
:1019f000838f6c00b30033000801be000200be00fc
:101a0000ac0037000001eb001601070004003200b3
:101a10000200200003f8230001f0a7009bff07004d
:101a2000000006000001be00350107000470a70099
:101a300003f0a1006509b100160032000d00350069
:101a40006828e10006003500f0ff2f00f1ff2700b5
:101a50000300e00013003b00010028000000050027
:101a600000004000818048008502e900fcff3a0048
:101a700008003700f88f420002003c008000eb00b5
:101a8000000005008100d1000080d3008502e8003d
:101a9000fcff3a000300e00002003b006000100081
:101aa000e080180000000600140020002901370023
:101ab000f4ff2f0027013700839f68000100e0003a
:101ac00002003d0060001000e08018000300e0000c
:101ad00002003d0060011100e0811900380107009b
:101ae0004f00e00002003b0060001000e0801800a2
:101af000000006000001eb0041013700889fbe0096
:101b00008a9fbe008c1f78000004be00fc00070006
:101b10000478a30026003a006120e100250032008d
:101b200009f8a30025003a006420e10021003200fa
:101b3000f507b1000508a3000200320000004000d4
:101b4000818048006044b80003102000020020009b
:101b500000004000818048000805440089854c0051
:101b60000a0541008b8549000a0550008b85580005
:101b7000030033000a00be00020474008384740072
:101b80008301d1000281d300830f7100f0ff3a007e
:101b90008904d1000884d3006001490082017800e3
:101ba000c1adde00fb07b0000b00070041003700ad
:101bb0000960a0000800be003e00370012022000ad
:101bc000e2c88800f0ff2f00f1ff2700390037003e
:101bd00004002000df0037008100200061805500f4
:101be0000b003d000b00200061fe2f000100e10012
:101bf0001d00340082817100610164008904d100fc
:101c00000884d3000000e800faff3a0071002000c9
:101c100061006400030070000200600009003200ef
:101c200061044400e0844c000988a50005003200ee
:101c30008b05e8006808e10002003a008904d10041
:101c40000884d300f20f20000258e10005003d0097
:101c5000c75ddd00f907b2008980750008007800d3
:101c6000000006000bf827008b007800000005003c
:101c70000004be00a20007000003be000405be0071
:101c80000200be009e000700844f750000000600a1
:101c90000200be006450e100050036006420e1004f
:101ca000020036000968a30001003a000800be00e7
:101cb0000160a0004f0678004f05be004f04be0033
:101cc00000000600f0ff2f00f1ff2700f9ff3700aa
:101cd000889fbe008a9fbe008c9fbe000004be008d
:101ce000870007000800be00890678006420e10034
:101cf00008003900040032000160a0001202200038
:101d0000e2c888005300370091fc2300b0fd20009a
:101d10004e0037000006eb0009f0a10003f8230095
:101d2000020020000800be005fff0700060034002c
:101d300001f82300000020000801be005dfe07003e
:101d40000004be002c0020000800be0093e8230021
:101d5000320a230054ff0700120034000801be00bd
:101d6000d1fd2300703d2b00c9fe07000005be0019
:101d7000b3f32300f27a26000800be008ffe0700ae
:101d800003f8230002002000c0fe07000801be0087
:101d9000bffe07000a01be0046fe07000004be00a9
:101da0000c06e8000800be0001f0a10002002000bf
:101db000039823003cff07000800be001600350012
:101dc0000801be007dfe07000005be0032cd2c00dc
:101dd00043fb2300aefe0700809fbe00126928006f
:101de00003d52b000a00be0074fe0700620f21001d
:101df00013ef2b00a6fe07000a01be006ffe0700ce
:101e00004f01be002bfe07000801be006bfe07005d
:101e10000801be009efe07000c00e0000b0032002f
:101e20000c10a70001f0a200b2fd200093fc2300db
:101e30006260e1000400320022a9200063f0230068
:101e40000c10a70063f8230091fe07000df0a70017
:101e500001f0a2004f06be004f05be004f04be00b9
:101e600000000600889fbe008a9fbe000003be00df
:101e700023000700850578008281520002002000bf
:101e80006220e10004003a00f307b10004003500cd
:101e90007718e100040035000600be00140037008a
:101ea0006000b8000f003700f50f2000faff2f0088
:101eb0008502d1000a85d3008301e900fcff3b00c5
:101ec0008184620000046500890f7400f2ff320013
:101ed0008582ea000a85ea008184620000046500c8
:101ee0003dff070007f0a70001f0a0000081eb0014
:101ef0000200e0004f05be004f04be0000000600d7
:101f0000c70ade00f107b200f50fb2000800320088
:101f1000e1cf4200020032000170a0002400050061
:101f2000810f700001003200040805004400050024
:101f3000810f700002003a00140005008502e900dc
:101f40000000400081c04800fcff3b000170a00081
:101f500024000500889fbe008a9fbe00841f780071
:101f600043ff07004f00780011003300f0ff2f00ff
:101f7000838f6c0006003b00040565000a00a70083
:101f80000800370009f0a600100020000800370004
:101f9000820f5400838f5c00030039001000200082
:101fa00001003e000000200009f0a7000000ea0048
:101fb0004f05be004f04be000000e0000000060018
:101fc0006022b800060220000000d0008180d2000c
:101fd0000482d2008582d2000000a00002025200da
:101fe00083825a00030031000202420083824a00c9
:101ff0000000a1000603e900f3ff3a00000006001c
:10200000889fbe008a9fbe008c9fbe00020678009b
:1020100001f0a7000cf0a0000004be00b8ff07000c
:102020000800be006420e1000700390002003a0009
:10203000f1ff2700f0ff2f000160a0001202200036
:10204000e2c888005100370009f0a1000800be0076
:102050000200200003f8230095fe0700f4ff3c0077
:102060000800be0002002000039823008efe070037
:102070000800be00300035000200200003f02300fd
:102080008bfe070005003c000800be000801be00f2
:10209000cafd07000005be000e0037000c10a200ac
:1020a0000000200001f823000801be00f7fd070032
:1020b0000200200003f02300c0fd07000005be0061
:1020c0008efe07000200200003002c00bbfd07006d
:1020d0000004be000a00be00b2d02800130b2c0082
:1020e000ebfd07000a01be00b4fd0700020f25004a
:1020f000330b2400e6fd0700809fbe000a00be00ef
:102100005206220013f02b00acfd0700b26621003e
:10211000f3f62300defd07000a01be00a7fd07005d
:102120004f01be0063fd07000801be00a3fd0700cc
:102130000801be00d6fd07000c00a700070037000d
:10214000b2fd200093fc23000c10a700d0fd070077
:102150000cf0a70001f0a2000c0037000cf0a70063
:102160000200370001f0a20004003700b2fd200099
:10217000930424000c10a60003003700b2fd2000d9
:1021800093fc23000c10a700c1fd07004f06be0002
:102190004f05be004f04be0000000600881f7800f7
:1021a000000478005001be004000be000400400062
:1021b000858048000601490087814900009cbe00d7
:1021c0000294be000400e1000588e1000690e100f1
:1021d0000798e10002003100680044001008e800a0
:1021e0004f047800000006001000fa00889fbe002f
:1021f0008a9fbe003004be002005be00c8b79f0005
:10220000d9b79f00eab79f00fbb79f0004045400b2
:1022100085845c0006055d0087855d0088bf9f00a2
:1022200099bf9f00aabf9f00bbbf9f000898be0038
:102230000a98be008000eb004fb49700dfb497000f
:102240006fb59700ffb597000440e10005c8e100b5
:1022500006d0e10007d8e1000100310011002000a4
:10226000108810004f05be004f04be000080fa0029
:10227000000006001200fa00889fbe008a9fbe0080
:102280008c1f78000205be000004be00f4b79f005a
:1022900085bf9f0096bf9f00a7bf9f000000eb0077
:1022a000e0b79f00d0b79f00c0b79f00b0b79f00b6
:1022b000a0b79f0000067800dfb097006fb09700ce
:1022c000000140000000e0000a003d008c00070013
:1022d00001003d00120020009200070001003d00b7
:1022e00012002000970007007c805700abff07001a
:1022f000090037008200070001003d0012002000a5
:102300008800070001003d00120020008d0007003a
:102310007c805700b4ff07006fb297000400e00014
:102320000700350010002000010020006011b800f7
:1023300008047000898470000a0571008b857100a3
:102340000c06e800f0032000800f5600daff34008e
:102350000400e00006003d007fb297008fba9700ae
:102360001fbb9700afbb97007c8057008bff070017
:102370006fa897000000e00004003a002fb4970017
:10238000bfb497004fb59700dfb5970089000700ed
:102390004f0678004f05be004f04be000080fa00d3
:1023a00000000600881f780018002000881f7800b1
:1023b000b0ff07008f87e9004f0478000000060097
:1023c000801feb00abff07008f87e90000000600cd
:1023d000889fbe008a9fbe008c1f78006e00070099
:1023e00005003d002f00070007003d003d000700ed
:1023f0000006eb00040037003f00070002003d002c
:10240000300007001c0020006a000700e5ff0700fd
:102410000203be000002be000c00e000010032001a
:10242000280007000400be000601be004f06780029
:102430004f05be004f04be0000000600889fbe008e
:102440008a9fbe008c1f78005300070003003d00e8
:102450001400070006003d000400370026000700b6
:1024600003003d006000b8006011b8001d000700c7
:1024700050000700d2ff07000203be000002be00aa
:102480000c00e000010032000e0007000400be0056
:102490000601be004f0678004f05be004f04be0087
:1024a000000006006000b8006011b8000804500089
:1024b000898458000a0559008b8559001c002000aa
:1024c000030037006000b8006011b8000500370055
:1024d000e00f5200e08f5a00e00f5b00e08f5b00de
:1024e00000000600040250008582580006035900cf
:1024f00087835900000006000006eb00f4ff370058
:102500004f08de0000007100c0b79f00018040004e
:10251000b0b79f000001eb00afb097000100e000f2
:102520000000060002007000b0b79f00018040006c
:10253000a0b79f000001eb009fb097000100e000f2
:102540000000060002007000a0b79f00018040005c
:102550000fb29700cf20de000100700090b79f00ff
:1025600004024200130007004f18de000002720050
:1025700084b79f000804440089844c000a054d007c
:102580008b854d005fb29700efb297007fb3970045
:102590008fbb9700000006000205be000004be00cd
:1025a000e00f5000e08f5800e00f5900e08f590015
:1025b000000006000800be000a01be000000060080
:1025c000889fbe008a9fbe008c1f78000205be0057
:1025d0000004be000006eb00e00f5000e08f580042
:1025e000e00f5900e08f590007003d006000b8007f
:1025f0006011b80008045000898458000a05590089
:102600008b8559001c002000e00f5200e08f5a001b
:10261000e00f5b00e08f5b0002003d000f00070051
:102620000c00a2000800be000a01be001200070054
:102630000203be000002be000c00e00001003200f8
:10264000060007000400be000601be004f06780029
:102650004f05be004f04be00000006006000b80039
:102660006011b8000402500085825800060359002a
:102670008783590000000600889fbe008a9fbe0025
:102680008c9fbe000404b8000506b800890446000b
:1026900060854e000606b8000a054600e0854e003b
:1026a0000706b8008b054600040eb80089044600f2
:1026b0000a854e00e0854d00050eb8000a0546006b
:1026c0008b854e00060eb8008b0546000416b80038
:1026d0000a0546008b854e000516b8008b0546009e
:1026e000041eb8008b0546000800be000a01be00ab
:1026f0004f06be004f05be004f04be00000006009e
:10270000889fbe008a9fbe008c9fbe004400f800d8
:10271000070f2000270288003400f80007f02f0080
:102720000338e10004003200270280004700b300b4
:1027300027028800a3018800811f7800190020006b
:10274000804cdd0013002000020478008006780031
:102750008904d100424edd00010578000302e90042
:1027600004800800170000008a0546004218dd00ba
:102770000902e900048008001000000000000000c9
:102780004620c3003b025200df35c1000804400070
:102790001381c200ab825200264dc5003e85c400a5
:1027a000bb00cd00bb80cd003a00ca002a80ca0021
:1027b0000700c9000580c900ba00cd00ba80cd006d
:1027c0000a054600020478008301d0008d06e90066
:1027d000dfff3c004f0078003400f9004400f900ae
:1027e0004f06be004f05be004f04be0000000600ad
:1027f0004600f8005000f800022020003202880055
:1028000002002800130020008019dd000281710001
:102810008202880001007800010178002600200073
:10282000470020008301e900038008000700000042
:102830000110e100040034001102be00920878008b
:10284000e2307b000489be008780400012197800c6
:102850005000f9004600f900000006005200fa009e
:10286000480607008c06070040c7bf0061406000b3
:102870000004e000020032004007a9000000fe0052
:1028800009060700000f78008e80e8001e0078001f
:10289000801f780000a02d00801f780001007800c4
:1028a000b1f60700e48757000e80e800bff6070086
:1028b000800078000e80e800ce0607001e00e000d1
:1028c00002003a00bb090700290037001000200071
:1028d0009e0f100002003a00260007002400370077
:1028e000200020009e0f100002003a00a204070002
:1028f0001f003700300020009e0f100002003a0039
:10290000070507001a003700400020009e0f100046
:1029100002003a007a170700150037005000200027
:102920009e0f100002003a008317070010003700c6
:10293000600020009e0f100002003a001d180700e2
:102940000b003700700020009e0f100002003a00bc
:102950004f18070006003700800020009e0f10006f
:1029600002003a003218070001003700ea21070090
:10297000ffff37001800fa00889fbe008a9fbe0044
:10298000000607000040eb00660c0700e2050700a8
:10299000110020008000200082120700940a070026
:1029a0008000eb00800020007e1207000000eb009a
:1029b00040079800803e200001002000500798004a
:1029c00061079800000037000000eb008009070055
:1029d000300f9800100020007d090700200f98009c
:1029e000200020007a090700802eb000100f980008
:1029f0001e0890000000e00006003d009e089000c8
:102a000080da2f00808f5000020034000000eb00bd
:102a1000100f98003e0890006103b9003e08900036
:102a20006101b9000235b80003b0b9000b027800ab
:102a3000000242000790b9000002420084057800bd
:102a40002e0890006104b9002e0890006101b900c1
:102a50000243b80003c0b900070278000002420038
:102a60000990b90000024200840378000a0543007f
:102a70008b854b001e0890006104b9001e08900071
:102a80006101b9000243b80003c0b9000702780031
:102a9000000242000990b90000024200840378005d
:102aa0000a0043008b804b0070079800010f9800cc
:102ab0005e009000ee009000c289de004e0add004c
:102ac0004201de00020172007e0090008e0890003c
:102ad000020040008380480050079800610798007a
:102ae000f0c680000000e0000a003a004e009000ae
:102af0000000e000070032000000eb0040079800f3
:102b00008000eb0080002000261207000000eb0090
:102b1000801307005e019000ee019000703e2000df
:102b200001002000800f5100818f590013003c00ec
:102b30004e009000e10f5000a3ff32001000200073
:102b40004007980010002000e0c68800f0c6800012
:102b50000000e000fdff3a0001f5210040b1220035
:102b60007a050700100020006a1307008000eb00c0
:102b7000800020000b12070093ff37005e019000d9
:102b8000ee01900000902000d1032000800f510042
:102b9000818f59008cff34004e009000e20f5000ee
:102ba00089ff32002000200040079800100020001c
:102bb000e0c68800f0c680000000e000fdff3a009b
:102bc0003e089000630f60001e00e00004003a0021
:102bd000018420000000eb005c0507000a003700bc
:102be000100020009e0f100004003a00016e20002b
:102bf00040842000550507000300370041d5200020
:102c000060f22000510507000000eb0041130700af
:102c10003e089000cf80de005efa07000004be0090
:102c20002e089000cf80de005afa07000801be008f
:102c300083fa070010079800210798003e089000cb
:102c4000cf80de0053fa07000004be002e0890007b
:102c5000cf80de004ffa07000801be0078fa0700b7
:102c6000b2fd20009304240092fa07000200200025
:102c700003082400d1fa0700b2fd200093fc2300d2
:102c800003fb0700b2fd200093ec230000fb0700cc
:102c90005cfb070063fb0700300798000300370068
:102ca0003e00900068005000300798003e00900001
:102cb000e80f5000faff3c00030037003e00900090
:102cc00068004000300798003e0090000000e000df
:102cd000faff35003e00900011002000b1110700fe
:102ce00039ff37000400fa00889fbe008a1f780071
:102cf0000000eb0010a08800920d07000004e00027
:102d0000fdff32000000eb00000f78000b003700e1
:102d10001e0478001e0078004e0e0700cf80de00f3
:102d20001cfa07000001be00c240dd004040210047
:102d3000008040000288be001e0fe8002000200036
:102d40009e0f1000f2ff34000000eb00000f78002f
:102d5000490037000000eb0010079800150037000d
:102d60001e0478009e0490001e007800c200dd0062
:102d700040402100008040001000be00a2702d00e5
:102d800033c223008dfa07000001be004006200078
:102d900000c0b90009004000c200dd0020f520009d
:102da000008040000288be001e0090000000e80085
:102db000100798009e00900030062000808f500081
:102dc000e7ff34001e0578001e007800c200dd0019
:102dd00040402100008040001004be001e0078002a
:102de000c200dd0040402100008040001000be0015
:102df000d2cc2c00c3dc2b0070fa07000001be000f
:102e00000800be00a2fa07000001be00c250dd00ab
:102e1000c0412100008040000288be001e057800ed
:102e20001e007800c200dd0040402100008040000c
:102e30001004be001e007800c200dd0040402100ea
:102e4000008040001000be00d2cc2c00c3dc230068
:102e50005afa07000001be000800be008cfa070005
:102e60000001be00c250dd00004121000080400092
:102e70000288be001e0fe800200020009e0f1000f8
:102e8000b4ff34004f0578004f04be000080fa0004
:102e9000000006000000fa000000eb0020c88800d7
:102ea000280d07000004e000fdff32000080fa005a
:102eb000000006000e00fa000000eb00e50d070020
:102ec000800078000e80e8000108780010002000e3
:102ed000e00d0700800078000e80e80011009800e7
:102ee00020002000db0d0700800078000e80e80045
:102ef000210098000e80e80010007800cf80de00ee
:102f0000a4f9070082a0800093a080000042eb009b
:102f1000244f9800e4fa07000000e00001003500ab
:102f20000200370010c0b300204f98002e489000d8
:102f30000004a2000004e00009003a000e80e8004e
:102f400010007800cf80de0092f90700e2a0800038
:102f5000f3a08000d6fa07000000e00037003c0034
:102f60000e80e80010009000cf80de0089f9070095
:102f7000a2a08000b3a080000042eb00144f980094
:102f8000c9fa07000000e000010035000200370028
:102f900010c0b300104f98001e4890000004a2001b
:102fa0000004e00009003a000e80e80010009000e4
:102fb000cf80de0077f9070002a1800013a1800016
:102fc000bbfa07000000e0001c003c000e80e80097
:102fd00020009000cf80de006ef90700c2a08000c4
:102fe000d3a080000042eb00044f9800aefa070027
:102ff0000000e000010035000200370010c0b300ff
:10300000004f98000e4890000004a2000004e00069
:103010000d003a000e80e80020009000cf80de0016
:103020005cf9070022a1800033a18000a0fa07000c
:103030000000e00001003c00030037001400200005
:1030400064079800020037000000eb00600798005a
:103050006e029000040f78000e80e8004f00070019
:103060001e0078000080fa00000006000400fa004c
:10307000889fbe000000eb00100798004100370059
:103080000000eb00000f7800380037001e049000ad
:103090009e0478001e0090009e0078004800dd002d
:1030a000010040008000400060802000008040005f
:1030b00010007800cf80de0036f907000002be0065
:1030c0001e009000c200dd00404021000080400052
:1030d0001001be000400be00ecf9070051fa070021
:1030e000000178004840dd000900400080004000f9
:1030f0006080200000804000020878001e009000e0
:103100009e0078004800dd00010040008000400083
:103110006080200000804000100078000000e00087
:1031200011003d009e0190001e0278001e009000dc
:103130009e0078004800dd00010040008000400053
:103140006080200000804000100078000001ea004c
:103150004818dd000400400080004000608020002e
:1031600000804000020878001e0fe800f00f2000e9
:103170009e0f1000c5ff34001e0090000000e80004
:10318000100798001e009000e20f5000bcff3400b2
:103190004f04be000080fa00000006000400fa00a0
:1031a000889fbe008a1f780010079800650c0700f2
:1031b0000004e000fdff32000000eb00000f78008b
:1031c0006e0037001e0478001e007800c200dd008b
:1031d00040402100008040001002be009e007800a8
:1031e00012a08000400620000088b90002004000c4
:1031f000c200dd0020f52000008040001001be006c
:103200000400be00a1f907000001be00c240dd00bd
:1032100040402100008040000288be001e0478006b
:1032200019a080001e007800000040008000780097
:103230001e0090000080400010007800cf80de006b
:10324000d4f80700a2702d0033c223005bf90700f9
:103250000001be004006200000c0b9000900400087
:10326000c200dd0020f52000008040000288be0082
:103270001e0478001e007800c200dd0040402100de
:10328000008040001002be009e00780012a0800066
:10329000400620000088b90002004000c200dd00a6
:1032a00020f52000008040001001be000400be0098
:1032b00077f907000001be00c240dd004040210058
:1032c000008040000288be001e0578001e007800c5
:1032d000c200dd0040402100008040001004be001c
:1032e0001e007800c200dd00404021000080400048
:1032f0001000be00d2cc2c00c3dc2b002ff907003d
:103300000001be000800be0061f907000001be0018
:10331000c250dd00c0412100008040000288be0094
:103320001e0578001e007800c200dd00404021002c
:10333000008040001004be001e007800c200dd00c6
:1033400040402100008040001000be00d2cc2c0084
:10335000c3dc230019f907000001be000800be000d
:103360004bf907000001be00c250dd000041210002
:10337000008040000288be001e0fe80020002000f0
:103380009e0f10008fff340011a080002006200047
:10339000808f500004003c0010a080000000e80076
:1033a00010a08800020037000000eb0010a0880089
:1033b0004f0578004f04be000080fa0000000600b0
:1033c0000c00fa0040079800510798006000b80010
:1033d00020079800310798004e009000e20f50003f
:1033e0002d003e005e0090000000e0002a00320048
:1033f000de00900000102000808f500026003e006c
:103400000000eb001007980021c880005e009000cb
:10341000008050001010b00080007800f00f2000f5
:10342000008f6000180037004e0090009e0078006a
:103430004800dd0001004000800040006080200066
:1034400000804000100078006101b9002e0090005b
:10345000be009000000041008180490020079800d4
:10346000310798001e0090000000e8001007980047
:103470001e00e80002102000110009000200d80020
:103480008000fd00000f78009e0090005e0090001c
:10349000808f5000e4ff39005e0090006101b800a9
:1034a0002e009000be00900083f907000080fa0013
:1034b000000006001000fa00110020000000eb00e0
:1034c000b2000700700798007e009000cf80de00f9
:1034d00030f8070002002000030c240074f90700f4
:1034e0000000e00001003d000500370060e520001d
:1034f00091fc23002007980031079800170037003f
:103500007e009000cf80de0022f80700020020003d
:10351000030c2c0064f907000000e00001003400f7
:103520000500370060e5200091fc2b002007980083
:1035300031079800090037007e009000cf80de0040
:1035400014f8070002002000030c240059f80700bb
:1035500068f9070020079800310798006011b8004b
:103560002e009000be00900051f907000000e0001e
:1035700001003c003a00370011002000200020002c
:1035800082000700600798006e009000cf80de0088
:1035900000f8070002002000030a240044f9070095
:1035a0000000e00001003d000400370060e520005d
:1035b00091fc2300008fbe00150037006e009000c4
:1035c000cf80de00f3f7070002002000030a2c0082
:1035d00035f907000000e000010034000400370066
:1035e00060e5200091fc2b00008fbe000800370032
:1035f0006e009000cf80de00e6f70700020020009a
:10360000030a24002bf807003af90700008fbe00d8
:10361000f298200063f023001e00be0024f907008a
:103620000000e00001003c00080037002e0190007f
:10363000be01900060e520009104240093f807008b
:1036400040079800510798003e0037002e00900078
:10365000be009000400798005107980039003700dd
:10366000210020000000eb004800070060079800e0
:103670006e009000cf80de00c6f707000200200039
:10368000030a24000af907000000e00001003d00e1
:103690000400370060e5200091fc2300008fbe008d
:1036a000150037006e009000cf80de00b9f70700ec
:1036b00002002000030a2c00fbf807000000e000d5
:1036c000010034000400370060e5200091fc2b006d
:1036d000008fbe00080037006e009000cf80de0033
:1036e000acf7070002002000030a2400f1f70700ee
:1036f00000f90700008fbe00f298200063f02b0055
:103700001e00be00e8f807000000e00001003500e0
:10371000080037002e019000be01900060e52000f7
:103720009104240059f807004007980051079800b9
:10373000040037002e009000be0090004007980063
:10374000510798006011b8004e009000de00900014
:10375000d5f807000000e000010035000700370041
:1037600062e52000930c24004e009000de009000e3
:1037700047f8070040079800510798004e00900056
:10378000de0090000080fa00000006001a00fa0037
:10379000889fbe00300f9800410f980090ff2f00c7
:1037a000300798007000200020079800800020005b
:1037b00010079800800f2000000f78006000b8000c
:1037c00040079800510798003e009000100f9800a5
:1037d0003d0037006000b80060079800710798004e
:1037e0009e009000010f9800240037003e089000d2
:1037f0008e0890004800dd0001004000800040007d
:103800006080200000804000100078006104b90052
:103810004e0990008e0890001e08900080804000a5
:103820004810dd0001004000800040006080200062
:1038300000804000100078006101b9000243b80028
:1038400003c0b90007027800000242000990b900e5
:1038500000024200840378006e009000fe00900099
:103860000000430081804b006007980071079800ba
:103870000e0890000000e800000f98000e0890006d
:103880009e0f5000d9ff35006e019000fe019000a0
:103890004e009000de009000800f5100818f590093
:1038a000060034006e009000fe0090004007980073
:1038b000510798009e089000210f98001e08900064
:1038c0000000e800100f98009e0890002e00900065
:1038d000808f5000bfff35002e0890004f04be00bf
:1038e0000080fa00000006000a00fa003007980085
:1038f00041079800600020002007980062e5200042
:1039000093ec23003e009000ce00900068f8070082
:103910000000e00001003c000200370070002000c1
:103920002007980002ac2c0063f923003e009000b1
:10393000ce0090005ef807000000e00001003c00af
:10394000020037009000200020079800c21e2500ca
:10395000b3ff23003e009000ce00900054f8070013
:103960000000e00001003c0002003700c000200021
:1039700020079800b2c82e00f30224003e009000f9
:10398000ce0090004af807000000e00001003c0073
:1039900002003700a0002000200798001202230038
:1039a000230624003e009000ce00900040f807005f
:1039b0000000e00001003c0002003700d0002000c1
:1039c00020079800b29d2300a30824003e00900029
:1039d000ce00900036f807000000e00001003c0037
:1039e00002003700e00020002007980062ba25009e
:1039f000330a24003e009000ce0090002cf807000f
:103a00000000e00001003c0002003700f000200050
:103a10002007980012d72700c30b24003e00900017
:103a2000ce00900022f807000000e00001003c00fa
:103a300002003700600020002007980011002000dd
:103a40002e0090000008dd00201688006000b800fd
:103a5000008fbe000400370010002000010020008d
:103a60001e0f40005e974800f0d320003100200078
:103a7000be0f1000ae8f1800f7ff34000000eb00ff
:103a8000201688000080fa00000006000600fa00f8
:103a9000100798002107980062e520009304240095
:103aa0001e009000ae009000fff707000000e0004d
:103ab00001003500140037000000eb00290e07005c
:103ac000803e2000880d070080c12f00c30d070035
:103ad0001e009000ae00900062e52000930c2400d0
:103ae000f4f6070002002800234a240033f70700f9
:103af000ccf70700000f7800160e07009e0f50004d
:103b0000fdff3500160037000000eb001f0e070018
:103b100080c12f00740d0700803e2000af0d07000c
:103b20001e019000ae01900060e52000910c240081
:103b300056f7070062e52000930c2400ddf607002d
:103b400002002800234a24001cf70700b5f70700ed
:103b5000000f7800090e07009e0f5000fdff350092
:103b60000000eb00600d07000000eb009b0d07005c
:103b70000080fa00000006000600fa0010c0b30042
:103b8000e80707004f0d07005f0b070055fc070013
:103b900054fc0700100020002007980002003700a6
:103ba000c4fc0700200798002e0090000000e000f1
:103bb000fbff3a00b7fc0700f00907002bfd0700e8
:103bc0003cfe0700008fbe00e80907001e00be0093
:103bd00045ff07001e00be00acff0700ecff3700ea
:103be0000000fa00e6c2bf000080fb004600de00d5
:103bf000614060000081fb00e7c2bf000080fb0065
:103c00000000d100614060000080fb000000400027
:103c100080007800e7c2bf00614060000080fb00c8
:103c2000008040000000400080007800e6c2bf0035
:103c30000080fb004700de000080fb0000804000a9
:103c400000004000000041000080fa000000060073
:103c50000400fa00881f7800100798000000eb00ad
:103c6000000f7800090037001e00780000004000b7
:103c7000800078001e009000008440001e00780044
:103c8000400a0700000c78001e0fe80070002000ba
:103c90009e0f1000f4ff36004f0478000080fa00f9
:103ca000000006000400fa00000f780011079800d9
:103cb00000ce2f009e0f100002003d0000ce2f000e
:103cc000000f7800003220009e0f10000200340028
:103cd00000322000000f78009e00900000ce2f00e0
:103ce000808f500002003d0000ce2f00100798008a
:103cf0009e00900000322000808f500002003400af
:103d000000322000100798001e007800f60c070013
:103d10001e009000310d07000080fa000000060030
:103d20001c00fa00170107000040eb007d070700a8
:103d3000e40c0700f40a0700419c2000600c2400fa
:103d4000060b0700419c200000062400030b07001f
:103d5000600c24008e0b0700000624008c0b07006b
:103d60008a0907000000eb00100798009cff07007d
:103d70000000a200614f60006c004700b4ff070024
:103d80000000eb002007980095ff0700610060002d
:103d90000004e0003f0032001e04e00007003a008b
:103da00010c0b300004f7800cf0e0700600c240055
:103db000770b0700000624008f0b07000000eb00c4
:103dc000300798000a0037003e009000ec004700e2
:103dd00000004000e080780020032000808f500029
:103de00006003c003e0090000000e800300798000c
:103df0003e009000e70f5000f3ff34003e009000bb
:103e0000e80f500003003a0010002000200798003f
:103e10005f00370060ff2f0010c3880060ff2f0095
:103e200080c38800a000200090c38800a00020006c
:103e300000c488006c004700a0009000c012200061
:103e4000808f5000520034006c00470090009000ba
:103e500080f32f00808040006c0047001100980024
:103e60006c004700a000900080da2f0080804000a6
:103e70006c004700210098006c004700b0009000e3
:103e8000c0f92f00808040006c004700310098008e
:103e90003f00370010c0b3009e4f100007003a00eb
:103ea0000040eb00004f78008f0e07000006240052
:103eb000370b0700600c24004f0b07000000eb00dd
:103ec000300798000a0037003e009000ec004700e1
:103ed00000004000e080780020032000808f500028
:103ee00006003c003e0090000000e800300798000b
:103ef0003e009000e70f5000f3ff34003e009000ba
:103f0000e80f500003003a0010002000200798003e
:103f10001f003700a000200010c38800a000200070
:103f200080c3880060ff2f0090c3880060ff2f00cf
:103f300000c488006c004700d0009000c012200030
:103f4000808f5000120034006c004700c0009000c9
:103f5000c0f92f00808040006c00470041009800ad
:103f60006c004700d000900080da2f008080400075
:103f70006c004700510098006c004700e000900082
:103f800080f32f00808040006c00470061009800a3
:103f9000e015200050079800e01520004007980029
:103fa0002e0090000000e00027003a000000eb0027
:103fb00030079800210037003e009000800040004c
:103fc0002086210000804000100178003e00900013
:103fd000ec00470000004000608078004480de0074
:103fe0000090b900800078005e0090000100400061
:103ff000500798003e00900080004000208721007c
:1040000000804000100178003e009000ec00470066
:1040100000004000608078004480de000090b9001d
:10402000800078004e00900001004000400798009a
:104030003e0090000000e800300798003e0090002d
:10404000e70f5000dcff3400ce0090005e009000cf
:1040500014ff070080a923000100200001000700d1
:1040600045ff37000800fa00200798003107980044
:104070006000b800008fbe00040037001000200070
:10408000010020001e0f40005e9748002e009000a7
:10409000be009000be0f1000ae8f1800f7ff350075
:1040a0000080fa00000006000000fa00e6c2bf002f
:1040b0000080fb004600de00614060000081fb00e4
:1040c000e7c2bf000080fb000000d100614060003b
:1040d0000080fb000000400080007800e7c2bf00c5
:1040e000614060000080fb00008040000000400054
:1040f00080007800e6c2bf000080fb004700de00c1
:104100000080fb00008040000000400000004100f3
:104110000080fa00000006000200fa00e202a80097
:104120000000eb00000f7800010037001e0fe800d0
:10413000f07022009e0f1000fcff34004c010700bd
:10414000f50007000080fa00000006000400fa00f5
:10415000000f780011079800deb8ef00dc38ef00a0
:104160009e0090001e007800b00007000080fa005a
:10417000000006000000fa00e202a9000080fa0038
:10418000000006000000fa00c4c2a900c4e2a900b1
:10419000c522a900c582a900c542a900c5a2a900df
:1041a000c5c2a900c5e2a900c0c2a900c0e2a90019
:1041b000c122a900c182a900c142a900c1a2a900cf
:1041c000c1c2a900c1e2a900d022a900cc22a90045
:1041d000d042a900cc42a900e2e2a900e302a90072
:1041e000e802a900e822a900dee2a900df02a90096
:1041f000e402a900e422a900e202a900de02a9006b
:10420000d602a900d622a900d642a900d662a900ea
:10421000d682a900d6a2a900d6c2a900d6e2a900da
:10422000d202a900d222a900d242a900d262a900da
:10423000d282a900d2a2a900d2c2a900d2e2a900ca
:10424000d1a2a900cda2a900e842a900e862a90074
:10425000e442a900e462a900de22a800dec2a800b0
:10426000e4c2a800e4e2a800e502a800e522a80054
:10427000d302a800d322a800d342a800d362a8008a
:10428000d382a800d3a2a800d3c2a800d3e2a8007a
:104290000080fa00000006000c22ef000e22ef0062
:1042a0000ee2a9000ec2a9008520a9008d20a80059
:1042b0000de2a80070002000a01088008540a90031
:1042c0008d40a80081e0a900c0048000f1002f000b
:1042d000008060000155200000804000c00488007c
:1042e0000fe2a8000f42a8008437ef008637ef00e6
:1042f00000000600809fbe008520a90020bc800031
:10430000f003b20041742100810040000000eb0086
:1043100012c2bf00804878008437ec004f00be0016
:104320000040060020bc800031bc8000010050002d
:104330000000060021bc800032bc80000208e100c1
:1043400008003200f203b2004174210002814000f3
:1043500092407800014878008637ec001000200079
:10436000000006000000eb00000006008540a900e8
:10437000809fbe00821f7800f018e2001500320016
:10438000ec18e20016003200ee18e20014003200d1
:1043900061c78000420020000f22af00feff3700ff
:1043a00070c780000000e000070032000000e90054
:1043b000eeb8b7003140780010e2b7000201e90022
:1043c000f5ff3a0002003700ec38ef00010037003b
:1043d00061c788004f0178004f00be000040060012
:1043e0000000200080c788004f0178004f00be0009
:1043f00000400600f018e200feff3a008d40a900e0
:104400008100e90071c78800b04078008110880001
:1044100060c788001100200081c788008d40a80077
:104420000000060080c7800000000600811f7800a1
:10443000821f78004100dd00030037004f01780043
:10444000cf0078000000060001c788000001eb00e3
:1044500001e02d0081004000030039000200280027
:1044600082804000120020004400f8003400f80070
:104470004440a8000000200002004000a001880085
:10448000000000007e220200000000001100780001
:104490000000a100c01288007e220200000000007f
:1044a000110078000000a100d01288007e220200d6
:1044b00000000000110078000000a100e012880058
:1044c0007e22020000000000110078000000a10020
:1044d000f0128800e0b8ed00e0b8ed00a1c8880057
:1044e000a101800011c788003400f900000000001d
:1044f0004400f9008920a900d0ff3700e280400085
:1045000004003900a1018000e1804000a101880081
:104510000100280000000600811f7800801f78003d
:10452000f0ff2700c0128800003020000000b30018
:10453000d0128800de02a90000000000e002a900fd
:104540009001090000000000e002a80041e2a8007c
:104550004602ae00feff3700f0ff2700c0128800c1
:10456000004020003001b300d01288004602ae00a7
:10457000feff3700f0ff2700c01288000010200067
:104580000030a0000040a000d01288004602ae001b
:10459000feff3700f0ff2700c01288000020200037
:1045a000d01288004602ae00feff3700f0ff270061
:1045b000c0128800006020000010a000d012880007
:1045c0004602ae00feff3700f0ff2700c012880051
:1045d00000702000f005b300d01288004602ae0043
:1045e000feff370001f02000301280000100600063
:1045f0000000e000fcff3a00301280000100600083
:104600000000e000fcff320030128000010060007a
:104610000000e000fcff3a00301280000100600062
:104620000000e000fcff32004662ae0002003700ee
:10463000801280009012800041e2a900f01e20004c
:10464000101288004362a8004342a8008920a900f4
:10465000a8c0a800a8a0a900a880a9009120a8002f
:1046600041e2a8004f007800cf007800000006006b
:10467000801f78004022ef004222ef004422ef002a
:104680004822ef004c22ef00c6e2a800e5a2a900f4
:10469000e582a800e5e2a900e5c2a9004002a90060
:1046a0004022a90040a2a9004122a90040c2a800be
:1046b0004102a9004142a900f00e2000101288001a
:1046c0004362a9004342a800300020002012880065
:1046d0004c02a8004802a8008920a9009120a90046
:1046e00041e2a9004f007800000006008920a900df
:1046f000809fbe00829fbe008012800090128000ca
:10470000a0128000b0128000dc18e20026003a00ff
:10471000e018e200240032003400f8004400f80001
:104720004440a80010c78000a0018800a1c88000f4
:10473000de23020000000000110078000000a1004c
:10474000c0128800de230200000000001100780083
:104750000000a100d0128800de230200000000004b
:10476000110078000000a100e0128800de230200a2
:1047700000000000110078000000a100f012880085
:10478000e0b8ed00e0b8ed00a1c88800a10180000c
:1047900011c788004400f9003400f9004f01be0041
:1047a0004f00be0000400600de38ef00dcb8ef002e
:1047b0004f01be004f00be0000400600e2804000f6
:1047c00004003900a1018000e1804000a1018800bf
:1047d00001002800000006000000fa006400070045
:1047e0000080fa00000006000000fa00a1000700a7
:1047f0000080fa00000006000000fa00a300070095
:104800000080fa00000006000400fa00204798002b
:10481000314798000040eb00004f78001800370047
:1048200010c0b300004f78009e0007001e4f6000cc
:104830002e409000b60107001e4f60003e409000e1
:10484000b30107001e4f6000b80007001e4f600054
:104850002e4090000040e800ad0107001e4f6000b0
:104860000e00e800540107001e4f60001f01070002
:10487000d00007001e04e00003003a0059000700c2
:104880001e04e000e6ff32001e4090000000fb0026
:104890000080fa00000006000600fa002047980099
:1048a00031479800424798000040eb00004f7800e5
:1048b0001200370010c0b300004f780079000700e5
:1048c0001e4f60002e409000910107001e4f6000b7
:1048d0003e4090008e0107001e4f60004e40900049
:1048e0008b0107001e4f6000b20007001e4f6000e2
:1048f0001e04e00003003a003a0007001e04e00036
:10490000ecff32001e00fb000080fa0000000600f1
:104910000000fa000000370006c2bf0061406000de
:104920000004e000fcff3a0006c2bf0064406000e3
:104930000004e000f8ff3a0006c2bf0068406000d3
:104940000004e000f4ff3a0006c2bf0070406000bf
:104950000004e000f0ff3a0009c2bf000044b200ca
:104960000004e000ecff3a000080fa0000000600be
:104970000400fa00600920002010880007e2a90066
:1049800007e2a80085c0a90085a0a900b109200000
:104990009140780080cfb30000c060005040b30069
:1049a0009be0b7008da0a90000712200010020004b
:1049b000008fbe00040037000080eb008080eb0019
:1049c0001e0f40005e9748001e00be00e00f500022
:1049d000e08f5800f8ff3a00100020000080fa0035
:1049e000000006000400fa006000b800008fbe005e
:1049f00007e2a90085c0a90085a0a9008da0a90093
:104a00000071220001002000008fbe00040037006a
:104a10000080eb008080eb001e0f40005e97480096
:104a20001e00be00e00f5000e08f5800f8ff3a0073
:104a3000cfff07000f0007000071220001002000d7
:104a4000008fbe00040037000080eb008080eb0088
:104a50001e0f40005e9748001e00be00e00f500091
:104a6000e08f5800f8ff3a00100020000080fa00a4
:104a7000000006000000fa0085c0a9008dc0a80053
:104a8000100020000080fa00000006000000fa007c
:104a900085c0a9008dc0a900100020000080fa0088
:104aa000000006000600fa0010c0b300e4f8b700ea
:104ab00008c2bf00704060000004e0001600320031
:104ac0000602a8000071220001002000008fbe0035
:104ad0000a003700e4d8bf000004e00003003a00f9
:104ae00010002000200798000d0037000080eb0028
:104af0008080eb001e0f40005e9748001e00be0045
:104b0000e00f5000e08f5800f2ff3a008000eb0009
:104b100021079800020037000000eb0020079800f2
:104b20002e0090000080fa00000006000600fa0047
:104b300060c0b300e4f8b70008c2bf00684060007e
:104b40000004e000160032000622a80000712200d6
:104b500001002000008fbe000a003700e4d8bf002b
:104b60000004e00003003a00100020002007980035
:104b70000d0037000080eb008080eb001e0f40002e
:104b80005e9748001e00be00e00f5000e08f580006
:104b9000f2ff3a008000eb00210798000200370086
:104ba0000000eb00200798002e0090000080fa0023
:104bb000000006000600fa0050c0b300e4f8b70099
:104bc0000642a8000071220001002000008fbe00f4
:104bd0000a003700e4d8bf000004e00003003a00f8
:104be00010002000200798000a0037000080eb002a
:104bf0008080eb001e0f40005e9748001e00be0044
:104c0000e00f5000e08f5800f2ff3a008000eb0008
:104c1000210798002e0090000080fa000000060096
:104c20000600fa0030c0b300e4f8b70006c2bf00c7
:104c3000614060000004e00010003a0006c2bf00be
:104c4000644060000004e0000c003a0006c2bf00af
:104c5000684060000004e00008003a0006c2bf009f
:104c6000704060000004e00004003a0006c2bf008b
:104c7000624060000004e000030032000000eb002e
:104c8000200798001600370006a2a9000682a80097
:104c90000071220001002000008fbe000a003700d2
:104ca000e4d8bf000004e00003003a001100200037
:104cb000210798000a0037000080eb008080eb009d
:104cc0001e0f40005e9748001e00be00e00f50001f
:104cd000e08f5800f2ff3a008000eb0021079800b7
:104ce0002e0090000080fa00000006000600fa0086
:104cf00030c0b300e4f8b70006c2bf0061406000f6
:104d00000004e00010003a0006c2bf0064406000ea
:104d10000004e0000c003a0006c2bf0068406000da
:104d20000004e00008003a0006c2bf0070406000c6
:104d30000004e00004003a0006c2bf0062406000c8
:104d40000004e000030032000000eb0020079800a0
:104d50001600370006a2a8000682a80000712200f3
:104d600001002000008fbe000a003700e4d8bf0019
:104d70000004e00003003a00110020002107980021
:104d80000a0037000080eb008080eb001e0f40001f
:104d90005e9748001e00be00e00f5000e08f5800f4
:104da000f2ff3a008000eb00210798002e009000ef
:104db0000080fa00000006000a00fa0030079800a0
:104dc00000712200010020001007980021079800c0
:104dd0000040eb00004f780040c0b300e4f8b7009b
:104de00000712200010020001007980021079800a0
:104df0001d00370006c2bf00614060000004e000f3
:104e000013003a0006c2bf00644060000004e000e6
:104e10000f003a0006c2bf00684060000004e000d6
:104e20000b003a0006c2bf00704060000004e000c2
:104e300007003a0009c2bf000044b2000004e000cd
:104e400003003a0010c0b300004f78000b00370099
:104e50001e009000ae00900061005000e0805800fd
:104e600010079800210798001e009000ae009000e7
:104e7000e00f5000e08f5800deff3a001e04e00013
:104e800003003a000000eb00400798001d003700c7
:104e90000662a800006a2800110020001007980090
:104ea0002107980010003700e4d8bf000004e0009c
:104eb00007003a0000c2bf00804078003e0090002a
:104ec0000148780010002000400798000d003700ce
:104ed0001e009000ae00900061005000e08058007d
:104ee00010079800210798001e009000ae00900067
:104ef000e00f5000e08f5800ebff3a000000eb009d
:104f0000400798004e0090000080fa000000060064
:104f10000800fa004047980020c0b300e4f8b7004a
:104f20004e40900002e2b700007122000100200014
:104f3000008fbe000a003700e4d8bf000004e00084
:104f400003003a0010002000300798000a003700e4
:104f50000080eb008080eb001e0f40005e97480051
:104f60001e00be00e00f5000e08f5800f2ff3a0034
:104f70008000eb00310798003e0090000080fa00ae
:104f800000000600801f78003400f80000c0b30065
:104f9000a00188000000fa0085c0a9000040eb00d5
:104fa000e4f8b7000080fa003400f9004f00780000
:104fb000004006000000fa0072fc07000040eb0011
:104fc000d80207000a0107006a010700feff370048
:104fd0000600fa00000f78001e00780020079800f5
:104fe0002e009000e10f5000140032002e009000bf
:104ff000e10f5000040039002e009000e20f500035
:105000001b003200270037009e00780032c8800065
:10501000200320000088b90002004000800040000a
:1050200060e02000008040009000780020c48000f4
:1050300080805000110798001c0037009e00780007
:1050400032c88000200320000088b9000200400020
:105050008000400060e02000008040009000780068
:1050600030c4800080805000110798000f00370086
:105070009e00780032c88000200320000088b9001c
:10508000020040008000400060e0200000804000fe
:1050900090007800b0c88000808050001107980010
:1050a00002003700a0292000100798001e00900081
:1050b0000080fa00000006000c00fa00400798008b
:1050c000510798006000b800200798003107980049
:1050d0004e009000e20f500030003e005e00900055
:1050e0000000e0002d003200de00900020032000d0
:1050f000808f500029003e000000eb001007980050
:1051000031c880005e009000008050003003b00085
:1051100022032000110009000280d8008000fd0059
:10512000000f780019003700ce0090001e017800b3
:10513000200320000088b9000200400080004000e9
:1051400060e0200000804000100078006101b9009c
:105150002e009000be0090000000410081804900b8
:1051600020079800310798001e0090000000e8001a
:10517000100798001e00e80022032000110009001b
:105180000200d8008000fd00000f78009e00900013
:105190005e009000808f5000e3ff39005e009000b9
:1051a0006101b8002e009000be00900042f207009e
:1051b0000080fa00000006000000fa005100200004
:1051c0000000eb00bcff07008000780020c48000d6
:1051d0000080500040c488005100200010002000d2
:1051e000b5ff07008000780030c4800000805000c8
:1051f00050c488005100200020002000aeff0700ae
:1052000080007800b0c880000080500060c4880032
:105210000080fa00000006000000fa00889fbe002f
:105220008a9fbe00e4ff070040c480006103b9000c
:1052300040c480006101b9000235b80003b0b90074
:105240000b027800000242000790b9000002420001
:105250008405780050c480006104b90050c4800007
:105260006101b9000243b80003c0b9000702780029
:10527000000242000990b900000242008403780055
:105280000a0543008b854b0060c480006104b900af
:1052900060c480006101b9000243b80003c0b900d6
:1052a00007027800000242000990b90000024200a3
:1052b000840378000a0043008b804b00b5f00700a0
:1052c0000ef2070070c4880081c4880040c48000ca
:1052d0006103b90040c480006101b9000235b80023
:1052e00003b0b9000b027800000242000790b90039
:1052f000000242008405780050c480006104b900b7
:1053000050c480006101b9000243b80003c0b90075
:1053100007027800000242000990b9000002420032
:10532000840378000a0043008b804b0099f007004b
:10533000f2f107000004be0060c48000cf80de00f0
:1053400094f007000801be00bdf00700c209230069
:1053500053262c0019f1070002002000432b2400e3
:105360004bf10700b0c48800c1c48800b0c48000fd
:10537000c1c4800002002000030a2400caf1070013
:105380000000e00001003500040037006000b800b4
:1053900090c48800a1c488001100370050c4800068
:1053a000cf80de007bf007000004be0040c4800018
:1053b000cf80de0077f007000801be00a0f00700f4
:1053c000c209230053262400fcf00700020020003d
:1053d000433324002ef1070090c48800a1c4880044
:1053e0004f05be004f04be000080fa00000006001a
:1053f0000000fa00210320000000eb002eff070050
:1054000020c4880021032000100020002aff07008c
:1054100030c48800210320002000200026ff070060
:10542000b0c888000080fa00000006000c00fa00f6
:10543000881f78000004780077ff070070c48000a0
:1054400081c48000008fbe0090c48000a1c4800091
:105450002007980031079800b0c48000c1c48000c4
:1054600040079800510798008e00780008007800e7
:105470001101be000288be0064004000e4804000cc
:105480001101be000288be0064004000e4804000bc
:105490001101be000288be00080078004f047800a9
:1054a0000080fa00000006000000fa005aff070022
:1054b000b0c48000c1c480000080fa000000060073
:1054c0000000fa0054ff070090c48000a1c48000cf
:1054d0000080fa00000006000000fa004eff0700fe
:1054e00070c4800081c480000080fa0000000600c3
:1054f0000600fa00881f7800000478002eff0700dd
:1055000040c48000000f780050c48000100798004d
:1055100060c48000200798001e00be00008cbe0002
:10552000ae00900021049800080078004f04780035
:105530000080fa00000006000000fa001eff0700cd
:1055400040c480000080fa00000006000000fa005d
:1055500019ff070050c480000080fa000000060018
:105560000000fa0014ff070060c480000080fa0009
:10557000000006001600fa006000b800008fbe00b0
:10558000cfff0700008fbe0010c48000cf80de0078
:1055900000f007001e01be00bcf0070021f107006b
:1055a000200f98002e0890000000e00003003d004e
:1055b000ae0890008100ea00210f98002e099000ab
:1055c0006110b900f3ef070002002000030a240075
:1055d00037f107000000e00001003c004f013700f8
:1055e000c5e2a900c5c2bf000080fb004700de0085
:1055f000614060004601dd00512c200091407800a0
:10560000f0cbb30000c0600002407000c5e2b700fc
:10561000c5c2bf000080fb004600de0061406000a4
:10562000614060004501dd00512c20009140780070
:10563000f0cdb30000c0600002407000c5e2b700ca
:10564000c5c2bf000080fb004500de006140600075
:10565000614060004201dd00512c20009140780043
:10566000b0cfb30000c0600002407000c5e2b700d8
:10567000c5c2bf000080fb004200de006140600048
:10568000614060004401dd00512c20009140780011
:10569000f0ceb30000c0600002407000c5e2b70069
:1056a000c5c2bf000080fb004400de006140600016
:1056b0006140600000414000512c20009140780082
:1056c000d0cfb30000c0600002407000c5e2b70058
:1056d000c5c2bf000080fb000000d1006140600037
:1056e000c700dd00c4c2bf000074a100014070000b
:1056f000c4e2b700c4c2bf000080fb004700de0068
:10570000614060004601dd00412c2000914078009e
:10571000f0cbb30000c0600002407000c4e2b700ec
:105720000040eb002057980002002c00833a240030
:105730001e00be00def007000000e00001003c009b
:105740000200370011c0b300215798000041eb0060
:105750001257980002002000431b24001e00be00c8
:10576000d1f007000000e000010034000200370023
:1057700010c0b30010579800ae5090001e5190001a
:1057800002c070000004a2000004e00011003a0012
:105790000040eb00005798000200280063422400fc
:1057a0001e00be000af107000000e00001003a0000
:1057b0000200370011c0b300015798000e5090004e
:1057c0000004a2000004e00002003a00c4c2a800e5
:1057d000cf0037000041eb00724f9800020020001c
:1057e000431b24001e00be00b1f007000000e000d3
:1057f00001003c000200370010c0b300704f980059
:105800007e4890000004a2000004e00011003a006d
:105810008040eb00614f98000200200073282400b4
:105820001e00be00a0f007000000e00001003400f0
:105830000200370012c0b300624f98006e4890001b
:105840000004a2000004e00002003a00c5e2a80043
:10585000af0037000040eb00504f980002002000de
:10586000732824001e00be0091f007000000e00035
:1058700001003c000200370011c0b300514f9800f6
:105880005e4890000004a2000004e00011003a000d
:105890000041eb00424f980002002000132e24002c
:1058a0001e00be0080f007000000e0000100340090
:1058b0000200370010c0b300404f98004e489000df
:1058c0000004a2000004e00002003a00c5c2a800e3
:1058d0008f0037008040eb00314f9800020020001d
:1058e000132e24001e00be0071f007000000e0002f
:1058f00001003c000200370012c0b300324f980094
:105900003e4890000004a2000004e00011003a00ac
:105910000040eb00204f980002002800d331240003
:105920001e00be0060f007000000e000010034002f
:105930000200370011c0b300214f98002e4890009c
:105940000004a2000004e00002003a00c5a2a80082
:105950006f0037000041eb00124f98000200280052
:10596000d33124001e00be0051f007000000e0000b
:1059700001003c000200370010c0b300104f980037
:105980001e4890000004a2000004e00011003a004c
:105990008040eb00014f980002002800a33424004f
:1059a0001e00be0040f007000000e00001003400cf
:1059b0000200370012c0b300024f98000e4890005a
:1059c0000004a2000004e00002003a00c542a80062
:1059d0004f0037000040eb0070479800020028009d
:1059e000a33424001e00be0031f007000000e000d8
:1059f00001003c000200370011c0b300714798005d
:105a00007e4090000004a2000004e00011003a0073
:105a10000041eb0062479800020028007337240021
:105a20001e00be0020f007000000e000010034006e
:105a30000200370010c0b300604798006e4090002d
:105a40000004a2000004e00002003a00c582a800a1
:105a50002f0037008040eb005147980002002800db
:105a6000733724001e00be0011f007000000e000a4
:105a700001003c000200370012c0b30052479800fa
:105a80005e4090000004a2000004e00011003a0013
:105a90000040eb0040479800020024002339240016
:105aa0001e00be0000f007000000e000010034000e
:105ab0000200370011c0b300414798004e409000eb
:105ac0000004a2000004e00002003a00c522a80081
:105ad0000f00370002002400233924001e00be00fe
:105ae000f3ef07000000e00001003c000800370071
:105af00002002c00833a24001e00be00eaef0700db
:105b00000000e0000100340001003700c4e2a800fa
:105b10001e00be00c3ef070010c488000080fa001a
:105b2000000006000200fa00004f780010c0b30029
:105b30009e4f100003003a0010c0b30002e8b70007
:105b4000020037000040eb0002e8b7000000eb0065
:105b5000001588000000eb00101588000000eb0025
:105b6000201588000000eb0030158800a802a8006e
:105b7000a822a800a842a900a862a900a882a9009a
:105b8000a8a2a900a8c2a900a8e2a900a902a90088
:105b9000a922a900a942a900a962a900a982a90075
:105ba000a9a2a900a9c2a900a9e2a900aa02a90064
:105bb000aa22a900aa42a800aa62a800aa82a80054
:105bc000aaa2a900aac2a900aae2a900ab02a90040
:105bd000ab22a900ab42a900ab62a900ab82a9002d
:105be000aba2a900abc2a900abe2a900112a200018
:105bf00091407800c0cfb30000c06000a1e2b700c0
:105c0000a042a800012a20009140780000ceb300f5
:105c100000c07000a0e2b700212a20009140780067
:105c200030ccb30000c060000034a000a2e2b70096
:105c3000a342a800512a20009140780000ceb30072
:105c400000c060000004a000a5e2b70002c8bf00c9
:105c50000004e00007003200412a20009140780053
:105c600000ccb30000c060003041b300a4e2b70034
:105c700007003700412a20009140780000ccb30093
:105c800000c0600071c2b30001407000a4e2b70020
:105c90008560a9008d60a800a1e2a80002c8bf002d
:105ca0000004e00005003a000000000031c8800058
:105cb00000032000808f5000fbff36000080fa00b8
:105cc00000000600809fbe00821f78003400f800ac
:105cd00000c0b300a00188000c00fa000040eb00f7
:105ce00000e8b7000040eb0001e8b7008560a900bc
:105cf00002c8bf000004e000290032000028200094
:105d0000000f780021c880001e0078001000780085
:105d10000001780081804000608020000080400009
:105d2000020878001e8fe80021c880001e0078005d
:105d300010007800000178008180400060a0200001
:105d400000804000020878001e8fe80021c8800013
:105d50001e0078001000780000017800818040006b
:105d600060c0200000804000020878001e8fe8001c
:105d700020c880000000e80020c8880021c88000fa
:105d8000f00f2000808f5000670136000000eb000c
:105d900020c8880010c0b30001e8b70062013700d6
:105da000c001200050158800212a20009140780071
:105db00030ccb30000c060000034a000a2e2b70005
:105dc000412a20009140780000ccb30000c0600060
:105dd00071c2b30001407000a4e2b700418020000e
:105de00091407800d0c3b30080cf50000f003a003c
:105df000c00f200050158800212a20009140780013
:105e000030ccb30000c060004041b300a2e2b70054
:105e1000412a20009140780000ccb30000c060000f
:105e20003041b300a4e2b7005f003700418020009a
:105e300091407800e0c3b30080cf50002c003a00be
:105e4000212a20009140780030ccb30000c06000cf
:105e50000044a000a2e2b700412a2000914078004f
:105e600000ccb30000c060007041b300a4e2b700f2
:105e700003c8bf000080fb00500798005e00900040
:105e8000e10f500011003200de009000e18f500061
:105e900004003c005e0090000000e00008003200ba
:105ea00041003700de009000e28f50000a0032000f
:105eb0005e009000e30f50000a0032003a00370005
:105ec000c01121005015880037003700c021220082
:105ed0005015880034003700c04124005015880058
:105ee00031003700c0812800501588002e0037008f
:105ef00004c8bf00e24f50002b003a00212a2000c6
:105f00009140780030ccb30000c060000044a00095
:105f1000a2e2b700412a20009140780000ccb300f3
:105f200000c060007041b300a4e2b70003c8bf0026
:105f30000080fb0040079800ce009000e18f5000e9
:105f4000110032004e009000e10f500004003c00b0
:105f5000ce0090000100e00008003200120037007f
:105f60004e009000e20f50000a003200ce00900078
:105f7000e38f50000a0032000b003700c0112100ef
:105f80005015880008003700c021220050158800f5
:105f900005003700c041240050158800020037007a
:105fa000c08128005015880000282000000f7800cc
:105fb00021c880001e0078001000780000017800e1
:105fc000818040006080200000804000020878004e
:105fd0001e8fe80021c880001e00780010007800a5
:105fe000000178008180400060a020000080400017
:105ff000020878001e8fe80021c880001e0078008b
:1060000010007800000178008180400060c020000e
:1060100000804000020878001e8fe80020c8800041
:106020000000e80020c8880021c88000f00f200090
:10603000808f5000020036000000eb0020c888006e
:106040004180200091407800e0c3b30080cf500031
:1060500024003a0030c880000000e80030c8880002
:1060600031c8800010032000808f500002003600ed
:106070000000eb0030c8880031c880001e007800a6
:1060800010007800000178008180400060e020006e
:1060900000804000020878001e8fe80031c88000b0
:1060a0001e00780010007800000178008180400018
:1060b000a0e6200000804000020878001e8fe80063
:1060c00031c880001e0078001000780000017800c0
:1060d00081804000e0ec2000008040000208780051
:1060e0007f0037004180200091407800f0c3b3006a
:1060f00080cf500038003a0003c8bf000080fb008a
:10610000300798003e009000e10f50001700320069
:10611000be009000e18f500004003c003e00900063
:106120000000e000080032006d003700be00900063
:10613000e28f5000160032003e009000e30f500046
:106140001c003200660037001e0078001000780046
:10615000907988001e8fe8001e00780010007800fb
:10616000d0798800e2e2a8005d0037001e007800c8
:1061700010007800a07988001e8fe8001e007800cb
:1061800010007800e0798800e302a800540037008e
:106190001e00780010007800b07988001e8fe8009b
:1061a0001e00780010007800f0798800e802a8004e
:1061b0004b0037001e00780010007800c07988007e
:1061c0001e8fe8001e00780010007800007a88001a
:1061d000e822a8004200370004c8bf00e34f500087
:1061e0003f003a0003c8bf000080fb002007980072
:1061f000ae009000e18f5000190032002e00900098
:10620000e10f500004003c00ae0090000100e000ef
:1062100008003200320037002e009000e20f5000dc
:106220001a003200ae009000e38f500022003200ce
:106230002b0037001e00780010007800107a8800cc
:106240001e8fe8001e00780010007800507a880049
:10625000e2e2a90010c0b30003e8b7002000370055
:106260001e00780010007800207a88001e8fe80059
:106270001e00780010007800607a8800e302a90010
:1062800020c0b30003e8b700150037001e007800f7
:1062900010007800307a88001e8fe8001e00780019
:1062a00010007800707a8800e802a90030c0b300be
:1062b00003e8b7000a0037001e00780010007800dd
:1062c000407a88001e8fe8001e00780010007800d9
:1062d000807a8800e822a9000040eb0003e8b700bc
:1062e00004c8bf00304798008040eb002147980069
:1062f000f0c3b300be40900080cf500002003600d3
:1063000010c0b30020479800be4090000140e80054
:1063100004e8b7002e4090000004e00002003200c4
:106320000040eb0004e8b70010c0b30000e8b7007d
:106330000080fa003400f9004f0178004f00be00e1
:10634000004006000000fa0000c8bf000080fb000b
:106350000080fa00000006000000fa0001c8bf003b
:106360000080fb000080fa00000006000000fa0038
:10637000a1e2a8000080fa00000006000000fa0078
:10638000a1e2a9000080fa00000006002800fa003f
:10639000889fbe008a1f78000000eb00300798003d
:1063a0000000eb00200798000f0037003e0090002f
:1063b00080004000c08b2100808040000000eb0086
:1063c000800878003e009000e80047004200dd00b1
:1063d000010140006000b8000089be003e0090004e
:1063e0000000e800300798003e009000e70f5000e2
:1063f000eeff3400270037000000eb003007980064
:106400001e0037003e0590003e009000e800470067
:106410004200dd00010040001004be003e0090007c
:1064200041000700cf80de0008014000898148005c
:10643000e80047004250dd00010040000288be0035
:106440006000b800008fbe0004003700100020007c
:10645000010020001e0f40005e974800703e2000a3
:1064600001002000be0f1000ae8f1800f7ff3400af
:106470003e0090000000e800300798003e009000c9
:10648000e70f5000dfff34002e0090000000e8000e
:1064900020079800ae00900030062000808f50004a
:1064a000d5ff34000000eb003007980017003700dc
:1064b0003e0590003e009000e80047004200dd00ed
:1064c000010040001000be0032ec07000004be00d6
:1064d0002e009000cf80de002eec07000001be00f1
:1064e0000800be0073ec07004eed070000017800c5
:1064f0008a004500c08b210000804000020878001f
:106500003e0090000000e800300798003e00900038
:10651000e70f5000e6ff34004f0578004f04be003f
:106520000080fa00000006000400fa00000f780066
:10653000700020009e0f1000030036000000eb00ea
:10654000100798000c0037001e0078008000400003
:1065500020f3200000804000100178001e00780029
:106560008000400020f420000080400010007800ef
:1065700000015100120798001e0090000080fa00f0
:10658000000006000600fa00100798001e009000a8
:10659000e70f5000030036000000eb0020079800d2
:1065a000180037001e0090008000400020f32000fb
:1065b00000804000100178001e0090008000400024
:1065c00020f42000008040001000780000015100fd
:1065d0001e00900080004000c08b21000080400021
:1065e00010007800000f51001e00e000030034008e
:1065f0001e00780020079800020037000000eb0022
:10660000200798002e0090000080fa00000006008d
:106610000400fa00000f7800700020009e0f1000a8
:10662000030036000000eb0010079800060037005a
:106630001e0078008000400020f320000080400011
:1066400010007800100798001e0090000080fa00eb
:10665000000006000200fa00000f78001e0078001b
:1066600021c880004800dd0001004000800040009b
:106670006080200000804000100078000080fa0058
:10668000000006000c00fa0040079800510798002f
:106690006000b80020079800310798004e00900075
:1066a000e20f50002d003e005e0090000000e00070
:1066b0002a003200de00900000102000808f500081
:1066c00026003e000000eb001007980021c8800063
:1066d0005e009000008050001010b0008000780034
:1066e000f00f2000008f6000180037004e0090006f
:1066f0009e0078004800dd0001004000800040005e
:106700006080200000804000100078006101b90026
:106710002e009000be0090000000410081804900e2
:1067200020079800310798001e0090000000e80044
:10673000100798001e00e800021020001100090058
:106740000200d8008000fd00000f78009e0090003d
:106750005e009000808f5000e4ff39005e009000e2
:106760006101b8002e009000be009000d2ec07003e
:106770000080fa00000006000800fa0030079800c8
:106780000000eb001007980070382100000f78001f
:106790000000eb00200798002a0037003e00900020
:1067a000ae0090004800dd00010040008000400085
:1067b0006080200000804000900078001e00900063
:1067c000808f50000a0034003e009000ae00900020
:1067d0004800dd0001004000800040006080200093
:1067e00000804000900078001107980012003700e8
:1067f0003e009000ae0090004800dd000100400027
:106800008000400060802000008040001000780080
:106810009e0f500008003d003e009000ae0090002a
:106820004800dd0001004000800040006080200042
:1068300000804000100f78002e0090000000e8005b
:1068400020079800ae009000f00f2000808f5000cd
:10685000d2ff34001e0090001e0050000080fa009d
:10686000000006000800fa001007980021079800b1
:10687000320798003e0090000000e0002000320047
:10688000be00900000102000808f50001c003e00d1
:106890000000eb00000f7800150037003e0090006c
:1068a0001e00500000004000800078002e00900084
:1068b000008040008081e9001e01900021c8800016
:1068c0001e00780080804000f00f20008080600073
:1068d0004810dd0001004000800040006080200082
:1068e0000080400010007800800978001e0fe8004a
:1068f0009e0078003e009000808f5000e7ff390036
:106900000080fa00000006000000fa000000eb0022
:10691000800888000111200091407800f0ccb3007d
:1069200000c0600010e1b7000000eb0030088800f4
:10693000205c20006008880084c0a9008cc0a800ea
:1069400011e1a8000080fa00000006000000fa0033
:1069500011e1a9000080fa00000006000800fa001a
:106960001007980021079800c0c88000000f780029
:106970000b0037001e007800b00090001e00900051
:10698000808f500003003a0011002000310798006a
:106990001f0037001e007800c0009000010f780033
:1069a0001e00e000f3ff3a00a0002000b7e6070059
:1069b000000f78001e00e00002003a0010002000e6
:1069c000dde60700ae0090001e00780001087800a8
:1069d0009e0078000000eb00900098009e00780078
:1069e00010c0b300c04098001e0078009e009000c8
:1069f00031009800c1c880001e0078004100980056
:106a00001e007800c0c888001100200031079800df
:106a10003e0090000080fa00000006000800fa0026
:106a2000200798000000eb0010079800c0c8800005
:106a3000000f78001a0037001e007800b0009000a8
:106a40002e009000808f500010003a001e00900031
:106a50000000e000050032001e007800c000900039
:106a60001e00900041009800030037001e007800cf
:106a700040009000c0c888001e007800c0e60700f3
:106a80001100200031079800090037001e0078002f
:106a9000100798001e007800c0009000010f7800d9
:106aa0001e00e000e4ff3a002000200030079800bc
:106ab0003e0090000080fa00000006000800fa0086
:106ac0001007980021079800c0c88000000f7800c8
:106ad0000e0037001e007800b00090001e009000ed
:106ae000808f500006003a00ae0090001e00780033
:106af00001087800110020003107980007003700d6
:106b00001e007800c0009000010f78001e00e00019
:106b1000f0ff3a0020002000300798003e0090006f
:106b20000080fa00000006000600fa001007980036
:106b3000c0c88000000f78000e0037001e007800eb
:106b4000b00090001e009000808f500006003a00b8
:106b50009e0078000000eb009000980011002000db
:106b600021079800070037001e007800c000900041
:106b7000010f78001e00e000f0ff3a002000200026
:106b8000200798002e0090000080fa000000060008
:106b90000600fa0010079800c0c88000000f7800b7
:106ba0000e0037001e007800b00090001e0090001c
:106bb000808f500006003a009e0078000040eb00f5
:106bc000c0409800110020002107980007003700fe
:106bd0001e007800c0009000010f78001e00e00049
:106be000f0ff3a0020002000200798002e009000bf
:106bf0000080fa00000006000600fa001007980066
:106c0000c0c88000000f78000e0037001e0078001a
:106c1000b00090001e009000808f500006003a00e7
:106c20009e00780010c0b300c04098001100200002
:106c300021079800070037001e007800c000900070
:106c4000010f78001e00e000f0ff3a002000200055
:106c5000200798002e0090000080fa000000060037
:106c60003600f800809fbe00829fbe00849fbe0059
:106c7000869fbe003400f80000c0b300a001880069
:106c80000200fa00c0c88000000f780084c0a9008c
:106c90001e0037001e00780040409000e14f500079
:106ca00017003a001e007800100078000000e00095
:106cb000130032001e007800100090008000e800f1
:106cc0001e007800110098001e007800100090004f
:106cd000800078001e007800100078000000e900b5
:106ce000808f5000060036001e00780030009000b3
:106cf000000001009e0078000000eb00900098006a
:106d00001e007800c0009000010f78001e00e00017
:106d1000e0ff3a000080fa003400f9004f03be00a3
:106d20004f02be004f01be004f00be003600f9000a
:106d3000004006000400fa00c0c680000000e00029
:106d40001f00320061c6800080da2f00808f500063
:106d50001b00350061c6800080252000808f500018
:106d600017003c00d602a900d622a900d642a900ed
:106d7000d662a9000000eb00c0c6880060c6800093
:106d800000017800120798001e0190000200e00048
:106d900003003d001e0190000201ea001207980066
:106da000007122001e019000110009000200d800ad
:106db000ef005000a069230040ff07004d0037009e
:106dc00060c680000000e0000c003400a0c6800017
:106dd0000000e800a0c6880080c680000000e9002e
:106de00080c6880080c680000000e0000e003d00e4
:106df0003000200080c688000b003700a0c680004d
:106e00000000e900a0c6880080c680000000e800fd
:106e100080c6880080c68000e30f50000200340066
:106e20000000eb0080c6880080c68000000f78005c
:106e30001e017800e10f5100130032001e0078009f
:106e4000e10f500004003c001e0178000200e00049
:106e5000080032001a0037001e007800e20f5000d0
:106e60000e0032001e017800e30f510010003200c6
:106e700013003700d602a900d622a800d642a900e6
:106e8000d662a8000e003700d602a900d622a800bc
:106e9000d642a800d662a90009003700d602a80091
:106ea000d622a900d642a800d662a9000400370065
:106eb000d602a800d622a900d642a900d662a80010
:106ec00061c6800080da2f00808f500009003500f5
:106ed00061c6800080252000808f500005003c00a6
:106ee00010002000c0c68800f1002000a069230027
:106ef000f2fe07000080fa00000006000400fa001d
:106f0000d0c680000000e0001f00320071c6800083
:106f100080da2f00808f50001b00350071c6800082
:106f200080252000808f500017003c00d682a900e9
:106f3000d6a2a900d6c2a900d6e2a9000000eb00a3
:106f4000d0c6880070c68000000178001207980043
:106f50001e0190000200e00003003d001e019000b1
:106f60000201ea0012079800007122001e01900041
:106f7000110009000200d800ef005000e077230064
:106f8000cefe07004d00370070c680000000e00014
:106f90000c003d00b0c680000000e900b0c68800cb
:106fa00090c680000000e90090c6880090c680006e
:106fb0000000e0000e003d003000200090c6880078
:106fc0000b003700b0c680000000e800b0c68800a3
:106fd00090c680000000e80090c6880090c680003f
:106fe000e30f5000020034000000eb0090c6880060
:106ff00090c68000000f78001e017800e10f51005c
:10700000130032001e007800e10f500004003c0025
:107010001e0178000200e000080032001a0037006c
:107020001e007800e20f50000e0032001e017800b2
:10703000e30f51001000320013003700d682a90080
:10704000d6a2a800d6c2a900d6e2a8000e0037003a
:10705000d682a900d6a2a800d6c2a800d6e2a9006e
:1070600009003700d682a800d6a2a900d6c2a8007f
:10707000d6e2a90004003700d682a800d6a2a90053
:10708000d6c2a900d6e2a80071c6800080da2f001f
:10709000808f50000900350071c6800080252000d7
:1070a000808f500005003c0010002000d0c68800f2
:1070b000f1002000e077230080fe07000080fa0046
:1070c000000006000000fa008000eb00a069230029
:1070d00022fe07008000eb00e07723001ffe070080
:1070e0000080fa00000006000200fa00000f78009d
:1070f0001e00e0000a003a000000eb0060c68800b5
:107100008000eb00a06923006cfe0700d602a900f6
:10711000d622a900d642a900d662a9002d003700c8
:1071200080c12f009e0f10000a003d0080c12f007b
:1071300060c6880062c68000008f2d001100090023
:107140000200d80080007800a06923005bfe0700e1
:1071500020003700803e20009e0f10000a003400ff
:10716000803e200060c6880062c680000071220058
:10717000110009000200d80080007800a0692300f7
:107180004efe0700130037001e00780060c688001e
:107190001e00e00008003d00008f2d001e01780059
:1071a000110009000200d80080007800a0692300c7
:1071b00042fe070007003700007122001e01780020
:1071c000110009000200d80080007800a0692300a7
:1071d0003afe07000080fa00000006000200fa00f4
:1071e000000f78001e00e0000a003a000000eb00eb
:1071f00070c688008000eb00e07723002ffe0700b8
:10720000d682a900d6a2a900d6c2a900d6e2a900ba
:107210002d00370080c12f009e0f10000a003d0096
:1072200080c12f0070c6880072c68000008f2d00bc
:10723000110009000200d80080007800e0772300e8
:107240001efe070020003700803e20009e0f100029
:107250000a003400803e200070c6880072c680009c
:1072600000712200110009000200d800800078009f
:10727000e077230011fe0700130037001e0078009e
:1072800070c688001e00e00008003d00008f2d0041
:107290001e017800110009000200d800800078006b
:1072a000e077230005fe0700070037000071220089
:1072b0001e017800110009000200d800800078004b
:1072c000e0772300fdfd07000080fa0000000600c3
:1072d0000800fa00000f7800110798001e007800df
:1072e000300798003e0190000200e00003003d00de
:1072f0003e0090000000ea00300798001e01900058
:10730000220798002e0090000000e00003003d00de
:107310002e0190000201ea00220798003e00900032
:107320002e01900082004000803e2000808f50009f
:1073300006003c001e0090001e0010006aff0700bf
:107340001e0090001e004000a4ff07000080fa000d
:10735000000006000000fa00a0c680000080fa00cd
:10736000000006000200fa00000f78001e007800fe
:10737000a0c688000080fa00000006000000fa00a5
:10738000b0c680000080fa00000006000200fa008b
:10739000000f78001e007800b0c688000080fa0058
:1073a000000006000600fa00000f780011079800a0
:1073b0001e007800200798002e009000e30f500078
:1073c000670032002e009000e30f500007003e00df
:1073d0002e009000e10f50002e0032002e00900091
:1073e000e10f500041003e000d0037002e009000dc
:1073f000e50f5000940032002e009000e50f500081
:10740000740039002e009000e60f5000ab003200ef
:107410002e009000e70f5000c5003200da00370060
:107420001e009000e10f50000f003600c4c2bf00e4
:107430000080fb004600de00614060000004a20006
:1074400061406000614060004601dd00412c200089
:1074500091407800f0cbb30000c0600002407000a3
:10746000c4e2b7001e0137001e00900061406000ba
:10747000614060004601dd00412c20009140780011
:10748000f0cbb30000c0600002407000c4e2b7005f
:10749000130137001e009000e10f50000b00360072
:1074a000c4c2bf000080fb004700de000004a20051
:1074b00061406000c700dd00c4c2bf000074a100cd
:1074c00001407000c4e2b700050137001e009000c3
:1074d00061406000c700dd00c4c2bf000074a100ad
:1074e00001407000c4e2b700fd0037001e009000ac
:1074f000e10f50000f003600c5c2bf000080fb0046
:107500000000d100614060000004a2006140600002
:107510006140600000414000512c20009140780003
:10752000d0cfb30000c0600002407000c5e2b700d9
:10753000eb0037001e009000614060006140600079
:1075400000414000512c200091407800d0cfb30082
:1075500000c0600002407000c5e2b700e0003700e4
:107560001e009000e10f50000f003600c5c2bf00a2
:107570000080fb004400de00614060000004a200c7
:1075800061406000614060004401dd00512c20003a
:1075900091407800f0ceb30000c06000024070005f
:1075a000c5e2b700ce0037001e00900061406000c9
:1075b000614060004401dd00512c200091407800c2
:1075c000f0ceb30000c0600002407000c5e2b7001a
:1075d000c30037001e009000e10f50000f0036007e
:1075e000c5c2bf000080fb004200de0061406000b9
:1075f0000004a20061406000614060004201dd00c3
:10760000512c200091407800b0cfb30000c0600042
:1076100002407000c5e2b700b10037001e009000c4
:1076200061406000614060004201dd00512c20009b
:1076300091407800b0cfb30000c0600002407000fd
:10764000c5e2b700a60037001e009000e10f500011
:107650000f003600c5c2bf000080fb004500de0001
:10766000614060000004a200614060006140600071
:107670004501dd00512c200091407800f0cdb30091
:1076800000c0600002407000c5e2b70094003700ff
:107690001e00900061406000614060004501dd0017
:1076a000512c200091407800f0cdb30000c0600064
:1076b00002407000c5e2b700890037001e0090004c
:1076c000e10f50000f003600c5c2bf000080fb0074
:1076d0004600de00614060000004a20061406000de
:1076e000614060004601dd00512c2000914078008f
:1076f000f0cbb30000c0600002407000c5e2b700ec
:10770000770037001e00900061406000614060001b
:107710004601dd00512c200091407800f0cbb300f1
:1077200000c0600002407000c5e2b7006c00370086
:107730001e009000e10f50000b003600c5c2bf00d4
:107740000080fb004700de000004a20061406000f2
:10775000c700dd00c5c2bf000074a1000140700079
:10776000c5e2b7005e0037001e0090006140600077
:10777000c700dd00c5c2bf000074a1000140700059
:10778000c5e2b700560037001e009000614060005f
:10779000c700dd00c5c2bf000074a1000140700039
:1077a000c5e2b700c5c2bf000080fb004700de0095
:1077b000614060004601dd00512c200091407800be
:1077c000f0cbb30000c0600002407000c5e2b7001b
:1077d000c5c2bf000080fb004600de0061406000c3
:1077e000614060004501dd00512c2000914078008f
:1077f000f0cdb30000c0600002407000c5e2b700e9
:10780000c5c2bf000080fb004500de006140600093
:10781000614060004201dd00512c20009140780061
:10782000b0cfb30000c0600002407000c5e2b700f6
:10783000c5c2bf000080fb004200de006140600066
:10784000614060004401dd00512c2000914078002f
:10785000f0ceb30000c0600002407000c5e2b70087
:10786000c5c2bf000080fb004400de006140600034
:107870006140600000414000512c200091407800a0
:10788000d0cfb30000c0600002407000c5e2b70076
:10789000c5c2bf000080fb000000d1006140600055
:1078a000c700dd00c4c2bf000074a1000140700029
:1078b000c4e2b700c4c2bf000080fb004700de0086
:1078c000614060004601dd00412c200091407800bd
:1078d000f0cbb30000c0600002407000c4e2b7000b
:1078e0000080fa00000006000000fa00c4c2a900ef
:1078f000c4e2a900c522a900c582a900c542a90009
:10790000c5a2a900c5c2a900c5e2a9000080fa006d
:10791000000006000200fa00000f780010002000ae
:107920009e0f10000f003600d0c2bf000080fb0089
:107930004200de00614060000004a200614060007f
:10794000614060004201dd00012d2000914078007f
:10795000b0cfb30000c0600002407000d0e2b700ba
:107960000a0037001e00780061406000614060003e
:107970004201dd00012d200091407800b0cfb3001e
:1079800000c0600002407000d0e2b7000080fa0042
:10799000000006000200fa00000f7800100020002e
:1079a0009e0f10000f003600d0c2bf000080fb0009
:1079b0000000d100614060000004a200614060004e
:1079c0006140600000414000012d2000914078009e
:1079d000d0cfb30000c0600002407000d0e2b7001a
:1079e0000a0037001e0078006140600061406000be
:1079f00000414000012d200091407800d0cfb3001d
:107a000000c0600002407000d0e2b7000080fa00c1
:107a1000000006000000fa00c4c2bf000080fb00a6
:107a20004600de006140600000c0ea006140600086
:107a3000614060004601dd00412c2000914078004b
:107a4000f0cbb30000c0600002407000c4e2b70099
:107a5000c4c2bf000080fb004700de0000c0ea0097
:107a600061406000c700dd00c4c2bf000074a10017
:107a700001407000c4e2b700c5c2bf000080fb0037
:107a80000000d1006140600000c0ea006140600079
:107a90006140600000414000512c2000914078007e
:107aa000d0cfb30000c0600002407000c5e2b70054
:107ab000c5c2bf000080fb004400de0061406000e2
:107ac00000c0ea0061406000614060004401dd00e8
:107ad000512c200091407800f0ceb30000c060002f
:107ae00002407000c5e2b700c5c2bf000080fb00c5
:107af0004200de006140600000c0ea0061406000ba
:107b0000614060004201dd00512c2000914078006e
:107b1000b0cfb30000c0600002407000c5e2b70003
:107b2000c5c2bf000080fb004500de006140600070
:107b300000c0ea0061406000614060004501dd0076
:107b4000512c200091407800f0cdb30000c06000bf
:107b500002407000c5e2b700c5c2bf000080fb0054
:107b60004600de006140600000c0ea006140600045
:107b7000614060004601dd00512c200091407800fa
:107b8000f0cbb30000c0600002407000c5e2b70057
:107b9000c5c2bf000080fb004700de0000c0ea0055
:107ba00061406000c700dd00c5c2bf000074a100d5
:107bb00001407000c5e2b7000080fa000000060036
:107bc0000000fa00c4c2bf000080fb004600de00d7
:107bd0006140600000c0ea006140600061406000f8
:107be0004601dd00412c200091407800f0cbb3002d
:107bf00000c0600002407000c4e2b7000080fa00dc
:107c0000000006000000fa00c4c2bf000080fb00b4
:107c10004700de0000c0ea0061406000c700dd00f0
:107c2000c4c2bf000074a10001407000c4e2b700ec
:107c30000080fa00000006000000fa00c5c2bf0084
:107c40000080fb000000d1006140600000c0ea003d
:107c5000614060006140600000414000512c200004
:107c600091407800d0cfb30000c0600002407000a7
:107c7000c5e2b7000080fa00000006000000fa002c
:107c8000c5c2bf000080fb004400de006140600010
:107c900000c0ea0061406000614060004401dd0016
:107ca000512c200091407800f0ceb30000c060005d
:107cb00002407000c5e2b7000080fa000000060034
:107cc0000000fa00c5c2bf000080fb004200de00d9
:107cd0006140600000c0ea006140600061406000f7
:107ce0004201dd00512c200091407800b0cfb3005c
:107cf00000c0600002407000c5e2b7000080fa00da
:107d0000000006000000fa00c5c2bf000080fb00b2
:107d10004500de006140600000c0ea006140600094
:107d2000614060004501dd00512c20009140780049
:107d3000f0cdb30000c0600002407000c5e2b700a3
:107d40000080fa00000006000000fa00c5c2bf0073
:107d50000080fb004600de006140600000c0ea00d9
:107d600061406000614060004601dd00512c200050
:107d700091407800f0cbb30000c06000024070007a
:107d8000c5e2b7000080fa00000006000000fa001b
:107d9000c5c2bf000080fb004700de0000c0ea0053
:107da00061406000c700dd00c5c2bf000074a100d3
:107db00001407000c5e2b7000080fa000000060034
:107dc0000200fa00000f78009e007800a0d0230087
:107dd000e2fa07000080fa00000006000000fa0046
:107de000a0d023000dfb07000080fa000000060071
:107df0000200fa00000f78001e00e00003003500ca
:107e00009e007800a0d023002cfb07000080fa0021
:107e1000000006000000fa00f2d8bf000004e000f5
:107e20000b003a008000eb00700020005dfd0700b1
:107e3000f2d8bf000080fb001100200059fd0700b0
:107e4000f2d8bf000040e800f2f8b7001b0037008e
:107e5000f2d8bf00e74f50000c003a00f2d8bf0044
:107e60000080fb000000e9008000eb004dfd0700f2
:107e7000f2d8bf000080fb001100200049fd070080
:107e80000040eb00f2f8b7000c003700f2d8bf005a
:107e90000080fb000000e9008000eb0041fd0700ce
:107ea000f2d8bf000080fb00110020003dfd07005c
:107eb000f2d8bf000040e800f2f8b7000080fa00f6
:107ec000000006000200fa00f3d8bf000080fb00ab
:107ed000000f78001e007800e20f50001c003200f6
:107ee0001e007800e20f500007003c001e007800e2
:107ef0000000e0000b0032001e007800e10f50008f
:107f00000c003200230037001e007800e30f500001
:107f1000160032001e007800e40f50001a003200f4
:107f20001c003700210020000000eb001dfd0700b1
:107f300018003700210020001000200019fd070064
:107f4000210020007000200016fd070011003700fe
:107f5000210020002000200012fd07002100200049
:107f6000600020000ffd07000a00370021002000fc
:107f7000300020000bfd07002100200050002000f1
:107f800008fd07000300370021002000400020000a
:107f900004fd0700f3d8bf00e34f500004003e008b
:107fa000f3d8bf000040e800f3f8b7000200370044
:107fb0000040eb00f3f8b7000080fa000000060074
:107fc0000000fa00f4d8bf000004e0000f003a00ff
:107fd0001ad9bf000004e0000c00320010c0b3004a
:107fe000f4f8b7008000eb000000eb00edfc0700a8
:107ff000f4d8bf000080fb0011002000e9fc07005e
:108000000040eb001af9b7002b003700f4d8bf008e
:108010000004e0000f003a001ad9bf000004e0009d
:108020000c003a0070c0b300f4f8b7008000eb0019
:108030000000eb00dbfc0700f4d8bf000080fb0071
:1080400011002000d7fc070010c0b3001af9b700d8
:1080500019003700f4d8bf00e74f50000a003a007b
:108060000040eb00f4f8b7008000eb007000200047
:10807000ccfc0700f4d8bf000080fb0011002000fa
:10808000c8fc07000c003700f4d8bf00e14f5000d7
:1080900009003a000040eb00f4f8b7008000eb0064
:1080a00010002000bffc0700f4d8bf000080fb00d8
:1080b00011002000bbfc07000080fa000000060051
:1080c0000200fa00f5d8bf000080fb00000f780026
:1080d0001e007800e10f5000150032001e007800ed
:1080e000e10f500004003c001e0078000000e0009a
:1080f000080032001a0037001e007800e20f50001e
:10810000120032001e007800e30f5000130032000e
:1081100013003700210020000000eb00a1fc070045
:1081200021002000400020009efc07000c003700ca
:1081300021002000100020009afc070021002000f0
:108140003000200097fc07000500370021002000c8
:108150002000200093fc070001003700e2fd07002b
:10816000f5d8bf00e24f500004003e00f5d8bf0034
:108170000040e800f5f8b700020037000040eb00cf
:10818000f5f8b7000080fa00000006000200fa00cf
:10819000f6d8bf000080fb00000f78001e007800ba
:1081a000e10f5000150032001e007800e10f500072
:1081b00004003c001e0078000000e00008003200cf
:1081c0001a0037001e007800e20f50001200320043
:1081d0001e007800e30f5000130032001300370038
:1081e000210020000000eb006efc070021002000b1
:1081f000400020006bfc07000c003700210020002d
:108200007000200067fc07002100200050002000c3
:1082100064fc0700050037002100200060002000fa
:1082200060fc070001003700affd0700f6d8bf0073
:10823000e24f500004003e00f6d8bf000040e800c6
:10824000f6f8b700020037000040eb00f6f8b70080
:108250000080fa00000006000600fa00889fbe00b9
:108260008a9fbe000000eb0090c088004c003700e1
:1082700090c08000418121004200dd0001014000ea
:108280006000b8000089be000000eb0080c08800dc
:108290001b0037009bc0800090c0800041812100fe
:1082a0004200dd00010040001004be0090c08000cc
:1082b00081c080004300dd000100400080004000dc
:1082c000e07e2100008040001005780080c0800022
:1082d000acf8070000d0b900cf80de0008014000f4
:1082e00089814800418121004258dd0001004000a1
:1082f0000288be0080c080000000e80080c08800c6
:1083000080c08000e70f5000e2ff340090c0800082
:10831000000f780090c08000418121004200dd0004
:10832000010040001000be001007980021079800cf
:108330001e019000ae019000e00f5100e08f590047
:1083400006003d001e009000ae009000630040005b
:10835000e080480010079800210798001e01900057
:10836000ae0190004e1add004210de0000007200e7
:10837000c298de0062222000000141001e00780049
:108380001e00780080004000c08121000080400075
:108390000208780090c080000000e80090c08800cb
:1083a00090c08000e10f5000b1ff3400f1c08000a8
:1083b00010032000808f500012003c00f1c08000ac
:1083c000e0fc2f00808f50000e003400e1c08000e0
:1083d00010032000808f50000a003c00e1c08000a4
:1083e000e0fc2f00808f500006003400f0c08000b9
:1083f0007400b900f0c08800e0c080007400b900cb
:10840000e0c08800f1c08000803e2000808f5000d6
:1084100003003400803e2000f0c0880006003700d2
:10842000f1c0800080c12f00808f500002003d000d
:1084300080c12f00f0c08800e1c08000803e200095
:10844000808f500003003400803e2000e0c0880090
:1084500006003700e1c0800080c12f00808f5000ef
:1084600002003d0080c12f00e0c08800f0c0800005
:108470001dfb0700e0c0800058fb07004f05be0051
:108480004f04be000080fa00000006001000fa0051
:10849000889fbe008a9fbe00600798007107980001
:1084a0004006200050079800d0cc2c00c1d42300f7
:1084b00030079800410798003000200020079800fe
:1084c000de0090006e0090000080500010079800c1
:1084d00060be8000cf80de002ee407000005be00f5
:1084e0001e009000cf80de002ae407003e019000cd
:1084f000ce019000b1e407000004be002e00900001
:10850000cf80de0023e407000001be000800be00ab
:1085100068e407000001be000a00be00dce40700ba
:1085200040e5070060be880061be80001e0090002c
:10853000808040007e0090000088b900000f780025
:10854000703e20009e0f100011003400703e20008d
:108550007e019000110009000200d8008000780020
:108560001e0090000080500060be880061be800048
:10857000c0032000808f500002003400c0032000a0
:1085800060be8800703e2000000f780012003700a7
:1085900080c12f009e0f10000f003c0090c12f00e3
:1085a0007e019000110009000200d80080007800d0
:1085b0001e0090000080400060be880060be800009
:1085c000ea0f400002003d0060ff2f0060be8800ff
:1085d00090c12f00000f78001e0078004f05be00ec
:1085e0004f04be000080fa00000006000a00fa00f6
:1085f00030079800410798000000eb002007980022
:108600000000eb0010079800ae0090003e009000c4
:10861000008f50009e0078004e0090000088b90046
:10862000100798009e009000703e2000808f500040
:1086300003003400703e2000100798000600370049
:108640009e00900080c12f00808f500002003c00ef
:1086500090c12f00100798001e0090000080fa00c3
:10866000000006000400fa00889fbe007000200091
:10867000c4f70700000478000000eb00c1f7070012
:108680000000440022002000110009000200d80070
:10869000610020007dff0700100798000000eb003c
:1086a000b8f707000004780010002000b5f70700b5
:1086b0008004440070002000b2f707000004780036
:1086c00060002000aff70700000044000080540065
:1086d00041002000c5ff0700000f78001e00900039
:1086e0001e00500080fa07001e0090001e0040008f
:1086f000bafa07004f04be000080fa00000006002e
:108700000000fa009fee07006efa07000040eb0041
:1087100004f507001df70700419c200000fe230020
:108720008ef80700a1282000203324008bf80700d2
:1087300075f80700ffff37000000fa0091ee070010
:1087400060fa07000040eb00f6f407000ff707009f
:108750004138200020f6230080f80700a1282000df
:10876000c01224007df8070067f80700ffff3700fc
:108770000200fa00000f780040c880000001780075
:1087800050c880001e0378004500200044002000ef
:10879000031e20008000eb00d8030700110020001a
:1087a000100020005e060700460507000080fa0062
:1087b000000006000600fa00100798002107980044
:1087c000810720001e00900026020700820720007b
:1087d0009e0090002e00900045020700004f780098
:1087e00010c0b3009e4f10000c003a002e00900005
:1087f000104078000004e00001003a003503070053
:10880000ae00900010c0b30080487800d042a800ad
:108810002e00900084020700150037002d0307008a
:10882000ae0090000040eb0080487800d042a900e4
:10883000ae0090000000eb00b00098002e00900009
:10884000200090000000e00005003400c01220006d
:1088500025fa070040ed2f0060fa070004003700fa
:1088600040ed2f0020fa0700c01220005bfa07003d
:108870000080fa00000006000800fa0020079800b7
:10888000310798000000eb00100798001f00370028
:108890001e00900000004000800078002e00900034
:1088a00000804000104078000080fb0067006000fe
:1088b0004500dd00004178001e00900000004000ef
:1088c000800078002e009000008040000000e8004a
:1088d000104078008080fb00000e200000806000c7
:1088e0004380de0000407100004f78001e009000c1
:1088f000800078002e009000008040001e48780024
:108900001e0090000000e800100798003e00900054
:1089100022002000110009000200d8008000780029
:108920001e009000808f5000d9ff3c000080fa00ac
:10893000000006000800fa002007980031079800a0
:108940000000eb0010079800100037001e00900098
:1089500000004000800078002e0090000080400061
:108960009040780080cfb30000cf60001e009000e0
:10897000800078002e009000008040001e487800a3
:108980001e0090000000e800100798003e009000d4
:1089900022002000110009000200d80080007800a9
:1089a0001e009000808f5000e8ff3c000080fa001d
:1089b000000006000e00fa00c057210010079800c2
:1089c000405f2100000f780064004700920107001b
:1089d000eced0700ccf70700baf907002eee070010
:1089e000800407000000eb0061ff07001e009000fc
:1089f000e3020700e40047001e0078006dff070057
:108a00003a0307000000e000fdff32001e0078007e
:108a1000db020700e40047001e00900065ff07002e
:108a2000320307000000e000fdff3200efff3700d7
:108a30000c00fa00c0572100000f78000e80e800fb
:108a400075010700cfed0700aff707009df907009c
:108a500011ee0700630407001000200044ff070028
:108a60001e007800c6020700200307000000e00097
:108a7000fdff3200010f20001e007800adff07004f
:108a80008e80e8001e0078004aff0700f4ff3700e0
:108a90000e00fa00c057210010079800405f210027
:108aa000000f7800640047005b010700b5ed070088
:108ab00095f7070083f90700f7ed07004904070061
:108ac000100020002aff07001e009000ac020700e3
:108ad000060307000000e000fdff3200010f200048
:108ae0001e00900064ff0700e40047001e00900095
:108af00030ff0700f4ff37000c00fa002007980051
:108b000031079800420798000000eb00000f780042
:108b1000be0090004e009000808f500008003a0088
:108b20003e009000800078002e0090000080400001
:108b3000104078000080fb00500798001d003700af
:108b40003e009000100798000a0037001e009000b9
:108b5000800078002e0090000080400010407800d7
:108b60000080fb001e0f40001e0090000000e80087
:108b7000100798009e0090004e009000808f5000db
:108b8000f2ff35001e00e00003003a000000eb0099
:108b90005007980007003700ce0090003e0090007c
:108ba000008150001e007800110009000200d8006a
:108bb000500798005e0090000080fa000000060058
:108bc0001000fa00881f78003007980041079800cd
:108bd000520798006307980080c880000000e800f2
:108be000200798000000eb00000f780020003700fd
:108bf0002e0090000001e90081c880002e00900046
:108c0000010050008000e9005e009000baff0700fc
:108c1000800178002e009000800078005e009000b7
:108c200000804000104078000081fb00ae00900002
:108c30005e009000008040000000e80010407800d6
:108c40000080fb000000410022002000110009000c
:108c50000200d800008f5100300020009e0f10004d
:108c600008003c002e0090000000e800200798005b
:108c70006e0090008000e9002e009000808f500070
:108c8000dbff3c00ae0090006e009000808f500033
:108c900003003d00300020009e0f100003003c0048
:108ca0000080eb00700798004d0037002e00900008
:108cb0000000e800100798000000eb00000f7800ab
:108cc0001c0037001e009000800078005e009000bd
:108cd00000804000104078000081fb001e009000e2
:108ce000800078005e009000008040001040780016
:108cf0000080fb000000410022002000110009005c
:108d00000200d800000478001e019000ae00900020
:108d10005e00900078ff0700000f54003000200034
:108d20009e0f100008003c001e0090000000e800ac
:108d3000100798006e0090008000e9001e0090006f
:108d4000808f5000dfff3c009e0090002e009000be
:108d5000808050003e009000010878009e00900046
:108d60006e009000808f5000080035006e0090006b
:108d700022002000110009000200d80080007800c5
:108d80004e00900001087800130037009e0090000c
:108d90002e009000008050002200200011000900e9
:108da0000200d800800078002e00900080804000f3
:108db0006e00900022002000811f78001100090041
:108dc0000200d80001017800cf00780080805000b8
:108dd0004e009000010878001000200070079800f5
:108de0007e0090004f0478000080fa00000006002a
:108df0001000fa00881f780030079800410798009b
:108e0000520798006307980091c880006e00900098
:108e1000010050000000e900200798000000eb006e
:108e2000000f78002000370091c880002e009000cd
:108e3000008040000001e8002e0090008000e80063
:108e40005e0090002cff0700800178002e0090004b
:108e5000800078005e0090000080400010407800a4
:108e60000081fb00ae0090005e009000008040009a
:108e70000000e900104078000080fb000000410085
:108e800022002000110009000200d800008f5100cc
:108e9000300020009e0f100006003c002e009000c5
:108ea0000000e900200798002e0090000000e0007c
:108eb000ddff3c002e0090000000e00003003200c7
:108ec000300020009e0f100003003c000080eb00eb
:108ed000700798004c0037002e0090000000e90059
:108ee000100798000000eb00000f78001d0037000d
:108ef0001e009000800078005e009000008040001e
:108f0000104078000081fb009e0090005e00900001
:108f1000008040000000e900104078000080fb0065
:108f20000000410022002000110009000200d800ca
:108f3000000478001e0090008000e8002e019000e0
:108f40005e009000ecfe0700000f5400300020008f
:108f50009e0f100006003c001e0090000000e9007b
:108f6000100798001e0090000000e000e0ff3c00a9
:108f7000ae0090001e009000808050003e009000e7
:108f8000010878001e0090000000e00009003c008d
:108f90006e0090000000ea0022002000110009008d
:108fa0000200d800800078004e0090000108780090
:108fb00013003700ae0090001e00900000805000ab
:108fc00022002000110009000200d8008000780073
:108fd0001e009000808040006e0090002200200063
:108fe000811f7800110009000200d80001017800fb
:108ff000cf007800808050004e009000010878007b
:1090000010002000700798007e0090004f04780048
:109010000080fa00000006000200fa00000f78004d
:109020009e0078000040eb00804878009e007800a9
:109030000080eb00900098009e0078000080eb001c
:10904000a00098009e0078000000eb00b00098009f
:109050009e007800c0122000c00098000080fa0036
:10906000000006000800fa00200798003107980069
:109070003e0190008000eb002e0090009efe070055
:10908000100798001e0090000000e000160032005b
:109090000000eb00000f7800100037001e00780081
:1090a000800078002e009000808140001e00780033
:1090b000800078002e009000008040001040780072
:1090c0000080fb006a00b9001e0190001100090039
:1090d0000200d800804978001e0fe8003e00900092
:1090e0009e0f1000edff35000080fa000000060022
:1090f0001200fa0050079800610798007207980064
:10910000e60047000e80e800fe0190006e0190002e
:10911000abfe070010479800e800470064004700d6
:10912000fe0190006e01900031ff0700004f7800b3
:109130001e409000e14f400006003a0000c0eb00e6
:109140009e4f100003003a000080eb00000f9800d3
:10915000320037001e409000e14f50000c003a00f2
:1091600000c0eb009e4f100009003a009e009000e6
:109170005e00900011009800be0090005e0090001c
:109180002100980010002000000f980023003700f5
:109190001e409000e14f40000c003a0010c0b300a8
:1091a0009e4f100009003a00ae0090005e00900053
:1091b00011009800ce0090005e0090002100980001
:1091c00010002000000f9800140037009e0090004f
:1091d0002e009000008040002200200011000900b5
:1091e0000200d800800078005e0090001100980016
:1091f000be0090004e009000008040002200200041
:10920000110009000200d800800078005e00900084
:109210002100980010002000000f98000e08900018
:109220000080fa00000006000a00fa0040079800db
:109230000000eb00300798000000eb0020079800ca
:10924000300220001007980060002000000f780016
:109250004e009000100090009e009000110007004a
:10926000300798004e009000200090009e0078008b
:109270007a000700200798004e009000be00900082
:10928000310098004e009000ae0090004100980020
:10929000ae0090003e0090000df807000080fa003c
:1092a000000006001000fa00889fbe0060079800ca
:1092b000710798002003200050079800d0cc2c00a4
:1092c000c1dc2300300798004107980030002000df
:1092d00020079800de0090006e0090000080500093
:1092e000100798001e009000cf80de00a9e0070064
:1092f0003e019000ce01900030e107000004be0066
:109300002e009000cf80de00a2e007000001be002a
:109310000800be00e7e0070062c8800073c8800054
:109320005be1070060c8880071c888001e009000db
:10933000cf80de0097e0070062c8800073c880001d
:1093400053e107000004be007e009000cf80de00e5
:1093500090e007000001be000800be0017e1070012
:10936000b0e10700000f7800703e20009e0f100053
:109370001a003400703e20007e01900011000900a8
:109380000200d800800078001e009000008050008d
:10939000cf80de007fe0070060c8880071c88800c9
:1093a00060c8800071c880000200200003272400ec
:1093b000bfe107000000e00001003c0004003700ae
:1093c000000020000127240060c8880071c88800c0
:1093d000703e2000000f78001c00370080c12f0075
:1093e0009e0f100019003c0090c12f007e019000dc
:1093f000110009000200d800800078001e009000d3
:1094000000804000cf80de0062e0070060c8880076
:1094100071c8880060c8800071c880000200200008
:1094200003122c00a0e107000000e000010035005d
:10943000040037000000200001122c0060c88800e2
:1094400071c8880090c12f00000f78001e007800be
:109450004f04be000080fa00000006000a00fa0077
:1094600030079800410798000000eb0020079800a3
:109470000000eb0010079800ae0090003e00900046
:10948000008f50009e0078004e0090000088b900c8
:10949000100798009e009000703e2000808f5000c2
:1094a00003003400703e20001007980006003700cb
:1094b0009e00900080c12f00808f500002003c0071
:1094c00090c12f00100798001e0090000080fa0045
:1094d000000006000000fa006000b80060c88800c4
:1094e00071c888000080fa00000006003400f8000f
:1094f000881f780008c0b300a80188004f047800d6
:109500000000fa0086c0a9001fe1a80021e1a9001f
:109510000080fa003400f900004006000000fa0064
:1095200020002000000988000000eb00c00888002f
:1095300010002000e008880086c0a9008ec0a800a6
:1095400021e1a8000080fa00000006000000fa00f7
:1095500020002000f008880040a18000a0088800ba
:1095600040a180000000e800d008880086a0a90083
:109570001fe1a9008ea0a8000080fa0000000600ec
:109580000200fa00000f78000000eb0070a18800d4
:109590001e00780050a188000000eb0060a1880048
:1095a000eaff0700ddff07000080fa000000060068
:1095b0001200fa00300798004107980052079800ff
:1095c00063079800740798000000eb0010079800ec
:1095d000ce0090005e0090000088b9008000780006
:1095e0006e0090000000e8000088b9000000e8006c
:1095f00080007800a0142000808f50000300360007
:109600000080eb00000f9800350037000000eb00f1
:1096100020079800230037000000eb00000f7800bf
:10962000090037009e009000204321008080400008
:1096300010c0b300804878001e0090000000e800d1
:10964000100798001e0fe8005e0090009e0f1000ab
:10965000f4ff35000000eb00000f78000900370030
:109660009e00900020432100808040000040eb00dd
:10967000804878001e0090000000e8001007980065
:109680001e0fe800ee0090005e0090000088b90018
:109690009e0f5000f2ff3c002e0090000000e800fa
:1096a00020079800ae0090004e009000808f500080
:1096b000d9ff35009e0090002043210080804000ab
:1096c00020c0b300804878007e00900040a1880050
:1096d0003e00900080a188000000eb00000f980081
:1096e0000e0890000080fa00000006000000fa005a
:1096f00060a180000080fa00000006002200fa004d
:1097000070079800010f9800120f9800230f98001f
:10971000340f9800450f9800560f98007e00900077
:10972000200db000700798000e0890006700400000
:10973000000f98004e0890000000e0000300320087
:109740003e0890000000e00003003a000080eb00bb
:10975000600f980004013700fe0090001e08900082
:109760008080400020352000808f500003003600ac
:109770008080eb00610f9800fb0037008e0890009e
:109780002e08900080804000701e2000808f5000c6
:10979000030036000080eb00600f9800f2003700f5
:1097a0001e0890003e099000110009000280d800b8
:1097b0008000fd000000e000030032008080eb002c
:1097c000610f9800e80037002e0890004e099000c5
:1097d000110009000280d8008000fd000000e000b8
:1097e000030032000080eb00600f9800de003700bd
:1097f0004e089000630060000000e00033003a0073
:109800003e089000630060000000e0000f003a0096
:1098100030032000000f78004e0890004200de0068
:10982000200798003e0890004200de0010079800d4
:109830000e08900064005000000f98007e00900019
:109840006400500070079800500037003e089000f8
:10985000610060000000e0000f003a0010012000ed
:10986000000f78004e0890000000d10020079800fb
:109870003e0890000000d100100798000e089000ec
:109880000080e900000f98007e0090000080e90051
:10989000700798003d00370040042000000f78005a
:1098a000ce089000210798003e089000100798000d
:1098b0000e0890000000e900000f98007e00900064
:1098c0000000e90070079800300037004e08900053
:1098d000610060000000e00020003a003e089000b7
:1098e000610060000000e0000f003a00100120005d
:1098f000000f78004e0890000000d100200798006b
:109900003e0890000000d100100798000e0890005b
:109910000080e900000f98007e0090000080e900c0
:10992000700798001900370040042000000f7800ed
:10993000ce089000210798003e089000100798007c
:109940000e0890000000e900000f98007e009000d3
:109950000000e900700798000c0037004004200068
:10996000000f7800be089000110798004e08900084
:10997000200798000e0890000000e900000f9800f2
:109980007e0090000000e900700798001e00900023
:109990000000e900500798002e0090000000e90048
:1099a000600798001e0890003e0990001100090011
:1099b0000280d800400798002e0890004e099000c1
:1099c000110009000280d800300798005e0890005e
:1099d000f00007000000e000030032008080eb0090
:1099e000610f9800600037001e0078000801070032
:1099f0000000e000030032000080eb00600f9800e0
:109a0000590037005e0890000000e00017003a009f
:109a10009e007800710f980030032000fe0890002f
:109a2000808f50000e00320040042000fe0890009d
:109a3000808f5000040032007e089000f10f50002b
:109a4000040032001f00370000032000050107005a
:109a50001c00370000022000020107001900370037
:109a60000000eb00ff000700160037009e007800a2
:109a700001179800300320008e109000808f500056
:109a80000e003200400420008e109000808f5000a5
:109a9000040032000e109000f10f5000040032005c
:109aa0000800370000042000ee0007000500370022
:109ab00000032000eb000700020037000002200036
:109ac000e8000700313520007e0090000801070003
:109ad0000000e000030032008080eb00610f98007e
:109ae00021003700811e20000e0890002b01070086
:109af0000000e000030032000080eb00600f9800df
:109b0000190037007e0090000001e800711e20005f
:109b10000e089000490107000000e0000300320039
:109b20008080eb00610f98000f0037005e08900006
:109b300010000700000178006e029000de01900026
:109b4000ce0090003e00900099fe07000000e0006b
:109b5000030032000080eb00600f98000200370025
:109b60008000eb00610f98006e0890000080fa0002
:109b7000000006000600fa00000f78001e007800c2
:109b8000200798002e009000e10f50000a003200dc
:109b90002e009000e20f50000a0032002e009000cc
:109ba0000000e00001003200090037001000200032
:109bb00010079800080037002000200010079800c8
:109bc0000500370020002000100798000200370031
:109bd00010002000100798001e0090000080fa007e
:109be000000006000200fa0066e90700faea070032
:109bf000d1a2a90040062000000f78000200370023
:109c0000000000001e0fe9001e00e000fcff3a000b
:109c1000d1a2a80040062000000f78000200370003
:109c2000000000001e0fe9001e00e000fcff3a00eb
:109c300081e0a900f1048000f0002f008080600026
:109c40000066200000804000f00488000080fa00d8
:109c50000000060000a0fe0086a0a9001421ef006d
:109c60000000000051a180002243210013002000c9
:109c7000321ce10005003200080035000000000041
:109c80000000000000000000f9ff3700a01680006f
:109c90004800de0080587800f5ff370051a18800a9
:109ca0002e34ec0070a180003014e30003003a0071
:109cb0001000200060a188001fe1a9000080fe00c4
:109cc000004006000200fa00c7ea07000000eb00af
:109cd000000f78000d0037009e00e800c0662100ec
:109ce0000080400010407800004178009e0078001d
:109cf000c06621000080400010407800804078005d
:109d0000c0cdb300e4ea07001e8fe8009e00780093
:109d1000700d2000808f5000efff3600b6ea07007c
:109d20000080fa00000006000200fa00881f780098
:109d3000adea07000000eb00000f78000d003700cf
:109d40001e04e8009e007800c066210000804000ec
:109d50001040780080407800c0cdb300aaea070028
:109d600080407800c066210000004400014878006f
:109d70001e8fe8009e007800700d2000808f50003c
:109d8000efff36009cea07004f0478000080fa00dd
:109d9000000006000600fa00000f78001e007800a0
:109da000200798002e009000e10f50000a003200ba
:109db0002e009000e20f50000a0032002e009000aa
:109dc0000000e0000100320009003700c0c0b3000d
:109dd000aff6b7000900370080c0b300aff6b70098
:109de0000600370020c0b300aff6b700030037000d
:109df0000080eb0010079800020037000000eb0025
:109e0000100798001e0090000080fa000000060075
:109e10000400fa00000f7800400420009e0f10009c
:109e200006003200100120009e0f100003003200d7
:109e3000300320009e0f100005003a001e0078003d
:109e40009ff6b7000000eb001007980002003700f3
:109e50000080eb00100798001e0090000080fa00c0
:109e6000000006000400fa00000f78001e00e00069
:109e700015003200000220009e0f10001200320078
:109e8000000320009e0f10000f003200000420008d
:109e90009e0f10000c003200000520009e0f1000e5
:109ea00009003200000620009e0f1000060032005c
:109eb000000620009e0f1000030032000001200069
:109ec0009e0f100005003a001e00780099f6b700ba
:109ed0000000eb0010079800020037000080eb0044
:109ee000100798001e0090000080fa000000060095
:109ef0000a00fa002007980031079800ae00900091
:109f00003e009000808f5000030039000080eb007d
:109f1000400798001e003700be0090003038200037
:109f2000808f5000030036000080eb00400798004f
:109f3000170037002e0090000000e900200798006d
:109f40002e009000204798002e0090004800de0070
:109f5000304798003e009000004f78003e0090008f
:109f60004800de00104798003e40900075f6b700ac
:109f70002e40900077f6b7001e4090007df6b700a7
:109f80001e4078007ff6b7000000eb004007980005
:109f90004e0090000080fa00000006000a00fa005f
:109fa0002007980031079800ae0090003e00900016
:109fb000808f5000030039000080eb0040079800bc
:109fc0001b003700be009000301f2000808f500023
:109fd000030036000080eb004007980014003700b3
:109fe0002e009000204798002e0090004800de00d0
:109ff000304798003e009000004f78003e009000ef
:10a000004800de00104798003e40900079f6b70007
:10a010002e4090007bf6b7001e40900081f6b700fe
:10a020001e40780083f6b7000000eb004007980060
:10a030004e0090000080fa00000006000e00fa00ba
:10a04000300798004107980052079800be00900022
:10a050004e009000808f5000030039000080eb001c
:10a06000600798002b003700ce009000301f2000c2
:10a07000808f5000030036000080eb0060079800de
:10a0800024003700de00900030382000808f500020
:10a09000030036000080eb00600798001d003700c9
:10a0a0003e009000404798003e0090004800de00cf
:10a0b000504798004e009000204798004e009000b6
:10a0c0004800de00304798005e009000104798007e
:10a0d0005e0090004800de00004f78005e40900077
:10a0e000fdf6b7004e409000fff6b7003e409000ee
:10a0f00001f7b7002e40900003f7b7001e4078002c
:10a1000005f7b7001e40900007f7b7000000eb000e
:10a11000600798006e0090000080fa0000000600c2
:10a120000600fa0010079800210798001e00900012
:10a130000000e000060032002e0090000000e00069
:10a1400003003200a0ccb300004f78000e003700af
:10a150001e0090000000e00003003200a0c4b30025
:10a16000004f7800080037002e0090000000e0004b
:10a1700003003200a0c8b300004f7800020037008f
:10a18000a0c0b300004f78001e4078009bf6b700d7
:10a190000080fa00000006000600fa002047980040
:10a1a000314798000000eb00000f780010003700e6
:10a1b0009e007800c066210000804000904078003a
:10a1c0002e40900080cf500008003a001e00e800aa
:10a1d000c166210001004000be40900001487800a7
:10a1e0000000eb0020079800070037001e8fe800f2
:10a1f0009e007800700d2000808f5000ecff36002c
:10a200008080eb00210798002e0090000080fa006b
:10a21000000006000800fa00204798002107980077
:10a220000000eb00000f7800110037009e0078005e
:10a23000c066210000804000904078002e409000d1
:10a2400080cf500009003a009e00e800c06621005f
:10a2500000804000904078002e0090000148780077
:10a260000000eb0030079800070037001e8fe80061
:10a270009e007800700d2000808f5000ebff3600ac
:10a280000080eb00300798003e0090000080fa004c
:10a29000000006000200fa00004f78001147980005
:10a2a0001e40900085f6b7001e40780087f6b70084
:10a2b0000080fa00000006000800fa00004f780055
:10a2c0001147980022479800334798004447980068
:10a2d000f0c4b3009e4f1000030036000080eb0076
:10a2e000300798000c0037001e40780089f6b70050
:10a2f0001e4090008bf6b7002e4090008df6b70000
:10a300004e4090008ff6b7003e40900091f6b700a7
:10a310000000eb00300798003e0090000080fa003b
:10a32000000006000400fa00008fbe001e00be0000
:10a330004a09dd004600de0000007100c608de00ac
:10a3400095f6b7001e00be004209dd004e00de009b
:10a3500000007100ce08de0093f6b7000040eb006d
:10a3600097f6b7000080fa00000006000200fa002d
:10a37000004f78001e407800a1f6b7000080fa0078
:10a38000000006000200fa00000f78001e00e00046
:10a3900005003200b1d6bf0001c8b3000140700013
:10a3a000b1f6b70003003700b1d6bf000074a100ba
:10a3b000b1f6b7000080fa00000006000400fa00c1
:10a3c000004f780011479800224798001e407800ff
:10a3d000b5f6b7001e409000b7f6b7002e409000cb
:10a3e000b9f6b7000080fa00000006000200fa008b
:10a3f000004f7800114798001e4078007f406000b1
:10a400000045b000bbf6b7001e409000bdf6b70097
:10a410000080fa00000006000600fa00100798000d
:10a42000414798004e4090000000fb006300600030
:10a430004500dd008040780000c8b30000c0400047
:10a4400043f7b7000000eb00000f78000d00370065
:10a450001e0078000000400032052000000141008d
:10a460001e007800800078001e00900000804000f0
:10a4700090407800c066210000004100014878004b
:10a480001e0fe8001e007800e10f5000f0ff3600bc
:10a490000080fa00000006000000fa00d2e8070081
:10a4a00043d7bf000041780042d7bf00804078000a
:10a4b000c0cdb300f8e80700cfe80700416d2100e8
:10a4c00091407800bed6bf00020007000080fa006d
:10a4d000000006000600fa00404798005147980027
:10a4e0000000eb00000f7800bfe807000000eb0061
:10a4f000100798001f0037009e009000c0662100e2
:10a5000000804000904078004e40900080cf500086
:10a51000150039009e009000c066210000804000b8
:10a52000904078005e40900080cf50000e003e00ca
:10a530001e0090008000e800c066210000804000fe
:10a5400010407800004178009e009000c066210015
:10a55000008040001040780080407800c0cdb300fb
:10a56000cde807001e0fe8001e0090000080e80004
:10a57000100798009e009000700d2000808f500002
:10a58000ddff36009ce807001e0078000080fa001e
:10a59000000006000400fa00100798000000eb001d
:10a5a000000f78000d0037001e007800000040000a
:10a5b000b2062000000141001e00780080007800f3
:10a5c0001e0090000080400090407800c06621008e
:10a5d00000004100014878001e0fe8001e007800ce
:10a5e000e10f5000f0ff36000080fa000000060086
:10a5f0000200fa00004f7800114798001e407800d2
:10a60000e9f6b7001e409000ebf6b7000080fa00b4
:10a61000000006000200fa00004f78001147980081
:10a620001e407800edf6b7001e409000eff6b70030
:10a630000080fa00000006000200fa00004f7800d7
:10a64000114798001e407800f1f6b7001e409000b8
:10a65000f3f6b7000080fa00000006000200fa00de
:10a66000004f78001e80fb004400dd006f4040007a
:10a6700009f7b7000080fa00000006000200fa00a7
:10a68000004f7800114798001e80fb004400dd0059
:10a69000804078001e4090006f40600000c0400085
:10a6a0000bf7b7000080fa00000006000200fa0075
:10a6b000004f7800114798001e4090000080fb007a
:10a6c0004400dd00804078001e4078006f4060004c
:10a6d00000c040000df7b7000080fa00000006003f
:10a6e0000400fa00008fbe001e00be004088de009d
:10a6f000cf80de000ff7b7001e00be004809dd0066
:10a700004800de0000007100c888de0011f7b700c5
:10a710001e00780013f7b7000080fa000000060062
:10a720000200fa00004f78001e40780015f7b700cd
:10a730000080fa00000006000400fa00000f780014
:10a74000110798001e0078004800de001bf7b700d4
:10a750001e0078001df7b7001e0090004800de00c4
:10a760001ff7b7001e00900021f7b7000080fa0025
:10a77000000006000600fa00004f7800114798001c
:10a78000224798003347980044479800554798005f
:10a790002e40900023f7b7003e40900025f7b70009
:10a7a0001e40780027f7b7001e40900029f7b70039
:10a7b0004e4090002bf7b7005e4090002df7b70099
:10a7c0000080fa00000006000a00fa00000f78007e
:10a7d000110798002207980033079800200d2000e9
:10a7e0001e0f40001e009000200db00010079800c2
:10a7f0002e00900067004000200798003e00900067
:10a8000067004000300798009e009000203520002f
:10a81000808f5000030036000080eb004007980056
:10a8200039003700be009000701e2000808f50005d
:10a83000030036000080eb0040079800320037002c
:10a840001e0090009e0f100004003100ae0090002a
:10a850003e009000808f5000030039000080eb0024
:10a860004007980028003700501a20009e0f100063
:10a870000c0036009e00900090272000808f500032
:10a8800008003e00ae009000700a2000808f50004b
:10a8900004003600be00900060142000808f50003d
:10a8a000030036000080eb004007980016003700d8
:10a8b0001e0078004800de002ff7b7001e00780069
:10a8c00031f7b7001e0090004800de0033f7b700f4
:10a8d0001e00900035f7b7002e0090004800de0003
:10a8e00037f7b7002e00900039f7b7003e00900010
:10a8f0004800de003bf7b7003e0090003df7b70090
:10a900000000eb00400798004e0090000080fa0025
:10a91000000006000600fa001007980021079800c2
:10a920001e0090000000e000060032002e009000a3
:10a930000000e00003003200c0c3b300004f780005
:10a940000e0037001e0090000000e00003003200ff
:10a95000c0c2b300004f7800080037002e009000fe
:10a960000000e00003003200c0c1b300004f7800d7
:10a9700002003700c0c0b300004f78001e407800ce
:10a980003ff7b7000080fa00000006000200fa005e
:10a99000000f78001e00e00005003200a3d6bf00c3
:10a9a000f1c7b30001406000a3f6b7000400370010
:10a9b000a3d6bf0001c8b30001407000a3f6b700e2
:10a9c0000080fa00000006000400fa00000f780082
:10a9d000110798001e00e00005003200a3d6bf005a
:10a9e000f1cbb30001406000a3f6b70004003700cc
:10a9f000a3d6bf0001c4b30001407000a3f6b700a6
:10aa00001e0090000000e00005003200a3d6bf0049
:10aa1000f1cdb30001406000a3f6b7000400370099
:10aa2000a3d6bf0001c2b30001407000a3f6b70077
:10aa30000080fa00000006000a00fa0099d6bf0064
:10aa40000080fb004007980000032000ce0090002b
:10aa5000808f50003100320000032000ce009000b3
:10aa6000808f50000b003c004e009000f00f500013
:10aa70002200320000022000ce009000808f5000a3
:10aa8000220032004e0090000000e000170032006b
:10aa90003600370000052000ce009000808f500067
:10aaa0002600320000052000ce009000808f50006c
:10aab00005003c0000042000ce009000808f500074
:10aac0001a0032002900370000062000ce00900056
:10aad000808f50001d00320000072000ce00900043
:10aae000808f50001d003200200037000000280039
:10aaf00001072000008fbe0020003700000020006a
:10ab000061092000008fbe001c00370000002400f7
:10ab100081032000008fbe001800370000002200d3
:10ab2000c1012000008fbe0014003700000021008a
:10ab3000e1002000008fbe001000370000802000e0
:10ab400071002000008fbe000c003700004028007c
:10ab500031002000008fbe000800370000202c00cc
:10ab600011002000008fbe00040037006000b80014
:10ab700020079800310798000a003700afd6bf00c1
:10ab8000ec4f500004003a001e00be0000004000e0
:10ab900081804800008fbe001e00be002007980084
:10aba000310798002e009000be0090000080fa004f
:10abb000000006001000fa002007980031079800f6
:10abc0004207980053079800640798005e009000c1
:10abd0000000e000030035005e009000e30f50002d
:10abe000030034000080eb00700798004c00370031
:10abf0006e0090000000e000030035006e00900041
:10ac0000e30f5000030034000080eb007007980051
:10ac10004300370088ff07000001be00606a200083
:10ac20000013b8006010b90007027800000242006b
:10ac3000606a20000098b900000242008403780096
:10ac40002e0090006101b9000600be009adb0700eb
:10ac50001007980078ff07000001be00606a20001e
:10ac60000013b8006010b90007027800000242002b
:10ac7000606a20000098b900000242008403780056
:10ac80003e0090006101b9000600be008adb0700ab
:10ac9000000f78001e0090004800de00a7f6b70005
:10aca0001e009000a9f6b7001e0078004800de00e4
:10acb000abf6b7001e007800adf6b7004e0090006e
:10acc0000000e00004003200a3d6bf000044a00052
:10acd000a3f6b70004003700a3d6bf00f1ceb3003f
:10ace00001406000a3f6b7006e009000e3406000f2
:10acf0005e009000630060004200dd0000c1400083
:10ad0000a3d6bf008040780000cfb30000c0600031
:10ad100000404100a3f6b7000000eb007007980068
:10ad20007e0090000080fa00000006001000fa008b
:10ad300060079800710798000000eb00500798002a
:10ad40006000b80030079800410798006000b80024
:10ad500010079800210798000000eb0050079800aa
:10ad60002f0037005e0090004200dd008000780078
:10ad70006e00900000804000100178005e0090009e
:10ad80004200dd00800078006e00900000804000ee
:10ad9000100078000090b900800178005e009000fb
:10ada0004200dd00800078006e00900000804000ce
:10adb000100190005e0090004200dd0080007800ed
:10adc0006e00900000804000100090000090b900dc
:10add00000804100cf80de00100798002107980016
:10ade0001e019000ae0190003e009000ce00900049
:10adf000800f5100818f5900060034005e009000e2
:10ae0000000f78001e009000ae0090003007980000
:10ae1000410798005e0090000000e800500798008d
:10ae20007e00900022002000110009000200d800de
:10ae3000800078005e009000808f5000c9ff3c00c9
:10ae40001e0078000080fa00000006000600fa00ec
:10ae5000000f7800110798001e0090000000e0002d
:10ae6000040035009e009000f0072000808f500005
:10ae7000030034000000eb002007980015003700a5
:10ae80001e0090004200dd001e004000900078008f
:10ae90001e0090004200dd001e00400010007800ff
:10aea0000088b900000178001e0090004200dd001b
:10aeb0001e004000900090001e0090004200dd0047
:10aec0001e004000100090000088b9000001410001
:10aed000220798002e0090000080fa000000060073
:10aee0000200fa00000f78007ff2070050002000f7
:10aef0009e0f100007003400300120009e0f10004c
:10af000004003c00110020004000200025f1070053
:10af100048003700300120009e0f10000d00340063
:10af2000100320009e0f10000a003c0011002000ba
:10af3000400020001bf1070011002000300020001d
:10af400018f10700110020005000200015f1070043
:10af500038003700100320009e0f1000130034004b
:10af6000700c20009e0f100010003c00110020000b
:10af7000400020000bf107001100200030002000ed
:10af800008f10700110020005000200005f1070023
:10af9000110020002000200002f107001100200015
:10afa00060002000fff00700220037003001200081
:10afb0009e0f100019003400b01220009e0f1000e8
:10afc00016003c001100200040002000f5f00700b2
:10afd0001100200030002000f2f0070011002000d6
:10afe00050002000eff0070011002000200020009a
:10aff000ecf007001100200060002000e9f00700dd
:10b000001100200010002000e6f0070011002000d1
:10b0100070002000e3f0070006003700b0122000a7
:10b020009e0f10000300340011002000800020005b
:10b03000dcf007000080fa00000006000600fa00bd
:10b04000000f78001e0078006101b900800e280012
:10b050000012b8006010b900050378000003430037
:10b06000800e28000098b900000343008602780093
:10b0700014079800250798001e009000ae0090006d
:10b08000e00f5000e08f580006003d001e019000c8
:10b09000ae019000f20fb0000380b00012079800dc
:10b0a000230798001e019000ae019000481add00b1
:10b0b0004810de0000007200c898de000080fa0030
:10b0c000000006000200fa00000f7800303820006f
:10b0d0009e0f100004003c00810c2000c0122000d4
:10b0e0007bf007000a003700807020009e0f1000e0
:10b0f0000400340081f32f00c012200074f0070018
:10b10000030037008000eb000019200070f00700fa
:10b110000080fa00000006000600fa0019e40700ab
:10b12000e8ef0700f8ed070010c0b3007dea070064
:10b130008000eb000019200065f0070000003700d8
:10b140008aec070084ec07000004e000fdff3200f9
:10b150008aec07006080200082002000011020009f
:10b160002a00070001c0210060802000021020009a
:10b17000350007007dec070000c021001400070027
:10b180000110200000c02100e8fe07001007980011
:10b190009e00900000c021002cff070020079800af
:10b1a0002e0090004eff0700ae00900040062000e9
:10b1b000808f5000e2ff34001e0090009fff0700c8
:10b1c000000f78001e007800beff0700dcff37008c
:10b1d0000200fa00000f78000000200080007800d4
:10b1e00000c02d0000017800810178009e007800e9
:10b1f0008000200042dd07009e00780080002000d3
:10b200007bdd07000080fa0000000600801f780048
:10b210001201c3008100e900018009003000c9006b
:10b220000200c800230180004f007800801f7800d2
:10b23000018008000100000010027800031852008d
:10b240004f007800000006000201e9000500200020
:10b250000280080001000000b0187800851878000e
:04b2600000000600e4
:020000040000fa
:0200000401f009
:04000000e6ff000017
:020000040000fa
:0200000401f009
:04000400ff7f00007a
:020000040000fa
:0200000401f009
:040008007fff000076
:020000040000fa
:0200000401f009
:04001400ffff0000ea
:020000040000fa
:1000080032590000325900003259000032590000bc
:1000180032590000325900003259000032590000ac
:10002800325900003259000032590000325900009c
:1000380032590000325900003036000032590000b1
:10004800325900007a210000b6210000622e00001b
:100058003259000032590000c2270000325900000e
:10006800325900003259000032590000325900005c
:10007800325900002a4e0000764a0000325900002a
:10008800325900003259000032590000325900003c
:10009800325900003259000032590000325900002c
:1000a800325900003259000032590000325900001c
:1000b800325900003259000032590000325900000c
:1000c80032590000762300003259000032590000ee
:1000d80032590000325900003259000032590000ec
:1000e80032590000325900003259000032590000dc
:0800f8003259000032590000ea
:020000040000fa
:1001080032590000325900003259000032590000bb
:1001180032590000325900003259000032590000ab
:10012800325900003259000032590000325900009b
:1001380032590000325900003036000032590000b0
:10014800325900007a210000b6210000622e00001a
:100158003259000032590000c2270000325900000d
:10016800325900003259000032590000325900005b
:10017800325900002a4e0000764a00003259000029
:10018800325900003259000032590000325900003b
:10019800325900003259000032590000325900002b
:1001a800325900003259000032590000325900001b
:1001b800325900003259000032590000325900000b
:1001c80032590000762300003259000032590000ed
:1001d80032590000325900003259000032590000eb
:1001e80032590000325900003259000032590000db
:0801f8003259000032590000e9
:020000040000fa
:10b400005374000061720000746900006e670000f0
:10b410002077000069740000682000007365000058
:10b420006c650000637400006f7200002070000003
:10b430006f73000020250000640d00000a0000006a
:10b4400000000000000000000000000000000000fc
:10b4500000000000000000000000000000000000ec
:10b4600000000000000000000000000000000000dc
:10b4700000000000000000000000000000000000cc
:10b80000ff7f000000000000f67f0000dcfc00006d
:10b81000d97f0000b8f90000a77f000095f600006e
:10b82000627f000074f300000a7f000055f0000002
:10b830009d7e000038ed00001e7e00001eea000024
:10b840008a7d000007e70000e47c0000f4e30000cc
:10b850002a7c0000e6e000005d7b0000dcdd0000eb
:10b860007d7a0000d8da00008a790000d9d700007c
:10b8700084780000e1d400006c770000efd1000074
:10b880004276000004cf00000575000021cc0000c6
:10b89000b673000046c900005572000073c6000070
:10b8a000e3700000a9c300005f6f0000e9c0000062
:10b8b000ca6d000032be0000246c000085bb000091
:10b8c0006e6a0000e3b80000a76800004cb60000f4
:10b8d000cf660000c0b30000e864000040b1000083
:10b8e000f2620000ccae0000ec60000065ac00002d
:10b8f000d75e00000aaa0000b45c0000bda70000eb
:10b90000825a00007ea50000435800004ca30000ae
:10b91000f655000029a100009b530000149f000071
:10b92000345100000e9d0000c04e0000189b000026
:10b93000404c000031990000b449000059970000c4
:10b940001d470000929500007b440000dc9300003e
:10b95000ce41000036920000173f0000a190000089
:10b96000573c00001d8f00008d390000ab8d00009a
:10b97000ba3600004a8c0000df330000fb8a00006a
:10b98000fc300000be890000112e000094880000e9
:10b990001f2b00007c87000027280000768600000f
:10b9a000282500008385000024220000a3840000d5
:10b9b0001a1f0000d68300000b1c00001c8300002f
:10b9c000f918000076820000e2150000e381000013
:10b9d000c812000063810000ab0f0000f780000078
:10b9e0008c0c00009e8000006b0900005980000054
:10b9f0004806000028800000240300000a800000a0
:10ba00000000000000800000dcfc00000a80000054
:10ba1000b8f900002880000095f600005980000069
:10ba200074f300009e80000055f00000f7800000d5
:10ba300038ed0000638100001eea0000e381000091
:10ba400007e7000076820000f5e300001c83000099
:10ba5000e6e00000d6830000dcdd0000a3840000e7
:10ba6000d8da000083850000d9d700007686000070
:10ba7000e1d400007c870000efd100009488000032
:10ba800004cf0000be89000021cc0000fb8a00002a
:10ba900046c900004a8c000073c60000ab8d000050
:10baa000a9c300001d8f0000e9c00000a1900000a4
:10bab00032be00003692000085bb0000dc9300001f
:10bac000e3b80000939500004cb600005a970000c0
:10bad000c0b300003199000040b10000189b000085
:10bae000ccae00000e9d000065ac0000149f00006d
:10baf0000aaa000029a10000bda700004ca3000075
:10bb00007ea500007ea500004ca30000bda700009c
:10bb100029a100000aaa0000149f000065ac0000e3
:10bb20000e9d0000ccae0000189b000040b100004c
:10bb300031990000c0b300005a9700004cb60000d5
:10bb400093950000e3b80000dc93000085bb000083
:10bb50003692000032be0000a1900000e9c0000053
:10bb60001d8f0000a9c30000ab8d000073c600004c
:10bb70004a8c000046c90000fb8a000021cc00006e
:10bb8000bf89000004cf000094880000efd10000be
:10bb90007c870000e1d4000076860000d9d7000041
:10bba00083850000d8da0000a3840000dcdd0000fb
:10bbb000d6830000e6e000001c830000f5e30000ef
:10bbc0007682000007e70000e38100001eea000023
:10bbd0006381000038ed0000f780000055f00000a0
:10bbe0009e80000074f300005980000095f600006c
:10bbf00028800000b8f900000a800000dcfc00008a
:020000040000fa
:10bc000006000000260000001f00000012000000d7
:10bc100027000000180000001c0000002d0000009c
:10bc200041000000fd000000e500000032010000be
:10bc30008b0200001e0200004400000024ff0000f0
:10bc4000b8fe0000bdfe00003dff000027ff000021
:10bc50003dfe000026fe00009efc0000dcf9000016
:10bc60003bfe0000c908000044100000d60e000092
:10bc70009405000033fb00005ff600008ff7000022
:10bc80008afa00008afb0000a3fa0000a1fb000072
:10bc900021010000e7080000a60d00001a0c0000ba
:10bca000bb03000046fb0000a9f80000d3f9000028
:10bcb00037fd00004aff00005afe0000c3fd0000ef
:10bcc000d6ff0000f90300002c060000d801000098
:10bcd000d0f8000029f80000cf030000ff0f00009b
:10bce0007f110000d406000014f9000088f2000063
:10bcf000ddf5000006fd00007a0000009ffd000059
:10bd000059fa000033fd000016060000d30d0000b4
:10bd1000b20d0000ec04000025f9000007f500005a
:10bd20009bf8000020ff0000150300000001000048
:10bd3000adfd0000e6fd0000a7020000270700009f
:10bd40008703000013f7000027f100003dfd00000d
:10bd5000bd100000b41900009e100000f7fd0000a7
:10bd6000c3f00000d8f000003ff900003bff0000e6
:10bd7000b2fc000016f7000030f80000c601000019
:10bd8000a20d0000211300003a0d0000a5010000e3
:10bd9000acf8000082f5000006f9000051fd00003b
:10bda00048fd000002fb0000f7fa0000c9ff000098
:10bdb000d70600002e0700001afd00004bf6000019
:10bdc0002dff0000980f0000d21600009b0d000010
:10bdd000a4fb000013ef0000a5ef00005ff80000d7
:10bde00010ff00009efd000076f900007dfa0000c3
:10bdf00021010000390b0000b112000050100000ba
:10be00001006000049fa0000bbf20000edf300004c
:10be100083f9000095fc000066fc0000c6fb0000f2
:10be200015ff00003005000078040000befc000093
:10be300022fb00003006000051130000be1300007a
:10be4000bf050000a0f40000beec0000cbf0000035
:10be50003bf9000017fd00004ffa000009f900004f
:10be60007cfc00008e030000790d0000db12000056
:10be7000470e0000c7010000c8f40000b1ef000049
:10be8000e5f300002cfa000026fc00001dfb00007a
:10be9000d7fa00005e00000017060000d401000081
:10bea00011fa0000f6fc0000120c0000361700002a
:10beb0009511000010ff000067ee0000e5ea0000a9
:10bec0005ef200002afb000032fc0000abf800002c
:10bed00087f900007bfe000027080000981300008f
:10bee00000160000000d0000c8fd00004cf000002e
:10bef00057ed0000c0f30000e1f90000cffb0000a7
:10bf000077fa000065fc00001d04000098060000a0
:10bf1000ea00000094fd000044070000b414000093
:10bf20008d1400003204000080f0000075e800006d
:10bf300049ee00001df90000defd00009afa000045
:10bf4000f2f9000009fe0000ec0400007a0f000086
:10bf50007c1500000d1200004c050000ebf4000001
:10bf6000d3eb00000fef000015f70000e4fb00002a
:10bf7000d8fb0000d8fa00008d0100005c0700002b
:10bf800079050000ef010000450600006b1100007c
:10bf9000d1130000d40600006df3000041e9000059
:10bfa00040ed00005df8000088ff000070fd00001b
:10bfb0004bfc00005eff0000fe020000f1090000e3
:10bfc000dc110000fa1500000a0f0000d5fd00008a
:10bfd00021ee00002aeb0000e7f2000006fb000063
:10bfe000a4fd0000dffa000071fe000098050000cb
:10bff000cc0800008a0a0000b80b0000f50e000013
:10c00000d40d0000020300002af400008cec0000b4
:10c010009fef000020f8000077ff0000feff000007
:10c0200050010000ca030000ee01000010020000f1
:10c03000e7090000ab160000bd180000ff08000073
:10c04000daf20000b5e7000046ed00000df900004f
:10c05000a0ff00002cfc000085fa00008601000013
:10c0600060080000780f0000d9120000e8100000fe
:10c07000ae0a0000bffe0000daf2000031ee000060
:10c0800047f2000040f8000091fd0000f3fe0000c0
:10c09000c802000089080000940500002800000084
:10c0a000bf0100003a0f0000181a0000db11000069
:10c0b0000cfb00008ee800002ae800005ff400009e
:10c0c000deff00009bff0000bcfa000037fe00000e
:10c0d000fe030000eb0a0000d31000003c13000038
:10c0e000ea1000000c05000059f5000042ec0000c9
:10c0f0000fef000001f60000c1fb000026fc00006d
:10c10000d9fd000011060000b90800001108000068
:10c1100034070000850a000086100000630c000050
:10c12000c9fc00000aed0000cee90000bef10000ed
:10c13000fdfc0000530100005cff00000102000054
:10c14000af02000067020000190700002d0f000079
:10c15000e31500001c0f000057fc0000eceb000092
:10c16000c0e9000065f2000030fb00001dfd00008a
:10c1700016fa0000c4ff00004f0700003809000055
:10c18000070b0000a90b0000e90d0000950b000053
:10c1900065ff0000ebf00000ffea000058ef000030
:10c1a000c1f7000087fe0000b8fe00005d0200003d
:10c1b000b70600000a040000f7020000590600005c
:10c1c000ca0f0000251400003c0800002ff40000f6
:10c1d00050e80000d7eb0000a7f60000a7fe000023
:10c1e00024fd000006fc00002303000023060000dd
:10c1f000430700009d090000110e0000b611000069
:10c200004c09000040f800004deb000001eb00007d
:10c21000c6f2000032fb000078fd000085fd000042
:10c22000d4040000ff07000041070000cf08000011
:10c230000e0b0000f60e00007a0a0000b5fb0000ad
:10c24000d3ed0000e9ea0000fff1000027fb000049
:10c2500001000000b6fe00002d03000008070000ea
:10c2600058030000dc020000870700005f11000097
:10c270001014000081060000f5f20000ade8000097
:10c28000eeec00008bf70000f8fe000096fd0000c9
:10c29000f4fd0000c7050000d1070000e207000020
:10c2a00046090000900c000027100000c1080000a3
:10c2b00011f900009eec0000d1eb0000c4f3000077
:10c2c00047fd0000d1000000d4ff00003005000051
:10c2d0001807000097040000a60500008908000068
:10c2e000ab0e0000810e00005902000019f300009f
:10c2f00026ec00008ff00000f5f90000820000003d
:10c30000fefe0000deff00003c0500001a040000f5
:10c310002c030000bf060000330e0000891300004c
:10c32000fb0b0000cffa0000e0ec000072eb000015
:10c33000c3f3000016fd00008dff00005ffd00004c
:10c34000af020000d60700002f060000e60500003f
:10c3500039080000e00c0000640d0000da03000062
:10c36000daf50000dfed0000b3f0000038f900005e
:10c370001d000000fffe00002afd00004102000039
:10c380009d0300000a030000eb060000b70b00004d
:10c390001f0f0000fb0b000066ff0000baf2000058
:10c3a00083ef00006cf40000c2fa0000a5fc00005e
:10c3b0007bf900003bfc00008a05000096060000a7
:10c3c000c403000037060000310c00006d100000af
:10c3d000c00a0000b8fb000080ef000016ee00006d
:10c3e000e0f4000092fb00004cfc0000f1f80000bb
:10c3f000b2fd0000c50700004c0700000a03000062
:10c4000077040000540b00007d100000cc090000f0
:10c41000cbfa0000f9ef000099ef00001df60000d4
:10c4200040fb000068fa00005af700008afd000097
:10c430002e0800005808000017040000b104000096
:10c44000440a0000750e0000220900002dfc0000c7
:10c4500072f10000e1ef00005bf50000ccfa000093
:10c46000a4fb00007df90000e6fe0000d9070000f3
:10c47000e50600005602000080030000c909000024
:10c48000f30d0000dc09000001ff000081f5000051
:10c490000df2000028f40000a3f80000ccfa000020
:10c4a000b5f90000aefd000075060000e6060000cc
:10c4b00065010000c50100003d0a00003d110000bb
:10c4c000bd0e0000e901000093f4000077ef0000ca
:10c4d00062f200005ef8000069fa0000f9f800005e
:10c4e000ccfb00002d070000240d00008806000092
:10c4f0001b010000a7030000ba0800001d0c00008b
:10c50000650700009bfb00005ef20000def000000b
:10c5100054f7000074fe000031ff000046fb0000ed
:10c520006afe0000c0040000ec02000087ff00006b
:10c5300082040000090e0000aa120000530e000041
:10c54000a5000000e8f3000011ef0000e6f1000094
:10c55000a7f7000032fa000003fa0000a0fe000076
:10c56000450a0000f90c0000de02000024fd000076
:10c5700040040000490e0000da1000006e080000c0
:10c58000f7f90000d3f00000a0f00000f5f600007d
:10c59000dafc000072fd0000c0fb00005401000046
:10c5a000c50a0000180800004afe000030fd000027
:10c5b00026070000de1000009d1100002907000082
:10c5c000a1f800007bf0000003f20000d2f80000a8
:10c5d000c1fb0000faf90000f6f900007f0400003a
:10c5e000cb0e0000f6080000b9fd000063fe00005d
:10c5f000ec080000f40e0000510c00007402000072
:10c60000cef70000d6f200000bf5000088fa00001b
:10c61000c6fb0000bbf9000037fa00002905000046
:10c620001a0e000084050000f1f9000087fd0000eb
:10c63000c30c00001e150000580f00000d00000084
:10c64000d0f2000083ef000057f40000c2fa0000af
:10c6500009fb000091f80000e6fa0000e507000081
:10c6600037110000e205000067f60000eef8000058
:10c67000740b00009a170000b6110000ecff0000d8
:10c6800001f10000d2ee00004af500006efb000050
:10c69000fff9000037f6000076f900006c08000092
:10c6a00045140000eb08000002f50000aaf30000aa
:10c6b00002070000d91600003a130000f80100003c
:10c6c000baf20000dcf00000c8f70000edfc00004a
:10c6d000f1f90000e2f3000013f50000520300003e
:10c6e000e1120000550c00006af700001ff2000084
:10c6f000180500005819000054180000b00400008c
:10c7000047f0000036eb0000f0f30000bdfd000034
:10c710003bfe00006ff600008bf300005afe0000a5
:10c72000171200006d140000b0fd000037ec00008f
:10c7300004f7000036110000ac1b00007d0f000064
:10c7400005fa0000dced0000a2f200000afd000086
:10c75000b3ff000072f600000dee0000fcf30000d5
:10c760002f090000601a0000750d0000e5f10000bf
:10c77000c6eb0000d1030000491c0000ba190000fc
:10c780003403000013ef00003fee000020fb000028
:10c790002d03000042fc000031ee00006eec0000b2
:10c7a0006cfd000099160000e01a00009cfe0000dd
:10c7b00031e5000013ee0000bd100000e22400008f
:10c7c0009b160000d5f9000006ea000096f1000073
:10c7d000290100005e030000dbf4000075e70000a3
:10c7e000b6ee0000be070000881e0000ce16000056
:10c7f00016f300004ddf000070f40000e01a0000a6
:10c8000031260000b50d000023f00000d2ea000040
:10c81000cffc0000ed0a0000ac0100009cea000023
:10c8200069e00000dcf10000bf0f0000692000009b
:10c830002f100000afea0000cfdc0000fdf900007f
:10c8400019230000402b00007d0c0000afea00001f
:10c85000f3e8000021020000201100009100000018
:10c86000bae20000edd9000022f4000040180000f8
:10c8700038250000220e0000e2e5000034d9000057
:10c880003bf900000a2500008c2d00008a0d0000f5
:10c890008aeb000082eb0000da050000f8120000cd
:10c8a000e7fe000075df00004fd800008cf40000a8
:10c8b0007d180000ae220000420d00004ce900008f
:10c8c00097db00001ff7000094200000f22c00000e
:10c8d0003112000044f0000072eb00003a03000047
:10c8e0005b130000e902000015e30000c8d8000057
:10c8f000b9f1000099150000611f0000e00a000076
:10c9000086ef00008ce2000050ee00007f0a00007d
:10c9100093200000261f00008d0c000032fe000056
:10c9200097000000bc070000afff0000f0e8000027
:10c930001cda0000b2e5000039030000e617000031
:10c940001a140000f803000004f5000015ef0000c1
:10c9500087f90000760d00008b1800004d110000d3
:10c96000bc0100006dfc0000110600004c0c000032
:10c97000acff000061e900000fe000008ced00005a
:10c9800045050000c71100005b0c000090ff00008f
:10c9900042f300005cef000073fc0000a9100000ef
:10c9a000f9190000c01300008c080000d604000034
:10c9b000f40500001b00000070f000003de20000e4
:10c9c00057e4000095f60000260a00002d10000034
:10c9d000550900000501000046f80000acf2000017
:10c9e00099f900007b0b000051190000101600009f
:10c9f0003008000031000000b70200000903000009
:10ca0000cbf7000005e90000e9e4000043f1000075
:10ca100051040000d60d0000fd090000b3fd000028
:10ca200030f10000d0f2000021060000961800004e
:10ca3000d7170000c8070000b6fb0000cc000000bc
:10ca4000de0b000089080000def4000081e4000035
:10ca5000a5e9000032fd0000140a0000f605000000
:10ca60002efb000080f80000b7fa00008afa0000f0
:10ca7000f8fc000077080000d2130000dd11000070
:10ca8000d9060000750100002f070000070b000009
:10ca90004b0100004af0000098e800007cf1000023
:10caa000e2fe000049020000cafc000017fb000083
:10cab0007b0100000e03000058f800009cf100000c
:10cac000c5000000ed170000e31a0000240a000072
:10cad0005cfb0000c3fc000052080000440b000097
:10cae000d8fd0000d5ec000022ea000063f700004a
:10caf00019060000f50600008bfc000048f5000058
:10cb0000fef50000faf900007aff00007509000048
:10cb1000de1200008211000097060000f3ff000003
:10cb200041020000d902000036fb000055f200006f
:10cb3000c9f200000afe0000ed080000d607000060
:10cb4000dbfd000056f3000057f0000071fa000012
:10cb5000c40900004f0e00000e0600007aff00001e
:10cb60009a030000970b0000d609000011fb00009b
:10cb7000e8ec00000bee0000f4fb00002d090000c3
:10cb8000c80b0000fa0500006aff000026f800004c
:10cb900065f20000dcf70000b90600004612000054
:10cba000f91100005d090000b9030000de02000079
:10cbb000befe000081f30000c2e70000a7e700000e
:10cbc00080f6000001090000f60f0000230a0000b3
:10cbd000a101000075f80000e9f20000edf9000085
:10cbe000c60b00006a190000e4150000f7070000fa
:10cbf0002b000000c6020000f20200008ff70000c8
:10cc0000d8e80000fde400008ef10000910400006f
:10cc1000de0d0000da09000078fd000012f10000ce
:10cc200000f3000080060000be180000ab170000f3
:10cc300082070000a2fb0000ff000000f40b0000d0
:10cc40005808000086f400005fe40000e7e90000f7
:10cc50007dfd0000250a0000d10500000cfb00004e
:10cc600089f80000bafa000085fa000017fd0000fc
:10cc7000b0080000e8130000b8110000ae06000084
:10cc80007a0100004e070000000b000008010000c0
:10cc90000cf00000a2e80000adf100002dff000044
:10cca000ea020000eafc0000dcf90000b9ff000025
:10ccb0004f0200007df90000d8f300002d020000b3
:10ccc000f016000018180000a50800005dfd000027
:10ccd0004b000000730900003e09000069fc0000e1
:10cce00083ef000051ef00002ef90000bf000000ac
:10ccf0000cfe00001ef70000dff700008afe0000b7
:10cd000023ff0000cff900009bfd00007e0c000017
:10cd1000851400008e0b000051ff0000a1fe0000f2
:10cd2000650500002b0900005c05000036fd0000d1
:10cd30001df9000022fb000029fc0000d2f70000d2
:10cd4000b1f10000caf1000066fb0000dd04000044
:10cd5000c8000000ddf60000b8fc0000af0e0000c7
:10cd60000a1400007805000041f3000054f40000ac
:10cd7000320a0000a6190000e310000047fd000081
:10cd80005ff60000bfff0000880600001ffb0000e8
:10cd9000a3e7000009e300008cf50000980b0000f9
:10cda0006c0d00000bfe000086f2000024f800006d
:10cdb000520900006d100000ce00000089f2000052
:10cdc00028fa0000010e000044190000891000003c
:10cdd0006601000079fe00004d0500008d05000091
:10cde0000ef90000a9e9000072e60000c6f3000099
:10cdf0007103000056070000b000000032f9000087
:10ce000095fa000090010000130800008c05000056
:10ce100090fa000029f7000027000000680f0000ca
:10ce20004c150000100e00004e040000940000009d
:10ce3000e1040000f0070000670000000af10000b4
:10ce4000c7e8000091ef0000d1fc0000f0020000f4
:10ce5000a5fe000037f900004bfa000055ff000066
:10ce6000fe0100005c03000061020000ccff000036
:10ce7000090000005c0300000d08000086090000a6
:10ce8000e0080000bb0500006a0200000704000083
:10ce9000de060000740400005afe0000bcf9000029
:10cea00025f800008af70000dbf5000059f40000c7
:10ceb0001cfa0000420500001e06000005f90000f3
:10cec00044f0000025fd0000e30c00005a0a0000b9
:10ced000c7f80000d5f400007008000091110000b0
:10cee00038060000f6fc0000d900000057080000da
:10cef0000c0a0000c9050000210300000304000023
:10cf00004102000030fd000041f90000d2f50000b0
:10cf100028f4000095f8000073fb000087fa000079
:10cf200019fa00003ffb00000fff00005f03000044
:10cf3000d006000036020000c1f700004dfa0000e4
:10cf40007f0800000f0c0000ab020000ee000000a4
:10cf5000510a0000c90d0000b3080000c101000023
:10cf6000eefe00004e00000054ff0000fcfb00003d
:10cf700055fc00005f0000004aff000035fa000089
:10cf8000f7f60000f8f7000060fc0000e5fc000088
:10cf9000c9fd00003400000038f9000030f700003f
:10cfa000ca00000098030000ea050000b50900006f
:10cfb000910000005dfb00004e060000cd0d00005a
:10cfc0004e060000f7fa000082f900007b02000024
:10cfd0007209000004040000b7fc0000f4ff000028
:10cfe000790500002d010000e4f8000004f90000bc
:10cff0000fff000067ff000097fa00009df9000096
:10d0000021fc0000aefd0000a9ff0000c8010000e7
:10d0100041ff0000fafb000000fd0000f8ff0000e7
:10d02000f40300007b040000c3ff000013020000b3
:10d030002a0800000f0800003e07000080010000e1
:10d0400077fb000057000000f00400005bfd0000cb
:10d050000cf80000aafe00000d02000031fe0000e6
:10d06000dbf90000d0f90000c0fd0000b9fe0000af
:10d07000bcfe000084fe000005f900004bfa000031
:10d08000ac020000d2020000700400004d08000055
:10d09000ed000000b9fc000075050000ac0b0000bd
:10d0a000f6040000e0f9000004f80000f0010000c0
:10d0b00036090000f5010000e1f9000093ff0000cf
:10d0c0007d070000f50100003bf800002afc00008d
:10d0d0009d050000e00100004ff9000078f9000014
:10d0e000fafd000029ff00000100000095ff00008c
:10d0f000eaf70000b5f80000930300003e030000cb
:10d1000094fd000039fd0000dbfd0000200300005d
:10d11000950300002f01000010070000930000009d
:10d12000daf50000b2020000fd0e000020fd000054
:10d1300022ef000023fd0000ee090000ab07000015
:10d140004900000026fd0000600000005e030000b2
:10d1500031ff0000defb000065000000ff00000062
:10d160005bfe000097fe00001bff00000a010000ac
:10d17000470000006cfb0000c0fb0000d90000006d
:10d18000eb010000cffe0000d2fd0000e102000034
:10d1900093030000affd00006cfa000050ff000098
:10d1a0008306000074020000eefd0000ccff0000ca
:10d1b0008e0000004101000033ff0000c8fb0000aa
:10d1c00069010000ab0600009efe00003dfc00006f
:10d1d00048060000190a000026fe00004af400007c
:10d1e000e1fd0000230b0000a6030000b0f50000e5
:10d1f0001ffd0000100700006e03000058ff000034
:10d2000020ff000017fe0000170000002c050000a2
:10d210003504000088ff000016fd000063fe0000da
:10d22000ac0100003c0000001efe00005dff00009d
:10d230006d000000c10100001b010000ac000000f7
:10d240006d0200002601000089fe0000fdfe0000c6
:10d2500019ff0000bcff0000fc02000026000000d7
:10d2600088fc000048010000ae04000067000000d8
:10d27000fafd0000d3000000980100001700000034
:10d28000fcfb0000a0fe0000be0700004103000000
:10d2900077f7000041fb000063070000ff04000077
:10d2a00002fc000067ff00002b030000500000009c
:10d2b000fafd00000afe000073010000f700000004
:10d2c00016fe0000aefe00005ffd0000f2fc000054
:10d2d000550300000005000085fe00004afd000027
:10d2e000b70100000802000067ff00003c000000da
:10d2f0005700000046fd000090fd000053010000b3
:10d30000b402000037fe0000dffc0000a0010000b6
:10d310004e0200008afe00007ffd00001c0200009b
:10d3200090030000d5fc00003efb0000ce01000091
:10d330005005000097000000e6fa00003efd0000e6
:10d3400027010000610300009203000073ff00004a
:10d3500026fb000065fd0000dd0300007f040000e7
:10d360002dfe000010fc000009000000bdff0000c1
:10d3700088ff00009fff0000f6ff00001901000079
:10d3800002000000a9fd00002cfe00002a0200009f
:10d390009a0100006efe00002bfe000052ff00000c
:10d3a000abff00007fff000082ff00004400000090
:10d3b0004101000002010000a6fc000094fd0000f5
:10d3c000e30300000902000091fb0000fef90000e9
:10d3d00045fd0000fd010000db0200000900000027
:10d3e00058ff000036000000a40100005f010000ab
:10d3f000d8ff0000bffc00002dfc00004cfd000029
:10d4000069fd000015020000ab000000d9fc00001f
:10d4100077010000c304000054020000a8fe0000d1
:10d420004cfc0000e2fc00009d0000001a0000001f
:10d4300053fe0000aa000000f30000009501000068
:10d44000ae0100004bfc00004bfc0000000300009c
:10d45000ae010000e5fe0000e5fe000030fc00002b
:10d46000e9fe0000c50300003b010000dbfb0000fb
:10d4700098fc00005202000042040000a9ff0000d6
:10d48000c7fd00001c0200001402000075fd000032
:10d4900024ff000069030000d700000075fc0000b5
:10d4a00057fd000078ff0000ea0000003402000091
:10d4b000dc000000020000004e000000d10000006f
:10d4c00036010000c4fe000062fd000024fe0000e2
:10d4d000be00000017030000380200001d0000001d
:10d4e0001dfd0000b3fe00005202000077010000a5
:10d4f00081fe0000b3fe000054020000b9020000eb
:10d500004bff0000c8fd00004d0100006e0300004d
:10d510002dff00007ffc0000f5fe0000640100000c
:10d520007300000066ff0000a30100007d02000000
:10d5300006ff00003bfd000048020000b8030000a9
:10d54000c7fd00000cfc00006ffe0000aefe0000f6
:10d550001afe000005ff00003b000000430200002f
:10d560003d030000520200005e020000d7010000ef
:10d570001f00000092fe0000a8fe000064fe0000f4
:10d580002afd0000f9fe0000ef00000078ff000017
:10d59000fbfe000048010000f30100005400000001
:10d5a0009c00000072000000bafd000099ff00001e
:10d5b0009f020000b3000000fcfd000058ff0000c7
:10d5c0006601000097fe000011fd0000ddff000075
:10d5d0005302000036000000fcfc00004500000083
:10d5e0009a0400006f020000ecfd000030fd000016
:10d5f000790100008a02000041fd000071fd000079
:10d60000b4020000110200002dfe000073fe0000b5
:10d61000f90100006c0200001aff0000e7ff0000a3
:10d620001c02000054ff000099fd000038010000ba
:10d630005c02000009fe0000ccfc00007301000049
:10d64000c40300009eff00006dfd0000e701000024
:10d65000dd030000dcfc00009cf90000d3000000aa
:10d660005c0400002fff0000b1fd00003403000047
:10d67000d2040000a1ff000095fc0000edff0000b7
:10d680000a02000033fe000000fc00003c00000025
:10d69000a5020000e7ff0000befe000039ff000009
:10d6a0003aff000000010000890100005bff00005c
:10d6b0001aff000072000000e5000000c8ff000033
:10d6c00086fe000023ff00005d000000f6ff000062
:10d6d000a0fe0000c9ff0000f50000000e010000e0
:10d6e000ed00000012ff0000e5fe00004f0000000a
:10d6f000410000007e0000007500000033fe0000c5
:10d7000091fe00005d0000004cff0000abfe000039
:10d7100066000000210100007cff000054000000b2
:10d7200004020000b200000097fe00000cfe0000a2
:10d73000ccff000097ff000026fe000045ff000020
:10d74000ba00000076ff0000effd0000f8010000c5
:10d7500077040000f4ff0000ddfd0000b8000000c9
:10d760004b02000098ff0000d9fc000093fe00006f
:10d77000540000009dff00001bfe00001aff000087
:10d780006c0200006d0200002b00000051ff000041
:10d7900082000000a600000010fe000034fe000021
:10d7a0008c00000042ff0000e1fd0000faff0000d5
:10d7b0007d01000083000000a8fe000005ff0000be
:10d7c000340100001a0100007aff000037ff00005a
:10d7d00075000000f200000004ff0000b7fd00002b
:10d7e0006eff00009f00000040000000c4ff00002a
:10d7f000e5fe000047000000280200000a000000cb
:10d80000ecfd0000a6ff000089010000610000009f
:10d8100037ff000096ff00002d00000043000000cd
:10d82000daff00000e000000fbff00007cff00009c
:10d830002800000033010000f4000000a8ff0000f1
:10d840003fff00005f0000008700000080ff000035
:10d850007aff0000de0000001901000091ff0000c7
:10d86000defe0000a4ff0000840000001f00000096
:10d8700017ff0000d7ff0000f4010000b301000013
:10d8800054ff00001d000000670200006f0100004f
:10d890004fff0000fafe00001801000032020000f5
:10d8a0008dff00000cfe0000af000000ea01000048
:10d8b0006dff000021fe000078000000570200000c
:10d8c0007a000000a3fe0000720000009c0200002d
:10d8d0000b0100001dff00009b000000470200003c
:10d8e00089000000c4fe000059000000b9010000da
:10d8f000ac00000004ff0000010000003502000041
:10d900000b010000e5fe000054000000b201000021
:10d9100022000000f5fe000098ff00001601000044
:10d920000f0000007cfe000065000000eb0100001d
:10d930000f000000c9fe00006400000001020000aa
:10d940000301000097fe000046ff00009d0100005b
:10d95000d2000000f5fe000052ff00000e010000a2
:10d9600056010000f2fe00004afe0000e300000045
:10d97000080100008cfe000087fe00004e00000041
:10d980007b0000003cff0000dafe00007e0000008b
:10d990003201000052ff000006ff0000c700000037
:10d9a000f9000000a5ff00001eff00000f000000ae
:10d9b000b0000000120000002dff0000ceff0000ac
:10d9c000060100007d00000069ff0000f0ff00007c
:10d9d000b3000000490000005fff000021ff0000cd
:10d9e000550000006200000035ff0000caff000083
:10d9f000ed0000004800000075ff00001500000069
:10da000015010000ce00000043ff000075ff00007c
:10da1000fe0000009200000079ff0000acff000053
:10da2000af000000e800000058ff0000ccfe00003e
:10da300099000000b6000000d0fe0000ecfe0000df
:10da400030000000f6ff000019ff000019ff000081
:10da50005f0000009e000000e7fe000026ff0000bf
:10da6000c60000005d00000052ff000058ff0000eb
:10da7000e3ff00001b000000bbff00004bff0000a5
:10da8000a5ff0000340000001b000000ceff0000d6
:10da900096ff0000e2ff000078000000bcff0000dd
:10daa000a5fe000092ff0000cb000000fdff00007b
:10dab000fefe0000b6ff0000a80000005d000000b0
:10dac00090ff0000a1ff0000960000007900000018
:10dad000c1ff0000d8ff00003f000000ac000000c4
:10dae00054000000baff000022000000cb0000003c
:10daf0000f0000007eff00006100000082000000b7
:10db0000fbff0000d5ff0000eaff00003b00000023
:10db1000f3ff000081ff00003c000000af000000a8
:10db20002b0000000c000000530000007d000000ee
:10db300018000000b7ff00001500000054000000ae
:10db4000d0ff0000a0ff00004400000075000000ae
:10db500016000000dbff00003d000000be000000da
:10db60005d000000ceff0000ceff00005a00000064
:10db700091000000f0ff000075ff0000dfff0000d3
:10db80005b000000070000009bff0000daff0000c0
:10db90005a00000037000000d3ff0000f3ff000030
:10dba0001d0000002c0000000c000000d9ff000048
:10dbb00005000000450000005100000003000000c7
:10dbc000100000006a000000610000001f0000005b
:10dbd000deff00001b00000051000000efff00000e
:10dbe000d1ff00003e0000005c000000fdff0000cf
:10dbf000d5ff0000380000006d000000200000008c
:10dc0000dbff00000900000007000000cfff00005c
:10dc1000e9ff0000feff000012000000ffff00000f
:10dc2000deff0000080000001a000000ecff00000a
:10dc3000fbff00005400000047000000e6ff00006a
:10dc4000e1ff00004a00000059000000e6ff00006c
:10dc5000caff00004e00000080000000f9ff000035
:10dc6000e1ff000043000000560000000200000039
:10dc7000bfff00000f0000003e000000f9ff0000a1
:10dc8000caff0000f3ff00002c00000004000000a9
:10dc9000d5ff0000e8ff0000150000002000000094
:10dca000e5ff0000d2ff00000500000011000000a9
:10dcb000dfff0000c7ff0000efff00000c000000c6
:10dcc000e1ff0000c3ff0000eeff000004000000c1
:10dcd000d8ff0000c9ff0000e5ff0000feff0000c4
:10dce000e5ff0000c5ff0000dcff0000eeff0000c4
:10dcf000deff0000d0ff0000d8ff0000e8ff0000ba
:10dd000002000000edff0000daff0000d8ff000075
:10dd1000a4ff000095ff0000b4ff0000b3ff000067
:10dd2000c1ff000093ff0000cfff000063ff000071
:10dd300065ff000032000000b50100005e01000038
:10dd400034fc000051fb000024040000e30200004a
:10dd500002f9000019030000d0f6000010fa0000dc
:10dd600083120000e9fb0000b8fa00006d05000016
:10dd700000f50000d201000046170000470a00002d
:10dd800008dd0000d4f50000151f000086ef00003c
:10dd900092f80000b00d00002cf60000f90300001e
:10dda0007804000040090000b1f80000b3e9000069
:10ddb00094140000c207000081eb0000690100001c
:10ddc00066130000a8fc0000e8f700004b07000005
:10ddd00016f400000dfa0000c30c00002afa00003f
:10dde000fdfd00005c0200004d0300005a01000030
:10ddf00059f90000ca000000c4ff00002a0000001a
:10de0000990100007e050000e6fe00001f160000dc
:10de1000da0a0000fed10000e80900006d180000d9
:10de20006fe100009ffe0000990e0000fafd000067
:10de3000890500008df3000038ef0000111e00007e
:10de4000990800009df40000860c0000240a0000e0
:10de5000170d000064fa00003dee000012f2000011
:10de600036030000600b00002bf60000d703000013
:10de7000b90a00000f010000cffe000051fc0000b5
:10de8000bcfe00000bfa0000f5010000a007000036
:10de9000c4f30000990500005a0c0000cdf7000003
:10dea00081120000800000000ae00000de00000097
:10deb0004909000054f90000c3ff00004cff0000b6
:10dec000690a0000a20c00002df2000089fb00008e
:10ded000600a0000420100006efb000072020000b8
:10dee000ba2000001e1b0000c2cc0000c5e20000ea
:10def00023200000a4ef0000bbf40000ba0d0000d6
:10df0000a6010000bbf9000057f400006307000001
:10df1000af0e0000e70700007cfb0000fd050000dd
:10df2000c213000027090000d3fe00003eeb0000f2
:10df300036f00000b80400000500000044fa0000bc
:10df4000210100007f010000a4fc000005f2000098
:10df500084010000671d000074020000c8f1000089
:10df6000bf010000aafd0000c7fb00000a0100007d
:10df700027060000b10a0000f4f7000076f2000066
:10df80004bff000028f90000dffa000019fd000037
:10df9000fbfe0000ca04000024fa00007004000028
:10dfa00089060000f201000008110000e0f5000001
:10dfb000b5ff00000e1b0000f0fc000023f900007c
:10dfc000cdf700006dec00008dfc00005003000058
:10dfd000dbf90000e5fd0000fa04000036f900005e
:10dfe00080010000850a0000fdfc0000fb08000025
:10dff0000a07000066f5000061ff0000b1010000a3
:10e000006efb00005d0a000033020000d8f2000041
:10e010008e000000f0f8000083f40000dd04000032
:10e02000cc000000a2f700006004000054040000cf
:10e03000f2f70000b6030000b60900009ffd0000e3
:10e04000f1fd0000b70d00004c0e0000b40c000004
:10e050004ef400001adf00009afc0000e7fd00000b
:10e0600031f80000f20a00009b02000038eb0000cb
:10e07000a90000008b0f0000c4fd0000310e00005d
:10e08000cd1d0000e0fe0000af0300006a0d00009f
:10e0900079e50000e9ee00005104000040f30000c3
:10e0a00052f900007309000047fc00002cf9000041
:10e0b00035f80000110d00003113000022fd0000b2
:10e0c00024080000c3fb000056fa000054050000bd
:10e0d0007a010000120000006ffb0000d2fc00007b
:10e0e0005df70000cdf800002cff0000f5fe0000f9
:10e0f0008bfb000042fc0000c9fb00007f0b00000e
:10e100009e12000031fa00006dff0000df0a0000df
:10e11000ad000000470400008e0f0000bff20000b9
:10e1200024ef00004efd000057ed000068040000e1
:10e1300084070000a8fa00009e1000005f050000a0
:10e1400031f20000ae0300002e050000b0fb00001d
:10e15000a6fd0000a7010000820d0000120b0000c8
:10e1600018f70000d6f9000027fd0000d7f70000df
:10e1700075f900003502000074fe000075f400001f
:10e18000bd0d00006f01000010fc0000f90b000045
:10e190009c03000088170000edfc00004e110000f9
:10e1a000d60400003ed300000206000091ec0000ff
:10e1b000fbf500007b0c0000e1f60000f503000019
:10e1c00058f100002e0c0000a327000005fc000001
:10e1d000c5f10000ba1600003107000086f4000007
:10e1e000610b000084df0000ffec00009b0c0000ce
:10e1f0000afc00003c040000d9020000a8ff000057
:10e200008cf50000ed100000e20c0000bdee0000f7
:10e2100017f400008afe000069060000da09000019
:10e2200044080000180a00002ff5000001e100007a
:10e23000d9060000b8fe0000cdf60000e9fe00009f
:10e24000fdf9000071090000f8f30000fd14000062
:10e25000991b00005eee0000080c0000930800000f
:10e260000ff60000c70100008bf9000020f7000046
:10e2700022fd00006bfb000057f6000003060000c3
:10e28000540d0000b6fa0000a8f80000bffe000020
:10e2900078fd000084080000f102000013f900007e
:10e2a00099090000c70800007cfd0000dbfe0000ab
:10e2b00065fb000035f000004bfc00003508000055
:10e2c000bcf5000012f900007203000004fa00001f
:10e2d0007d130000c80700008f07000043190000ed
:10e2e0005ff700009d06000034ef00007af00000a8
:10e2f000880b000039e4000043f90000af10000073
:10e3000067f7000025f300000e0800008d1d0000d7
:10e31000fe060000aff90000f00b0000a0fb0000bb
:10e32000470300008401000033ea000001fc000004
:10e3300018fd000045fd00009a0c0000c9ff000018
:10e34000c0fd000058f900006ffd0000ec0e000059
:10e350001200000099fe00002ffb0000a0ff00004b
:10e360006411000028fd00003cf60000bcfd000028
:10e370003ff800005ffb000046040000e1fb0000e6
:10e38000b4f90000fc0100003ef60000900e000011
:10e39000dc17000074fe0000d1060000830b0000b3
:10e3a00056f8000094f8000006fd0000cafb0000cb
:10e3b00077ff0000ebef0000a7ff0000520800000d
:10e3c0005dfe00006d07000061fd0000fbff000026
:10e3d0006105000006fd0000c0050000e70900001f
:10e3e0001f00000011fb00001eff0000f2020000f1
:10e3f00040fb00003af300001efd0000b3040000e3
:10e40000bef900001306000047010000eaef00001b
:10e410005b110000c8090000a8fa0000b913000051
:10e420006b0e0000b6f1000080f20000b90300009e
:10e4300062f600001df60000bb020000bffd0000f8
:10e4400002ff000088f900005df30000ca1b000015
:10e450004d1800006ffd0000d70300009f00000072
:10e46000ff00000092ed0000cd070000fbfe000061
:10e47000cbdd0000b1120000c00b00007ef50000f3
:10e48000880a000087f30000110100004710000017
:10e49000fdf700008a09000035fe000083f7000048
:10e4a000cc0b0000b0ff000029000000f7ff0000c7
:10e4b00071f10000c8f40000c6080000fdff000074
:10e4c0002cfa00004b070000aaf20000250c000007
:10e4d000221b00003cf900007ffe0000e0f4000079
:10e4e0002000000008140000bbfe0000bcf7000084
:10e4f000d4ef000074f80000b005000039030000fc
:10e50000400600004f0100003afd000024fd00001d
:10e5100037fe00005eff000046020000a901000077
:10e520009e0100008f0c000044fd000023f5000058
:10e530004403000014f70000f5f500004e0500004c
:10e5400048010000e2f90000f6060000f1fd0000bd
:10e550000bf900005b14000053fc000031ff0000c9
:10e5600011160000d3010000ef01000070ee000062
:10e5700089f50000bfff00005bf600009b0500006e
:10e580005b00000000fc0000cb000000bcef0000be
:10e5900099fd00001e1b0000810700005d0e0000b9
:10e5a0005b0400006cf500003cfa000010f5000070
:10e5b000da090000a6f6000098ee00005a080000f4
:10e5c0005f040000160200005e010000f0f0000091
:10e5d00021020000100f000050ff0000b2fe0000fa
:10e5e00054f90000defb0000ba06000056080000e7
:10e5f0009cf90000bdfc0000bd020000c7f1000056
:10e60000acfe0000270200004df8000023fd0000d2
:10e61000e0010000ce000000bbff00007a10000007
:10e620009707000096fb000074030000d4fc000074
:10e630004d05000022ff00008df40000990200004b
:10e640006df90000f0f70000f0ff000085ff00000a
:10e6500090ff00006402000019fc000033f8000085
:10e660000b1100003c0800009bf80000c40f0000e4
:10e67000a404000047f5000014fe00005bfa00004f
:10e6800088ff0000cffd000050f80000b2fb000042
:10e69000ea01000049010000fdfe000082fc0000cc
:10e6a000d1f00000920b00005a110000e1fb0000c5
:10e6b000a508000093070000b4f9000071fd0000f8
:10e6c00077fe000061fb00000cff00007ffb0000f4
:10e6d0001dfa00000fff0000370200007aff000063
:10e6e0009ffe0000b80100005efd0000450500002f
:10e6f000a30800000df9000080ff0000ec060000f8
:10e70000930000006c0400007dfb0000d9f70000be
:10e71000f3ff000090f80000e40000005f04000038
:10e72000bc020000ae060000b6fc000086fd000042
:10e73000bdf8000020020000740b0000c3f70000c9
:10e740000e020000ad0e00006bfe000098fd000000
:10e75000edfa000081f60000ef0400005f02000007
:10e7600016fc00008301000082fd0000b1fd0000e6
:10e7700084070000a3fa000023f80000ea0e00005e
:10e7800084fe0000f1fa0000020a000011fb000004
:10e79000adf9000088fe0000a7ff0000a6fd000004
:10e7a000730300003b0b000022ff0000d5000000b7
:10e7b000a500000051fe00007e050000a3f6000049
:10e7c0001afe0000d10500007df6000031fc0000bb
:10e7d000e8ff00001dff000020010000b401000060
:10e7e00064f80000a40000005711000064fd000060
:10e7f00051000000a50f0000bcfa000054f9000011
:10e800006efd000017fb0000f500000071fa00002b
:10e8100026f9000008fe0000310300000aff000096
:10e8200012000000edf5000060f700005415000034
:10e83000680600003cfe0000670c0000ad00000010
:10e840009df9000069ff000063fc0000cefc0000a1
:10e8500092fe0000aff90000b3fb00003d01000094
:10e8600014010000ccfd00000a01000036fe00008b
:10e87000c3fd00008d0a00008d0400002ff9000088
:10e880000c0600006f0600006f0100000a03000084
:10e89000f8f5000023fb00004d0000007bfa0000ab
:10e8a0002cfe0000fafe00008f030000680000004c
:10e8b000a2fe000085fd000088fb00005d0b00004b
:10e8c000d4070000f0fc00002a0f00002e0a000010
:10e8d000fdf7000062fb0000c9f900003bfb0000ef
:10e8e00089ff0000ebfa0000defd00007607000063
:10e8f000c6fc0000e3ff00000d01000059eb000022
:10e900000b0d0000c91700009bfb00002310000046
:10e91000520800005ff5000073fd00006dfb000071
:10e92000c0fa000065fd0000b0fe000071fd0000af
:10e93000a101000058030000dcfc0000d60100002b
:10e940006afb00001af90000c71400003909000032
:10e95000a8f60000c5ff0000e3fc0000d5010000a0
:10e96000d10300006bff00005900000003fa000013
:10e97000e8fe000081000000eef6000044ff000009
:10e980001e030000c60000001afe00007cff00000d
:10e990005d010000f9fa00007b0a0000d3070000c7
:10e9a00032fc00002d020000ff010000c50700003e
:10e9b000cafc0000cefc000081fd000050f5000004
:10e9c000b0030000d5fc0000cdf80000d504000025
:10e9d00080020000fafb0000b50000007cfe000091
:10e9e0007bf00000f1080000301000006e02000013
:10e9f000760c00006f00000014fb0000f3fb000029
:10ea0000e2fa000008fc00001ffd0000b90300004e
:10ea1000e1fd000087fc0000ddff000002ff0000b8
:10ea2000acfb000058ff00006c04000083fa0000fb
:10ea30003d040000e70b000065f600004bfe0000ff
:10ea400070020000c5f80000dc030000b600000002
:10ea50006e010000290300007cfa0000bafa0000f1
:10ea600056fd0000cfff0000fefc000081ff00000b
:10ea70004e01000001000000dc000000b8fe0000b4
:10ea800014fb0000bcff00006e080000b40300008f
:10ea9000f604000002ff000023fa0000ed01000070
:10eaa000d4000000e5000000780000005c030000d6
:10eab000ccff00009bfb000069fd000031fa000064
:10eac00093fc00009dff0000440300004afe00008c
:10ead000fd000000b2fb0000daf80000da0d0000d3
:10eae0008006000055010000a60600007c0300001f
:10eaf0005bfe0000b40300001b0200007ff3000077
:10eb00000100000034ff0000c7f80000030200000d
:10eb100096fc0000f1010000ed030000cdfa0000ba
:10eb200030020000a9ff000047f900008604000041
:10eb30003f060000a5fd00001a08000011060000b5
:10eb40002bf90000bdff000003fd000087fe000060
:10eb50006c030000b8fc0000d4000000310000008d
:10eb60004dfc000030000000bdff000063fe00000f
:10eb7000e5ff000093030000a3fc00002ffc000051
:10eb8000ce0500003800000049050000070700001e
:10eb9000b5000000740200002e000000b600000066
:10eba00075fb0000baff00005b050000e0030000f9
:10ebb00060fe0000eefb0000c00000003afa00001a
:10ebc0004ffe0000a101000066ff00001d040000d0
:10ebd0000aff0000fa0000004b000000e6f700000a
:10ebe000000400005d090000e9fc0000890000004d
:10ebf000f407000062000000c3030000e40400000a
:10ec00007ef6000042f80000b30100000cfe000098
:10ec1000fcfd0000e9010000a9fd0000d003000098
:10ec200094020000e9f8000021fe000095fe0000bb
:10ec300030fe000069fe00008a0100004309000068
:10ec4000bc0200006c0000004806000061000000eb
:10ec5000fafd0000f6ff0000c9fb0000e8fa000022
:10ec6000e8000000fe00000009fd0000ccff0000ed
:10ec7000ef00000057ff000086000000cdfe0000fe
:10ec8000b0fc00008dff0000d0fa0000f8fe00008c
:10ec9000ae0a0000600300007fff00004002000099
:10eca000dffd00007cfd00002c0000006bfc00007c
:10ecb000bcfe000066030000940000009bfe000004
:10ecc0006dfe00002cff000080fe0000effe000043
:10ecd000cfff0000ffff000085ff0000e5020000fd
:10ece000b6ff0000fefa0000b500000029fa00009f
:10ecf00074ff0000830b0000bbfe00004300000017
:10ed00004e050000b5fb0000eeff0000a1ff000073
:10ed100084fc00000d010000c0fe000021fe000088
:10ed2000bd0100008802000002ff00009afe000002
:10ed3000540000006afd000024ff0000870100006d
:10ed4000b80000003a010000c5fd000001ff00000e
:10ed500029fc0000f4f90000130c00008e0a0000ea
:10ed60004bfb0000b501000036fd000010f900006b
:10ed7000b3ff00000bfc0000c2ff0000b60500005e
:10ed800026010000a2ff000024030000f4ff0000a1
:10ed900076ff0000e7020000e2fd0000aefb00008d
:10eda0007800000075020000140000002efe000034
:10edb0009cfe0000de00000095ff000007fd000043
:10edc00080ff000025020000d20300000d010000ba
:10edd000f0ff0000f0ff0000c1ff00007500000020
:10ede00099fe000072010000c401000094000000c0
:10edf000ed0000006aff0000c60000006c0100008a
:10ee00008afe00006ffd000095ff0000700000000a
:10ee100068ff0000da000000d701000032ff0000a8
:10ee20008dff000001000000d8fe000020ff000060
:10ee300090fd00003eff000083020000140200006d
:10ee4000f9ff0000c1fe00008b010000a5000000da
:10ee5000bfff0000e20100000102000050040000ba
:10ee60009e00000060fb000043fd00000dff00005d
:10ee700022fe000072fe0000080100002d000000cc
:10ee80009bff000026000000fafd0000cffe0000fe
:10ee9000670000008cfe000079fe0000e2ff000029
:10eea00041010000dd0300002f010000740100009b
:10eeb00073050000d5fd0000a1ff00001302000053
:10eec000f9fa00008d0000001cff000023fc000088
:10eed0007600000071ff000050ff0000e9ff000015
:10eee00037ff00002cff000049000000c5fe0000b5
:10eef0006efe000043000000d7ff0000b1ff0000dd
:10ef00002f0100005f00000048ff0000b2ff00007a
:10ef1000b2ff0000b0000000a7ff00007201000077
:10ef20001a020000f5fe00007b0100003000000026
:10ef300085fd00004e0100001c000000dffe000007
:10ef4000d3ff0000f4ff000086020000d7fe00009f
:10ef5000cefd0000080200006800000092ff0000e3
:10ef60006bff0000a1000000370100006afe0000f6
:10ef7000bd0000004300000056fe0000f901000043
:10ef80007c000000fefe0000b6000000d100000082
:10ef9000f0ff00003bfe0000f4fd0000c2ff000097
:10efa0004e0200004c02000027010000cf000000cc
:10efb00043010000c3ff0000aafe0000c6fe0000df
:10efc0002fff0000520100009200000070ff0000bf
:10efd00050ff000073ff00000eff0000f2fe000073
:10efe0008c010000a200000050ff0000360200006b
:10eff00070000000f1fd000057ff00000d00000050
:10f0000099000000fcff0000bdff0000a700000009
:10f01000ebff0000f6fe00007fff0000a1ff0000f4
:10f0200003ff0000fbff0000280000002eff00008f
:10f03000f3000000cb00000039000000f2010000e6
:10f040009f0000007bff000020010000c9010000bc
:10f05000acff000096ff0000e00000001d00000073
:10f06000f0ff0000030100002101000093ff0000f9
:10f0700093ff0000c8000000ed000000d0ff00007a
:10f0800066ff0000fcff00000a010000ce01000046
:10f0900059ff00004aff0000620100003c00000030
:10f0a00047000000baff0000d8fe0000c6000000c4
:10f0b00097000000adfe000050ff0000b7ff000009
:10f0c000aaff00000d01000082ff000067000000a1
:10f0d0006702000019ff000069ff0000ec0000005b
:10f0e0008bff000097ff0000260000009700000043
:10f0f000acff00005bff000038000000c0fe000015
:10f10000beff00002b0100008fff000085ff000004
:10f1100063000000b6000000deff0000c0fe00003b
:10f12000cefe00004301000094010000100000002a
:10f13000b9000000c2000000430000009eff000074
:10f14000e8fe000090fe0000bd000000f800000096
:10f1500099ff000097ff000030ff00001f00000033
:10f160004dff00005fff00001b010000bbff00001f
:10f170003900000076010000d7fe000055fe0000b7
:10f18000baff00002000000045000000aeff0000b4
:10f190001c0000009200000087ff00000dff00002f
:10f1a0009eff00006bff00004eff000055000000b6
:10f1b00096ff0000afff0000480100002d00000096
:10f1c000f1000000c4010000ccff0000f1ff0000ce
:10f1d000c7010000100100002cff000049000000e2
:10f1e000ba000000d6ff00004e00000052010000ef
:10f1f0008b00000044ff0000140000000801000024
:10f200008f00000072ff00009dff00004c00000016
:10f21000a20100001b010000a2fe00006e00000021
:10f220002b010000ffff000059000000bdfe0000a0
:10f2300082ff00003901000083ff0000d4fe0000bf
:10f2400095ff00003aff0000a4000000f500000058
:10f2500009ff0000a4010000be010000dcfe000068
:10f26000100000004600000045ff0000f9ff00000c
:10f2700076000000e8ff00007cff0000c3ff0000f4
:10f2800029ff0000eafe00005900000044000000d1
:10f2900087ff00007fff00006e000000bc00000040
:10f2a0001600000010ff0000fbff0000e701000057
:10f2b00022ff0000f6fe00000a010000c7ff000068
:10f2c000c9ff00004800000035fe0000b7ff000045
:10f2d000d20100002aff0000baff00005aff000020
:10f2e000b5ff0000b801000033ff00007dfe000004
:10f2f000fbff0000200000007aff000015ff000067
:10f3000065fe0000d1fe0000d0ff00004bff0000b2
:10f3100072ff0000e6ff00001a0000009c000000e1
:10f32000e6ff0000b6fe000068ff0000530000008a
:10f330001b000000b5ff0000caff0000e0ff000056
:10f340002b0000004b00000092ff000036ff000081
:10f35000a4ff000099000000f1ff00005eff000024
:10f36000780000007b000000c4fe00009dff00004c
:10f37000ac000000ddff000098ff000093ff0000dc
:10f38000ff000000f3ff000045ff0000ba0000008e
:10f390005aff000050ff0000c9000000e6ff000017
:10f3a000a2ff0000ae0000004c0000009dff000026
:10f3b00045000000f2ff00002200000039000000bc
:10f3c000c9ff0000be000000feff0000ffff0000bc
:10f3d000910000006bff0000e4ff00002501000029
:10f3e00092ff0000abfe00000701000039000000a2
:10f3f00014ff0000fe000000f3ff0000e9fe000023
:10f4000090010000a00000006afe000081000000e2
:10f41000820100002500000021ff0000a200000082
:10f420009a000000250000009b000000d1ff0000b2
:10f43000de0000006200000041000000a8000000a3
:10f4400051ff00008f000000b90000001200000012
:10f45000880000005f0000008f00000050ff0000e7
:10f460004e0000006b0000009dfe00006b000000dd
:10f47000170100003b0000001a0000007d000000a2
:10f480000200000038ff00003100000068000000aa
:10f49000d8ff000065000000ba0000002e00000048
:10f4a000b8ff0000e9ff000011000000ddff0000d0
:10f4b00078000000530000004a00000065000000d2
:10f4c0009dff000068000000520000007cff00006b
:10f4d0002a000000760000007dff000071ff0000a0
:10f4e000c10000009f000000a4ff0000d6ff000044
:10f4f000abff00007dff00004a0000000600000096
:10f500005bff00001800000056000000ebff000049
:10f510001b000000ebff00002eff0000a7ff000013
:10f520005c000000e5ff00002600000099ff0000dd
:10f5300077ff0000520000002200000066ff00007c
:10f5400005ff0000f8ff0000570000001e0000004b
:10f550007800000091ff00001cff0000a8000000e0
:10f560006800000008ff0000bfff00001e00000050
:10f5700042ff000020000000bcff0000c0fe0000b1
:10f58000c7ff000025000000cfff000090ff000033
:10f59000baff0000b6ff0000bfff0000c1ff00007f
:10f5a00087ff0000b1ff000050ff0000b4ff000023
:10f5b000480000005aff00008dff0000ffff000020
:10f5c000d6ff000080ff0000cfff0000b9ff000061
:10f5d00037ff00003f0000002300000065ff00002f
:10f5e000adff0000a4ff00009cff0000afff000083
:10f5f000b2ff0000ddff000013ff0000eeff00007f
:10f6000060000000d9fe0000b3ff0000f5ff00001d
:10f610003bff0000dfff0000f6ff0000c1ff00001d
:10f62000c4ff0000cbff00004a000000f7ff00000d
:10f6300034ff00000500000039000000d2ff000088
:10f640000d0000003b0000001e000000fcff000059
:10f650004900000030000000f7ff000043000000f8
:10f660005e0000006b000000610000002c00000044
:10f670005b00000041000000230000007900000052
:10f680005f000000f3ff0000600000007a0000004f
:10f690000a0000003c000000500000006200000072
:10f6a0005d000000430000008e0000002300000009
:10f6b000f7ff0000960000002e000000eeff0000a3
:10f6c000630000006d0000005c00000051000000bd
:10f6d00063000000530000007300000050000000b1
:10f6e000ffff00004e0000004e0000001f00000061
:10f6f00063000000600000004900000043000000bb
:10f70000470000003e00000012000000280000003a
:10f710003a00000052000000600000005e0000009f
:10f72000430000001b000000200000004700000014
:10f7300017000000020000002a0000002000000066
:10f7400031000000feff0000120000001700000062
:10f75000d6ff00001e00000022000000e0ff0000b5
:10f760001a00000024000000090000000d00000045
:10f77000060000001b000000d8ff0000e4ff0000ae
:10f7800037000000edff0000f3ff0000170000004d
:10f79000e9ff0000f3ff00000a000000d5ff0000b1
:10f7a000cdff00000c000000ecff0000d2ff0000c5
:10f7b000e8ff0000daff0000f5ff00000100000094
:10f7c000bfff0000cdff0000e5ff0000ccff000000
:10f7d000f7ff0000eeff00009fff0000d5ff0000d4
:10f7e000f7ff0000afff0000baff0000faff0000c3
:10f7f000ceff0000cfff000007000000caff00009e
:10f80000c2ff0000f5ff0000dbff0000c0ff0000aa
:10f81000e8ff0000d2ff0000c2ff0000f6ff00007a
:10f82000b6ff0000acff0000e5ff0000a9ff0000ec
:10f83000c7ff0000f0ff0000aeff0000b1ff0000b6
:10f84000d7ff0000bbff0000b2ff0000c9ff0000af
:10f85000bfff0000c4ff0000d7ff0000bfff000093
:10f86000c5ff0000d7ff0000ccff0000d6ff00005e
:10f87000c9ff0000c4ff0000deff0000e2ff00003f
:10f88000d0ff0000deff0000dbff0000e9ff00000a
:10f8900005000000fdff000000000000f6ff000072
:10f8a000f0ff0000deff0000f2ff0000fdff00009f
:10f8b000e1ff0000d8ff0000ffff0000e7ff0000ad
:10f8c000f1ff000005000000ffff00002500000020
:10f8d000d6ff00003e000000a0ff000075fe000003
:10f8e00015ff0000f00400003000000060f9000087
:10f8f0003e070000f502000044f600004902000047
:10f900001107000099fb000051fc000055050000a4
:10f9100087fe000033fe00005300000018fe0000c8
:10f92000410200004efe00000bfd00007fff0000c2
:10f9300024020000ed0000000e1600001bf700007e
:10f94000dde0000030220000fa0200004fdf00007e
:10f950001f06000099100000fb040000b0e9000041
:10f9600028f20000b4320000def400004ad20000a9
:10f97000882500004a0a000095e80000bc0000004d
:10f98000f30300000e0b0000f90d00003cdb00004b
:10f9900067010000b21e00003fe90000a4ef000074
:10f9a0004c130000250e00001ae800005902000068
:10f9b0007a0b00000ff6000018fc0000e9010000bf
:10f9c00057000000abff00009e150000bae80000e1
:10f9d00067ef0000ea26000026f20000c0eb0000fe
:10f9e0002a0c00008502000051fd0000f0fc000020
:10f9f00013fe0000230800009405000026f6000016
:10fa0000f4ff000025070000cff80000ddff000034
:10fa100068020000a2120000e902000011de0000ee
:10fa2000e71400005f0e000018df0000f90000007e
:10fa3000a10e0000e6fd000071f800005df9000075
:10fa40002308000014130000b3fc0000eef40000d3
:10fa5000610800003a060000f0f7000059fa0000c3
:10fa60006c0d0000b50700009bfb00002eee0000af
:10fa7000620c000064060000ebdd0000db100000fb
:10fa8000ba0800006ef900000aff000058ff0000ed
:10fa90004c0b00008ef200009a030000af01000042
:10faa00039fa000085060000860000007606000096
:10fab0003bf30000e3ff0000160b000020f0000005
:10fac000b8fc000074040000dbfb000004fe000032
:10fad00078010000bafe00002f0100005200000073
:10fae000b6fb00004cfc00003efe00008e0900004a
:10faf000600000001c04000018050000e7f0000092
:10fb000016030000350100000bf1000032fc00007c
:10fb100075070000d7fb000014f40000ad0c0000d6
:10fb2000edf90000c8060000fd0a000023f5000002
:10fb3000720b00001f000000a0020000e50600009c
:10fb4000cdfa000035f80000b60b000001f7000008
:10fb5000f7e90000e60a0000040300009df500003c
:10fb60002cff000093060000e7fe00008f0000005d
:10fb700073fe0000ff0900001c070000a0fc00004d
:10fb80007d020000e600000082fd000075ff00001d
:10fb900092ff000059f40000170200002b03000040
:10fba0008cfb000095fc0000920800003aff00006a
:10fbb0000cfe00002cff0000e7fa00003c0c0000e7
:10fbc000e6f40000ea030000120b00008cef0000d6
:10fbd000c10d00007101000048f10000670b00003a
:10fbe00085fa0000c5fb0000ba0300003e020000d9
:10fbf0008700000002fd0000caff0000dc010000d9
:10fc0000470000000dfa000012050000a3080000e4
:10fc1000d5080000d40200005df80000e1fd0000fe
:10fc2000d70a0000e8f700006def0000c70c0000e5
:10fc3000f6040000fbf4000005fc00000c0d0000c1
:10fc4000ccfa0000ae0500007913000072f5000048
:10fc500084050000f90b00002800000081fb000073
:10fc6000c5ff0000070a0000fbf7000021ef0000bd
:10fc7000900900008b020000bbf10000e8010000c9
:10fc80003b050000c8ff00009e090000970200002d
:10fc9000eafc0000dc0a0000eafe0000cbf40000f1
:10fca0009f050000330600004af7000010fe000028
:10fcb00034000000550800003cf400002bf4000064
:10fcc0005710000080f40000f5fe0000bc060000a4
:10fcd000d6f900000c0200005d03000038f60000b9
:10fce0001604000010060000aff200002705000017
:10fcf000b6040000d2f90000d1fb0000450300006b
:10fd000027010000fbfc0000ce010000d4fa000037
:10fd1000fe01000050ff000010fc00000405000080
:10fd200009ff0000de07000089030000ccf7000097
:10fd30001cf80000090f000081fa000058ef0000d5
:10fd400034090000eb030000fdfb000075f4000027
:10fd50005c09000045ff0000330200006f0900004d
:10fd6000c10a0000400d0000eae900005c03000049
:10fd700018130000d9f10000e5ed00007804000040
:10fd800004130000b1f5000031e50000641100002b
:10fd9000ec160000ebed0000dcf20000af140000f8
:10fda0007907000095ee00001f050000df0b000042
:10fdb00003fa0000acfe000010fe000052f4000048
:10fdc000c2060000e80300005df4000076020000b7
:10fdd00058070000510200002bfb00000800000043
:10fde000dc0900006e0100003efa0000f4fe000095
:10fdf000f8010000030200007dfb000025fc00006c
:10fe00005e03000018020000dffa0000fffa0000a5
:10fe10005e0300002200000059010000f9fd00000f
:10fe20002f0c00009bf800003ef70000411100007d
:10fe300072f6000008fc0000490400000502000002
:10fe40001dfe000018f90000760600002e010000db
:10fe5000f4f600001702000008030000b0fd0000e7
:10fe60007bfb00001b030000fd0b0000bd02000037
:10fe70000bee0000e6fb0000e31b0000a5f3000012
:10fe8000e5e500006515000037080000c2ef00003e
:10fe9000d9f40000010e0000cd06000097f4000028
:10fea0001a0b000022070000ae050000f0f8000069
:10feb00021fd0000d20a000076fc0000f9f60000e7
:10fec00093f50000030a000016060000caed0000ca
:10fed0009efd00005b0d00007b0b0000f3fa0000ac
:10fee00071f70000df1000008f030000e1f2000056
:10fef000590100003d0600002d000000f5f700004c
:10ff000011f80000610b0000f5030000f7f000009d
:10ff1000da03000072080000d2f9000099f700002f
:10ff200015110000450c00003ce9000041ff0000f5
:10ff300071100000a6f80000a6ef0000b606000051
:10ff400020080000a6fd000070f40000fa02000086
:10ff5000f31d00009ae30000bef5000082200000bf
:10ff60006def000047f2000030090000730500004b
:10ff70005307000048f1000050fe0000960f0000fb
:10ff8000c7f400004ff10000b00700002b10000084
:10ff900090ed00009a0200003610000043f40000cb
:10ffa00062fc000084ff00009d0e00004609000076
:10ffb000cee400006b0400007d1c00002feb00006d
:10ffc00077f00000571200002f030000e7f2000056
:10ffd0006ef90000cb0c000099020000e4f3000071
:10ffe00052020000de09000001fe00008ef8000051
:10fff0001f160000bf02000058e10000641200005c
:020000040001f9
:10000000df1200002ad800009b000000941e0000b0
:1000100057f00000f4f70000f20200004c1000005e
:10002000ad0100009afe0000b910000092f000003f
:10003000cb0400006c0f00003fe50000220400002c
:10004000b5170000a8e60000e80300006f0e0000ee
:100050005ff700006af3000025010000360c000085
:1000600025fc00002c13000097ec00006ffc000042
:1000700053200000eede0000e1f40000cc1500008b
:100080006dfc00008df60000250200009dff0000c1
:100090000a130000ab0100000ede0000091e000084
:1000a000740d000071d7000042060000f51d00002d
:1000b000c5f400000de3000008130000ea0a000088
:1000c000a0e7000077f5000095110000540900003a
:1000d000dce20000cf05000011100000fafa000079
:1000e0005bfe0000a4000000950c000025f8000055
:1000f000a7fb00002e080000bffc00001bff000053
:10010000eeff000052fc0000acfa0000b500000059
:10011000f5ff000072fb00003d040000d5fb00006d
:100120005ffe00003204000068f700005d1300006d
:10013000f8f90000bde80000d11900004e000000f1
:10014000bae80000100600006b0c00003ff700004a
:1001500090f40000fe08000066070000c2f30000f3
:1001600060fe0000be060000d4000000baf80000e7
:100170009b04000063100000cae8000026fa00009b
:10018000d21a0000a3ef0000b8e60000be1a00007b
:10019000070400007ae7000038090000f9080000b1
:1001a000f9fb00006f050000561800008eef0000fc
:1001b0005df000001e1f0000a4f9000042e40000f2
:1001c00083100000b4090000a1ed000040fe000013
:1001d000fc0e00002b02000022ed00003909000097
:1001e0008a050000dcf60000b4fc0000df07000018
:1001f000761c0000b8e30000c2ec0000022b0000f7
:1002000033f300009fd80000ff1d00000510000020
:1002100041e20000c005000025070000280a000098
:10022000b80a0000aef30000d0ff0000dc100000b0
:10023000c3f9000011ec0000670f0000b2090000d4
:1002400029f20000b1f800006a06000051fc00002d
:10025000e7f70000eaff000013030000a806000013
:1002600055fa000084fe000038100000ba070000b4
:10027000d3ed0000c9010000661300002af1000060
:100280004bf40000f8100000680100001df20000af
:100290001d010000fd060000d6fd00003df9000034
:1002a00042010000b803000086fe0000aefb000023
:1002b00010060000260700008df5000062fc00001b
:1002c0004e080000a1fc000010f60000010500002f
:1002d000760400007cfa000062ff00003903000091
:1002e00073000000b4020000e2010000a2fe000062
:1002f0006c0a00007eff000089f000000704000087
:100300009a0a0000c0f70000f3f20000eb090000b9
:10031000e006000081ee0000f9ff0000610b000024
:1003200068f60000b5f900005115000078080000db
:10033000c1e9000004000000cf11000076fb0000be
:10034000a0ee0000b8030000b00f000032f500007e
:100350007cf30000d40c00006e05000052f2000097
:10036000d5010000050d00009c0300009600000070
:1003700013f7000085fc0000ae070000f5ff000049
:10038000d3f00000aefa00007a1800002ff500004c
:1003900036eb0000d51400001f02000052e40000fc
:1003a000cc1500008d2e0000a6d8000010e900003a
:1003b000942c0000b802000095dc000070f70000eb
:1003c000701e0000d5fc00003ddf00000f0a000099
:1003d000fc1d0000e3f2000015ee00000418000010
:1003e0004c000000aaef0000b30d0000040700005d
:1003f000a9f20000e6ff0000c705000062ed000062
:10040000defe0000760c000041f60000b0f80000af
:10041000e6080000b90e000086fc000044fc000065
:10042000590800007f0100006af8000086fd000006
:10043000d5030000a3ff00007afe00008df8000045
:10044000ec010000a906000038f4000077f9000074
:100450005c0b0000a5010000dcfa0000f8000000c1
:10046000fdfc000048060000aa01000003f20000a5
:100470000f0500004e0b0000b9f50000fef800006b
:100480003f0800002e01000059f90000e8fc0000c0
:100490006c030000e302000079f80000dafe0000bf
:1004a0003009000015040000effd00002efa0000e6
:1004b000cdff0000c6030000d5ff000074f8000067
:1004c0003e000000fb0a000056f80000d7f70000cd
:1004d000090700001f02000049f800005a00000050
:1004e000241100001606000021f6000039fe00006d
:1004f0004a070000b9fc0000e6fa0000bcfd00005d
:1005000042ff00001f0800000cf800002cf800005b
:10051000a50a00004bff0000aeec0000c20d000079
:10052000b1270000dbed0000f4e50000ab13000094
:10053000500e000090ed000044f00000540d00004b
:10054000d7090000eeef000013f400008718000048
:100550008a060000beeb000073030000400b0000a1
:100560006dfa0000b6fc0000730f000095ff00005c
:10057000b7f000001b050000e204000054ed00008d
:10058000f6fa0000c40f0000bdf90000e5f300001a
:100590007e090000ea0a00001c080000b7080000fd
:1005a0002afd0000caf60000eeff00003203000042
:1005b0005bfc00002af80000c4ff0000e70b00000d
:1005c00061fc000098ec000023000000490c0000d2
:1005d0004bfb0000fefa00002e0d0000d2030000cd
:1005e000cff5000021ff00009b060000adff0000da
:1005f00062f800008d00000039090000f9010000d8
:10060000f9f8000071fc0000b3050000fd000000d7
:10061000fcf70000e9ff0000ba0d000038060000fa
:10062000a5ef000084f900006d0e000097010000a6
:10063000dff20000e4fb00007c0c0000b6050000c7
:100640004ff3000040fc00000409000059000000c6
:1006500032fb000087030000cb0c00003d060000c9
:100660002df6000002fc0000bc0500009d0100000a
:10067000bbfa00000ff60000190400001d0b00007b
:1006800055f7000088f50000900b00003e090000bf
:100690003cfa0000ae010000f60d00001507000056
:1006a0004ef300004afa0000bc0a0000b20100004c
:1006b000e9f1000022f60000c10a00000b0600006c
:1006c00018f2000053f90000da0e0000a90800003b
:1006d00000fc0000030200002f060000590100008a
:1006e000a6f800006efc0000a5050000f7fe000063
:1006f000e6ef000040fb00007e0c000096fe0000cc
:100700002bf50000320200009a0c000048060000a1
:100710000efc0000ddfc0000af0400001901000029
:10072000f0f7000087fc0000ac0400003ffd000073
:10073000cdf20000df000000360a00007ffa000062
:10074000aff50000c4070000770d0000e4f90000d9
:10075000c9f50000bd060000060c0000cafc000040
:10076000b2f40000db010000b7090000e2fc000069
:1007700063f0000002fe0000ad0b00004eff000021
:10078000d2f4000081010000e90e00003f050000e6
:100790002ef700000ffd0000820700001503000087
:1007a0002cf90000ecf90000980400002505000079
:1007b00056f80000f8f80000cc070000c50500005e
:1007c0003efb0000480100003d0900004cff000016
:1007d00066f5000064040000bb0e0000fafc000097
:1007e00052ed000012fb0000d80e0000e4040000ef
:1007f00015f00000c3f70000a90e0000d4080000a7
:10080000a1f90000eafe0000470700001502000001
:100810009bf8000018fd0000690500008efe000036
:100820000bf500008b010000560800008bf900005a
:10083000b4f70000ae040000ac090000460200005e
:10084000e3fb0000a5ff0000c204000030fe000032
:10085000a3f800004e0000008306000039fb0000f2
:10086000c8f200001a030000610800005ef80000f2
:10087000e4f70000f40a0000e20a000088f6000035
:10088000eaf80000db090000270a0000dbf900009d
:1008900038f60000b1040000f8070000ccf80000b2
:1008a0005df00000730100000a0c000021fc000054
:1008b00031f30000f8030000940f0000ed02000087
:1008c00041f70000b9fe0000100900000902000015
:1008d00072f80000d6fc0000ea030000e801000006
:1008e0006cf9000063fa00004a05000024040000cf
:1008f0007afb00008f00000034040000a5f900001e
:100900009efa0000b80d0000851000001ff60000e0
:10091000a3ea0000b3010000661200000204000018
:100920004aec0000cef30000ca0f0000640a000089
:10093000f7f2000085fa0000060b00005e040000dc
:1009400063f80000e9fb0000270500004a040000ee
:10095000f70400008d06000092fa000017f4000072
:10096000f2fe00004303000070fc0000f1f90000fb
:100970008b000000da07000087ff000040f800004d
:1009800056020000e812000001150000e8fc00001b
:10099000aae9000079f30000420500007c0800008d
:1009a0009e0000007ef7000092f900009603000010
:1009b000360900004604000046f80000e7f4000095
:1009c000a9fb000058030000fb0600009f0c00007c
:1009d000ce0a0000d6f9000005ee0000dcf50000ac
:1009e00002060000fe07000012fc00009ff9000054
:1009f0000805000010070000defd0000fdfe0000fd
:100a0000080b00002d0b000090fb000031f20000ed
:100a100054fc0000f10900004406000094fb0000b3
:100a2000fffa000079000000cafd0000e5f60000b2
:100a300053fb00001105000060060000dafe000014
:100a40006afa0000ea0200003d11000008130000ed
:100a50005501000097ee0000e3ef000022000000c7
:100a6000010a0000510400006df900002ef9000099
:100a7000b40200002e05000054ff000016fd000027
:100a8000c3fe00007efb0000cff80000b4080000a9
:100a900053170000980800007cef000003eb0000f3
:100aa000c7fc0000c8090000650300009ff90000b2
:100ab00008fc0000e00300000f020000aafe000096
:100ac000570700005d0c000083020000d5f4000011
:100ad00044f200009cfe0000cd0a0000d109000095
:100ae00089fe0000b2f6000054fa0000dafe0000b1
:100af0003cfd00005afc000010000000da04000079
:100b00001402000013fb0000960000002c0f0000f0
:100b100094110000a601000066ef000061ee0000e5
:100b2000d6fd0000300a0000f908000099fe000020
:100b30007ff500009cf7000034000000ee04000088
:100b4000c40100001bfc0000e5f80000da00000012
:100b50002c130000c713000058fe00001aec000020
:100b6000aced000040ff0000560a0000c303000087
:100b7000a7f900006bf90000940100005305000084
:100b8000b2020000de020000f004000007040000d2
:100b90005dfd0000f7f4000029f7000037040000b5
:100ba000a20c00005b080000bffd0000a7f60000db
:100bb0009cf4000040f6000015fd00006c060000eb
:100bc0005a0a000092030000bbf900000afd000071
:100bd0006c0c0000e313000086090000faf5000029
:100be00093ea000092f0000011010000920c000056
:100bf00002090000b6fd0000b4f7000018fa00007a
:100c0000ad0000007e0300009100000017fc000012
:100c100066fc00006d070000da110000db0d00002b
:100c2000aefd0000f7ec00000eea0000e7f6000061
:100c3000c1050000490b0000a70700006401000087
:100c400066fc000007f9000075fc00004607000084
:100c5000e70e0000500c0000630200004bf800009b
:100c600093f300001ef5000092fb00006c040000ee
:100c700023080000690300009afc0000fdf9000051
:100c8000e3fb000059fe0000b70000003e05000035
:100c9000760a00009a0c000042090000b90000002a
:100ca000e3f50000a4ee00007ef20000d5ff000096
:100cb00080090000250900009a030000affd000034
:100cc000f0f80000fbf700007cfe0000cc070000fd
:100cd000d00b00005d0800006501000014fd00005d
:100ce00097fb00000ffb000049fc000040ff0000e4
:100cf00077000000ddfd00006efb0000cafc000074
:100d0000feff0000c2010000b601000083020000e7
:100d100061060000330b0000cb0c0000de06000073
:100d200035fa000019ef00002aed0000aef50000d2
:100d300048020000380a0000c00a00000505000053
:100d40003dfc000089f60000ccf80000f400000033
:100d5000f5070000a90900006c060000a3010000cf
:100d6000f1fd000000fc0000b0fb0000d1fb000022
:100d70002dfb000030fa000093fb0000ceff0000c6
:100d80002d040000ce0500001d0300009efe0000a3
:100d90009ffd0000c1020000900a0000a60e0000a6
:100da000eb090000bdfc0000cbee000048e90000ac
:100db00050ef00005bfc000044090000670f0000da
:100dc000570c0000c903000033fb000021f70000ae
:100dd0000ef90000d3fe00008e040000340700006e
:100de000ce0600008b0400006401000064fd0000da
:100df000acf80000c7f4000042f400008ff80000d7
:100e000047000000d3070000940b00009b0800007f
:100e10006601000079fe0000b0010000d506000068
:100e2000bc0800008f0300001ffa0000f4f100006e
:100e300033ef0000bff3000075fd00009b070000ca
:100e4000ad0c0000740a00001704000036fd00001d
:100e500086f900007afa00007ffd0000990000008a
:100e6000980300003b060000f60600007404000032
:100e7000a3ff000053fa00004ff500006bf20000e2
:100e8000bcf40000b9fc000063060000e20b0000a7
:100e9000420a0000db050000ba040000b9050000aa
:100ea000eb050000e40300003cfe000045f60000f6
:100eb0005df0000060f0000083f60000daff000043
:100ec0005b080000c80c0000f00b000035060000b5
:100ed000a3fd000046f70000e1f600000efb000055
:100ee0008f0000007c05000088080000a2080000b8
:100ef000050600008401000005fc000057f6000014
:100f000012f200003bf20000fbf70000da000000e4
:100f1000db0800009a0b0000f6090000b80800008a
:100f20002c080000720700003b0500001aff0000bb
:100f3000b2f600005af00000cdee000062f20000b0
:100f400034fa000040040000cf0c0000a00f0000a5
:100f50004a0c0000f9040000bafb0000eff40000a6
:100f6000f7f30000e8f800006b010000250900001d
:100f7000d20c0000050c000066070000edff000029
:100f8000b5f7000050f100005cef0000fff2000038
:100f9000b0fa0000c6030000370a0000270b00006b
:100fa0000e0a0000240a0000f90900005e08000093
:100fb00059040000c7fd0000eef5000028ef000016
:100fc00017ed00001cf10000cbf900003004000018
:100fd000ae0c0000f0100000760f0000810700004a
:100fe000abfc00008af5000081f4000072f80000fc
:100ff000140000002a080000ce0c0000290c00009c
:101000003b060000bcfd00000ef6000023f10000ce
:1010100099f00000faf40000e0fc0000e604000093
:1010200046090000a2090000140900004909000057
:10103000a509000030090000ee05000056ff000081
:101040000af7000073ef0000d1eb000017ee00007c
:1010500025f60000bc0100002c0c00006f11000000
:10106000b6100000470a00008e000000bdf8000026
:10107000c9f5000077f80000a7ff0000e2060000b5
:101080005f0a0000f00800003f030000adfb000015
:10109000cff400003df10000e0f20000e4f80000b1
:1010a000720000002106000073080000c108000063
:1010b0005d080000e4070000a7070000ba06000072
:1010c000e6030000ccfe000011f80000e4f100008f
:1010d000daee000043f0000005f60000e8fe000034
:1010e000c90700002a0d0000040e0000650a000078
:1010f000b10400009d0000004eff0000a5000000ac
:10110000dc020000fd020000e1ff0000a0fa000088
:1011100075f5000090f20000aaf30000edf8000061
:10112000860000005d070000d80a0000630a000086
:10113000df06000039020000cefe00001ffe0000a6
:10114000e4ff0000570200007f0300004902000096
:1011500003ff0000b4fa0000cff600001bf500000a
:1011600091f60000e0fa0000730000005405000052
:101170001008000010080000b00600005306000030
:101180002f07000095070000fe050000a7010000e2
:1011900026fb0000ecf30000c1ee000071ee000041
:1011a00074f300007dfc0000500600007f0d00007d
:1011b000211000000f0d00002b050000c9fc0000ed
:1011c00037f800006cf800007cfc0000a002000072
:1011d000a4070000ef080000f1050000a0ff0000d8
:1011e000caf80000f2f3000072f2000006f50000f9
:1011f000fffa0000270200008d07000049090000e7
:10120000b00800005c080000b1080000f50800000c
:10121000d3070000790300003ffc000014f4000035
:10122000b1ed00001bec000084f0000028fa000083
:10123000e1050000c10e0000db110000030f0000fb
:10124000e606000048fd00000ff7000016f600005b
:10125000b7fa000085020000ab0800006c0a00002d
:101260004c0700009600000000f9000000f30000a9
:1012700037f10000acf400009dfb0000db02000031
:101280004f070000b2080000a90800002c08000069
:10129000cb07000078070000fe05000053020000a5
:1012a00074fc0000a4f5000058f00000d1ee00002e
:1012b000e0f10000fcf80000540200003b0a0000ce
:1012c000010e00002e0d00005b080000ec02000083
:1012d000cfff00006bff00005a0100002103000057
:1012e000430200007dfe00002df900008af400009a
:1012f000a5f20000cff40000b6fa00000c020000d6
:10130000f20700009e0a0000d0090000cc06000091
:101310005703000011010000bb000000670100003e
:101320008d01000030000000fcfc0000dff8000030
:101330004ef5000003f4000070f600002efc0000e3
:10134000f80200001c080000cd090000fd070000a5
:10135000170500009d03000003040000660500005f
:10136000e4050000e00300003fff0000d7f80000a4
:101370008ff200000cef0000e9ef0000a1f5000083
:10138000b2fe0000970700006d0d0000830e000004
:101390001b0b0000a3050000a500000001fe0000db
:1013a00050fe00005a000000eb0100001e0100008a
:1013b000b9fd000015f90000f0f4000037f300005b
:1013c00070f500007efb0000210300000009000012
:1013d000b50a0000e20800006d060000e604000007
:1013e0003e040000460400001704000057020000fd
:1013f00030fe00002ff800003ff2000009ef00006f
:101400004ef000001cf60000dcfe00009407000017
:10141000c70d0000530f00001a0c00001707000052
:10142000a1020000deff000015ff00001aff00000f
:10143000ddfe00008cfd00009efa0000def60000dc
:1014400014f4000020f4000009f800009cfe0000e5
:1014500052050000fe090000620b0000f1090000c7
:101460001e0700006f040000de02000051020000b1
:10147000a8010000ddff00009afc00006ff80000ea
:1014800077f400002df2000025f30000d3f70000f0
:10149000edfe0000fb050000010b0000a30c0000a6
:1014a0004d0b0000bd0800001c06000033040000c6
:1014b000db0200005e0100001dff000083fb000056
:1014c00023f7000038f300001ef1000093f2000043
:1014d000e6f70000cbff00009f070000b80c0000fb
:1014e000c50d00007a0b0000f2070000a204000006
:1014f00090020000bc010000fb00000060ff000043
:1015000059fc000058f8000056f40000c5f1000036
:1015100047f2000061f6000081fd00007b0500003d
:101520008c0b0000c40d0000580c00003b090000ab
:1015300009060000c3030000540200004a01000035
:101540008aff000020fc000099f70000fdf2000077
:1015500034f00000eff0000067f50000d2fc00005e
:1015600030050000fd0b0000f00e0000a40d00008f
:10157000150a0000390600003d0300006701000065
:1015800025000000e2fe0000d4fc000081f900000c
:101590006ef50000e8f100003bf1000063f400008c
:1015a000a0fa00007b0200007e090000760d00001a
:1015b0005e0d0000a40a00007b0700009f040000ed
:1015c0009c02000079010000620000003ffe000064
:1015d000bffa000085f6000063f200005cf0000036
:1015e000f0f1000030f700001fff00001b070000b3
:1015f000b90c0000a70e0000240d0000130a000023
:10160000e3060000630400008e020000d400000026
:10161000aefe000049fb00000ff70000e9f20000f9
:1016200020f00000b6f00000fcf4000032fc0000e6
:10163000820400003f0b0000a00e0000220e0000fc
:10164000560b00002108000090050000e303000095
:10165000770200009c00000072fd000008f9000005
:1016600055f400006cf0000039ef0000b3f1000009
:1016700083f7000095ff000095070000310d000082
:10168000d70e00003e0d00004a0a0000310700009e
:10169000fa0400006b030000dd010000caff000037
:1016a00035fc00006cf70000c5f200009aef000066
:1016b0006fef0000d3f2000061f900008501000027
:1016c000f6080000a20d00007c0e0000990c00003e
:1016d000ab090000d5060000e90400008a03000001
:1016e0000b020000d8ff000013fc00003bf70000d5
:1016f00063f2000017ef00001fef00009cf20000f3
:1017000026f900004d010000c8080000a90d0000e6
:10171000ce0e00002d0d0000820a0000be07000062
:101720009e050000ee030000f401000047ff0000ea
:101730005ffb0000adf6000060f2000086ef0000e5
:10174000a4ef00003cf3000091f900004d010000ff
:101750008c080000320d00003d0e0000be0c0000a1
:10176000490a0000fd0700002f060000b704000032
:10177000150300006b0000002cfc0000f5f60000d3
:1017800044f2000047ef0000f8ee000012f2000003
:1017900046f8000036000000e5070000560d000086
:1017a000fb0e00005a0d0000b60a000037080000ca
:1017b0005a06000023050000b70300007201000074
:1017c000b7fd000090f8000056f300007eef000027
:1017d00044ee0000b0f0000062f6000042fe00009f
:1017e00065060000510c0000d70e0000c10d00007e
:1017f0000c0b000094080000ae06000083050000fa
:1018000086040000dc020000aaff0000c7fa000006
:1018100015f5000050f0000012ee000042ef00004d
:10182000e5f3000026fb000060030000370a00001b
:10183000ec0d0000c60d00006c0b0000410900001b
:101840008d070000a106000034060000fa04000025
:101850003302000056fd00004af700009ff100002f
:10186000f4ed0000aeed0000ebf000001bf700000f
:101870001eff00009a060000d40b0000090e0000b5
:101880000c0d0000b00a0000de0800008107000017
:101890004c0600004205000069030000d5ff00006f
:1018a000d0fa000050f50000aaf0000052ee00004f
:1018b0000cef0000d3f2000020f9000073000000dc
:1018c00017070000bd0b0000320d0000370c0000b0
:1018d000a40a0000f8080000940700008b0600002e
:1018e00036050000f1020000e4fe000084f900006b
:1018f00010f40000a3ef0000bded00001fef00009a
:1019000075f3000045fa0000a3010000080800007c
:10191000300c0000f30c0000c40b00000a0a0000a9
:101920006c0800005c07000078060000510500000c
:101930001803000015ff0000aff900001af40000c2
:10194000a1ef00008bed0000f5ee000074f3000045
:1019500038fa0000a6010000f8070000240c00007f
:10196000e50c0000e20b0000710a0000da0800003c
:10197000fc070000fe060000a80500005c03000054
:101980001bff0000b5f9000007f4000094ef000011
:10199000d6ed000059ef0000c6f300001efa00006b
:1019a000160100002d070000410b0000620c000032
:1019b000570b0000f3090000c708000013080000df
:1019c000780700006a0600004b0400005e0000007b
:1019d0001bfb000060f5000078f0000007ee00003f
:1019e000e0ee000066f20000f2f70000acfe00003e
:1019f00005050000dd090000d50b0000270b0000e5
:101a0000e7090000d8080000a6070000d80600007b
:101a10003d060000f90400006a02000023fe0000f9
:101a2000b7f8000052f300007bef00004aee000020
:101a30001af0000060f400005bfa00003d010000b5
:101a4000f9060000ce0a0000ed0b0000710a00004c
:101a50001609000000080000ee060000a8060000bd
:101a600033060000b4040000810100007dfc00008a
:101a7000cff60000a6f10000a8ee0000d6ee0000b0
:101a8000b9f10000aaf60000fffc000050030000be
:101a90001b080000eb0a0000b80a0000140900004f
:101aa00064080000b00700003e0700005b0700006c
:101ab000b2060000a2040000cb0000007efb000084
:101ac00000f60000a6f100007def0000f6ef000038
:101ad000c8f200006bf7000004fd00009602000051
:101ae0007b0700005e0a0000b40a0000e60900005f
:101af0000909000054080000d7070000790700001a
:101b0000ad060000c20400003701000054fc0000d4
:101b1000f7f6000064f20000aaef0000a0ef00005a
:101b200051f2000005f7000024fd00004d03000005
:101b300076080000420b0000450b0000520a00002e
:101b4000340900002c08000079070000e0060000be
:101b5000e50500008103000077ff000043fa000064
:101b6000caf40000b3f0000033ef0000b5f000004d
:101b7000acf4000068fa0000ad000000220600008e
:101b8000d6090000030b0000620a000027090000cc
:101b900042080000c40700001d07000029060000dd
:101ba000ff0300002e00000033fb0000c9f5000019
:101bb00067f1000077ef000071f00000e8f300002b
:101bc00064f90000b9ff00008105000089090000e8
:101bd000c10a0000330a0000650900005608000031
:101be00043070000a0060000d20500001f0400000b
:101bf000c6000000cefb000035f6000050f10000ea
:101c000097ee0000bbee0000c6f10000def600001b
:101c100072fd00000c040000f1080000b80b000089
:101c20006d0b0000b7090000a60800007207000055
:101c3000b90600008e060000ae0500008203000019
:101c40006dff0000f3f9000059f40000f0ef000010
:101c50005aee0000d9ef0000b9f3000063f900006c
:101c6000f4ff0000ac050000ad090000360b0000d9
:101c7000f0090000ad080000220800005f07000026
:101c8000490700003a070000f80500001e030000a5
:101c900076fe0000c5f800008ff300001ef0000083
:101ca00051ef000042f1000046f50000aefa0000de
:101cb0005c0000008805000065090000900a000033
:101cc000dc090000f808000058080000f2070000d6
:101cd000bd070000660700002e0600005d0300003f
:101ce000fdfe0000c6f90000caf4000049f1000042
:101cf0000df0000076f10000e2f40000c8f90000e9
:101d00006fff0000ce040000f6080000900a0000fb
:101d10000e0a00003e09000077080000a20700003c
:101d20004f070000350700005c0600002804000093
:101d3000650000004efb0000f8f50000e9f100002e
:101d40001df00000dbf00000c2f300006af80000a4
:101d5000dffd00002e0300008e070000ba0900001e
:101d6000560900003f080000cb0700006a0700008a
:101d70004c0700008c0700002207000062050000ed
:101d8000f301000032fd0000f3f7000061f30000f2
:101d9000b3f000009df00000f5f20000bdf6000079
:101da0008cfb00007a000000f904000033080000fa
:101db000140900005f0800004b070000f006000057
:101dc00005070000fa060000fc0600005e060000a1
:101dd00054040000d00000004dfc00008af7000011
:101de000c1f30000f3f1000037f2000067f40000d7
:101df000fbf7000056fc0000df000000200500009b
:101e0000c10700001b080000af0700000207000028
:101e1000800600009e060000ce060000d6060000e8
:101e20003406000032040000e7000000b9fc0000a6
:101e30005bf80000d6f400000ef300003ff3000052
:101e400017f5000014f80000f4fb0000e4ff0000a8
:101e5000890300008e060000a4070000340700007c
:101e60007d0600001b0600000c060000270600008f
:101e7000620600002a060000d90400004c0200009f
:101e8000bafe000082fa0000a5f600002df4000062
:101e90006ef3000063f40000b2f600000efa0000da
:101ea000effd00009f010000240500001607000060
:101eb00076060000b305000094050000440500000c
:101ec000a905000064060000990600002f06000026
:101ed0006a0400003201000032fd0000f7f8000043
:101ee0008cf50000ebf30000ebf3000063f500005d
:101ef00038f80000c4fb000058ff0000900200000a
:101f00000e050000c1050000f2040000a30400005b
:101f100025050000910500005e0600004007000056
:101f20003f0700004b060000ef0300005a000000ce
:101f300052fc00007ef80000b0f5000088f40000bc
:101f4000f6f4000097f6000033f900005afc000098
:101f50006cff0000170200002d04000023050000a4
:101f6000100500001105000081050000fa050000c1
:101f700080060000f1060000d5060000dd05000027
:101f8000d5030000e400000069fd0000fdf9000039
:101f90004af70000c1f5000079f5000070f6000076
:101fa00068f8000013fb000011fe0000ff000000b5
:101fb000d2030000a7050000a705000014050000db
:101fc00015050000360500008905000046060000e2
:101fd000ca0600008a06000045050000c60200008f
:101fe00046ff00006dfb0000eff700009bf50000ce
:101ff000daf400007bf5000051f70000fef9000064
:1020000003fd0000f8ff0000ac0200009e04000089
:1020100012050000890400009c0400002b0500004c
:102020009f0500007406000000070000ca060000bb
:10203000b20500004f030000f0ff000032fc00007a
:10204000bcf8000038f6000032f5000089f5000009
:1020500001f700006af9000051fc000034ff0000a5
:10206000c7010000f9030000f8040000e6040000c6
:10207000e70400004d050000dc05000058060000e4
:10208000c4060000b3060000ad0500009d0300007b
:10209000a200000029fd0000d4f900003ff7000075
:1020a000d7f50000bff50000e0f60000f3f80000ef
